{
  "contracts/CampaignFactory.sol": {
    "CampaignFactory": {
      "abi": [
        {
          "anonymous": false,
          "inputs": [
            {
              "indexed": true,
              "internalType": "address",
              "name": "campaignAddress",
              "type": "address"
            },
            {
              "indexed": true,
              "internalType": "address",
              "name": "creator",
              "type": "address"
            },
            {
              "indexed": false,
              "internalType": "string",
              "name": "title",
              "type": "string"
            },
            {
              "indexed": false,
              "internalType": "string",
              "name": "description",
              "type": "string"
            },
            {
              "indexed": false,
              "internalType": "string",
              "name": "image",
              "type": "string"
            },
            {
              "indexed": false,
              "internalType": "uint256",
              "name": "goalAmount",
              "type": "uint256"
            },
            {
              "indexed": false,
              "internalType": "uint256",
              "name": "endDate",
              "type": "uint256"
            }
          ],
          "name": "CampaignCreated",
          "type": "event"
        },
        {
          "inputs": [
            {
              "internalType": "uint256",
              "name": "",
              "type": "uint256"
            }
          ],
          "name": "campaigns",
          "outputs": [
            {
              "internalType": "address",
              "name": "",
              "type": "address"
            }
          ],
          "stateMutability": "view",
          "type": "function"
        },
        {
          "inputs": [
            {
              "internalType": "string",
              "name": "_title",
              "type": "string"
            },
            {
              "internalType": "string",
              "name": "_description",
              "type": "string"
            },
            {
              "internalType": "string",
              "name": "_image",
              "type": "string"
            },
            {
              "internalType": "uint256",
              "name": "_goalAmount",
              "type": "uint256"
            },
            {
              "internalType": "uint256",
              "name": "_endDate",
              "type": "uint256"
            }
          ],
          "name": "createCampaign",
          "outputs": [],
          "stateMutability": "nonpayable",
          "type": "function"
        },
        {
          "inputs": [],
          "name": "getTotalCampaigns",
          "outputs": [
            {
              "internalType": "uint256",
              "name": "",
              "type": "uint256"
            }
          ],
          "stateMutability": "view",
          "type": "function"
        },
        {
          "inputs": [
            {
              "internalType": "address",
              "name": "",
              "type": "address"
            }
          ],
          "name": "hasActiveCampaign",
          "outputs": [
            {
              "internalType": "bool",
              "name": "",
              "type": "bool"
            }
          ],
          "stateMutability": "view",
          "type": "function"
        },
        {
          "inputs": [
            {
              "internalType": "address",
              "name": "creator",
              "type": "address"
            }
          ],
          "name": "resetActiveCampaignStatus",
          "outputs": [],
          "stateMutability": "nonpayable",
          "type": "function"
        }
      ],
      "evm": {
        "bytecode": {
          "linkReferences": {},
          "object": "6080604052348015600f57600080fd5b50612d458061001f6000396000f3fe608060405234801561001057600080fd5b50600436106100565760003560e01c80624545ef1461005b578063141961bc1461008b57806316f43dd4146100bb578063980f2e66146100d9578063ecf8d3da146100f5575b600080fd5b610075600480360381019061007091906104e0565b610111565b6040516100829190610528565b60405180910390f35b6100a560048036038101906100a09190610579565b610131565b6040516100b291906105b5565b60405180910390f35b6100c3610170565b6040516100d091906105df565b60405180910390f35b6100f360048036038101906100ee9190610740565b61017c565b005b61010f600480360381019061010a91906104e0565b61037a565b005b60016020528060005260406000206000915054906101000a900460ff1681565b6000818154811061014157600080fd5b906000526020600020016000915054906101000a900473ffffffffffffffffffffffffffffffffffffffff1681565b60008080549050905090565b600160003373ffffffffffffffffffffffffffffffffffffffff1673ffffffffffffffffffffffffffffffffffffffff16815260200190815260200160002060009054906101000a900460ff1615610209576040517f08c379a000000000000000000000000000000000000000000000000000000000815260040161020090610892565b60405180910390fd5b600033868686868660405161021d90610461565b61022c96959493929190610920565b604051809103906000f080158015610248573d6000803e3d6000fd5b5090506000819080600181540180825580915050600190039060005260206000200160009091909190916101000a81548173ffffffffffffffffffffffffffffffffffffffff021916908373ffffffffffffffffffffffffffffffffffffffff16021790555060018060003373ffffffffffffffffffffffffffffffffffffffff1673ffffffffffffffffffffffffffffffffffffffff16815260200190815260200160002060006101000a81548160ff0219169083151502179055503373ffffffffffffffffffffffffffffffffffffffff168173ffffffffffffffffffffffffffffffffffffffff167ffb0049a8ad52835682e47b378224ed17cf8fe67b6c8ef5fb540050085a76c8e4888888888860405161036a959493929190610996565b60405180910390a3505050505050565b600160008273ffffffffffffffffffffffffffffffffffffffff1673ffffffffffffffffffffffffffffffffffffffff16815260200190815260200160002060009054906101000a900460ff16610406576040517f08c379a00000000000000000000000000000000000000000000000000000000081526004016103fd90610a70565b60405180910390fd5b6000600160008373ffffffffffffffffffffffffffffffffffffffff1673ffffffffffffffffffffffffffffffffffffffff16815260200190815260200160002060006101000a81548160ff02191690831515021790555050565b61227f80610a9183390190565b6000604051905090565b600080fd5b600080fd5b600073ffffffffffffffffffffffffffffffffffffffff82169050919050565b60006104ad82610482565b9050919050565b6104bd816104a2565b81146104c857600080fd5b50565b6000813590506104da816104b4565b92915050565b6000602082840312156104f6576104f5610478565b5b6000610504848285016104cb565b91505092915050565b60008115159050919050565b6105228161050d565b82525050565b600060208201905061053d6000830184610519565b92915050565b6000819050919050565b61055681610543565b811461056157600080fd5b50565b6000813590506105738161054d565b92915050565b60006020828403121561058f5761058e610478565b5b600061059d84828501610564565b91505092915050565b6105af816104a2565b82525050565b60006020820190506105ca60008301846105a6565b92915050565b6105d981610543565b82525050565b60006020820190506105f460008301846105d0565b92915050565b600080fd5b600080fd5b6000601f19601f8301169050919050565b7f4e487b7100000000000000000000000000000000000000000000000000000000600052604160045260246000fd5b61064d82610604565b810181811067ffffffffffffffff8211171561066c5761066b610615565b5b80604052505050565b600061067f61046e565b905061068b8282610644565b919050565b600067ffffffffffffffff8211156106ab576106aa610615565b5b6106b482610604565b9050602081019050919050565b82818337600083830152505050565b60006106e36106de84610690565b610675565b9050828152602081018484840111156106ff576106fe6105ff565b5b61070a8482856106c1565b509392505050565b600082601f830112610727576107266105fa565b5b81356107378482602086016106d0565b91505092915050565b600080600080600060a0868803121561075c5761075b610478565b5b600086013567ffffffffffffffff81111561077a5761077961047d565b5b61078688828901610712565b955050602086013567ffffffffffffffff8111156107a7576107a661047d565b5b6107b388828901610712565b945050604086013567ffffffffffffffff8111156107d4576107d361047d565b5b6107e088828901610712565b93505060606107f188828901610564565b925050608061080288828901610564565b9150509295509295909350565b600082825260208201905092915050565b7f596f7520616c7265616479206861766520616e206163746976652063616d706160008201527f69676e2e00000000000000000000000000000000000000000000000000000000602082015250565b600061087c60248361080f565b915061088782610820565b604082019050919050565b600060208201905081810360008301526108ab8161086f565b9050919050565b600081519050919050565b60005b838110156108db5780820151818401526020810190506108c0565b60008484015250505050565b60006108f2826108b2565b6108fc818561080f565b935061090c8185602086016108bd565b61091581610604565b840191505092915050565b600060c08201905061093560008301896105a6565b818103602083015261094781886108e7565b9050818103604083015261095b81876108e7565b9050818103606083015261096f81866108e7565b905061097e60808301856105d0565b61098b60a08301846105d0565b979650505050505050565b600060a08201905081810360008301526109b081886108e7565b905081810360208301526109c481876108e7565b905081810360408301526109d881866108e7565b90506109e760608301856105d0565b6109f460808301846105d0565b9695505050505050565b7f43726561746f7220646f6573206e6f74206861766520616e206163746976652060008201527f63616d706169676e2e0000000000000000000000000000000000000000000000602082015250565b6000610a5a60298361080f565b9150610a65826109fe565b604082019050919050565b60006020820190508181036000830152610a8981610a4d565b905091905056fe608060405234801561001057600080fd5b5060405161227f38038061227f833981810160405281019061003291906103b5565b428111610074576040517f08c379a000000000000000000000000000000000000000000000000000000000815260040161006b906104f3565b60405180910390fd5b600082116100b7576040517f08c379a00000000000000000000000000000000000000000000000000000000081526004016100ae90610585565b60405180910390fd5b856000806101000a81548173ffffffffffffffffffffffffffffffffffffffff021916908373ffffffffffffffffffffffffffffffffffffffff160217905550846001908161010691906107bc565b50836002908161011691906107bc565b50826003908161012691906107bc565b5081600481905550806006819055506000600760006101000a81548160ff0219169083151502179055506000600760016101000a81548160ff0219169083151502179055506000600760026101000a81548160ff0219169083151502179055506000600760036101000a81548160ff02191690831515021790555050505050505061088e565b6000604051905090565b600080fd5b600080fd5b600073ffffffffffffffffffffffffffffffffffffffff82169050919050565b60006101eb826101c0565b9050919050565b6101fb816101e0565b811461020657600080fd5b50565b600081519050610218816101f2565b92915050565b600080fd5b600080fd5b6000601f19601f8301169050919050565b7f4e487b7100000000000000000000000000000000000000000000000000000000600052604160045260246000fd5b61027182610228565b810181811067ffffffffffffffff821117156102905761028f610239565b5b80604052505050565b60006102a36101ac565b90506102af8282610268565b919050565b600067ffffffffffffffff8211156102cf576102ce610239565b5b6102d882610228565b9050602081019050919050565b60005b838110156103035780820151818401526020810190506102e8565b60008484015250505050565b600061032261031d846102b4565b610299565b90508281526020810184848401111561033e5761033d610223565b5b6103498482856102e5565b509392505050565b600082601f8301126103665761036561021e565b5b815161037684826020860161030f565b91505092915050565b6000819050919050565b6103928161037f565b811461039d57600080fd5b50565b6000815190506103af81610389565b92915050565b60008060008060008060c087890312156103d2576103d16101b6565b5b60006103e089828a01610209565b965050602087015167ffffffffffffffff811115610401576104006101bb565b5b61040d89828a01610351565b955050604087015167ffffffffffffffff81111561042e5761042d6101bb565b5b61043a89828a01610351565b945050606087015167ffffffffffffffff81111561045b5761045a6101bb565b5b61046789828a01610351565b935050608061047889828a016103a0565b92505060a061048989828a016103a0565b9150509295509295509295565b600082825260208201905092915050565b7f456e642064617465206d75737420626520696e20746865206675747572650000600082015250565b60006104dd601e83610496565b91506104e8826104a7565b602082019050919050565b6000602082019050818103600083015261050c816104d0565b9050919050565b7f476f616c20616d6f756e74206d7573742062652067726561746572207468616e60008201527f2030000000000000000000000000000000000000000000000000000000000000602082015250565b600061056f602283610496565b915061057a82610513565b604082019050919050565b6000602082019050818103600083015261059e81610562565b9050919050565b600081519050919050565b7f4e487b7100000000000000000000000000000000000000000000000000000000600052602260045260246000fd5b600060028204905060018216806105f757607f821691505b60208210810361060a576106096105b0565b5b50919050565b60008190508160005260206000209050919050565b60006020601f8301049050919050565b600082821b905092915050565b6000600883026106727fffffffffffffffffffffffffffffffffffffffffffffffffffffffffffffffff82610635565b61067c8683610635565b95508019841693508086168417925050509392505050565b6000819050919050565b60006106b96106b46106af8461037f565b610694565b61037f565b9050919050565b6000819050919050565b6106d38361069e565b6106e76106df826106c0565b848454610642565b825550505050565b600090565b6106fc6106ef565b6107078184846106ca565b505050565b5b8181101561072b576107206000826106f4565b60018101905061070d565b5050565b601f8211156107705761074181610610565b61074a84610625565b81016020851015610759578190505b61076d61076585610625565b83018261070c565b50505b505050565b600082821c905092915050565b600061079360001984600802610775565b1980831691505092915050565b60006107ac8383610782565b9150826002028217905092915050565b6107c5826105a5565b67ffffffffffffffff8111156107de576107dd610239565b5b6107e882546105df565b6107f382828561072f565b600060209050601f8311600181146108265760008415610814578287015190505b61081e85826107a0565b865550610886565b601f19841661083486610610565b60005b8281101561085c57848901518255600182019150602085019450602081019050610837565b868310156108795784890151610875601f891682610782565b8355505b6001600288020188555050505b505050505050565b6119e28061089d6000396000f3fe60806040526004361061012a5760003560e01c806371aac7f9116100ab578063bd0c8ccc1161006f578063bd0c8ccc146103a8578063c24a0f8b146103d3578063db45810e146103fe578063e4880d9614610429578063ed88c68e14610454578063f3ccaac01461045e5761012a565b806371aac7f9146102e55780637284e416146102fc57806385eaac3e14610327578063aaf422bd14610352578063aff755121461037d5761012a565b80633cb5d100116100f25780633cb5d1001461021257806342e94c901461024f5780634a79d50c1461028c578063590e1ae3146102b757806369d89575146102ce5761012a565b806302d05d3f1461012f5780630c611f241461015a5780630cd205781461018f57806310550515146101ba5780632636b945146101e7575b600080fd5b34801561013b57600080fd5b50610144610489565b6040516101519190611153565b60405180910390f35b34801561016657600080fd5b5061016f6104ad565b6040516101869b9a99989796959493929190611232565b60405180910390f35b34801561019b57600080fd5b506101a46106f7565b6040516101b191906112f2565b60405180910390f35b3480156101c657600080fd5b506101cf61070a565b6040516101de9392919061130d565b60405180910390f35b3480156101f357600080fd5b506101fc61073d565b6040516102099190611344565b60405180910390f35b34801561021e57600080fd5b5061023960048036038101906102349190611390565b610743565b6040516102469190611153565b60405180910390f35b34801561025b57600080fd5b50610276600480360381019061027191906113e9565b610782565b6040516102839190611344565b60405180910390f35b34801561029857600080fd5b506102a161079a565b6040516102ae9190611416565b60405180910390f35b3480156102c357600080fd5b506102cc610828565b005b3480156102da57600080fd5b506102e3610a8c565b005b3480156102f157600080fd5b506102fa610caa565b005b34801561030857600080fd5b50610311610cc7565b60405161031e9190611416565b60405180910390f35b34801561033357600080fd5b5061033c610d55565b60405161034991906112f2565b60405180910390f35b34801561035e57600080fd5b50610367610d68565b6040516103749190611344565b60405180910390f35b34801561038957600080fd5b50610392610d6e565b60405161039f9190611153565b60405180910390f35b3480156103b457600080fd5b506103bd610d86565b6040516103ca91906112f2565b60405180910390f35b3480156103df57600080fd5b506103e8610d99565b6040516103f59190611344565b60405180910390f35b34801561040a57600080fd5b50610413610d9f565b6040516104209190611344565b60405180910390f35b34801561043557600080fd5b5061043e610daa565b60405161044b91906112f2565b60405180910390f35b61045c610dbd565b005b34801561046a57600080fd5b50610473611084565b6040516104809190611416565b60405180910390f35b60008054906101000a900473ffffffffffffffffffffffffffffffffffffffff1681565b6000606080606060008060008060008060008060009054906101000a900473ffffffffffffffffffffffffffffffffffffffff16600160026003600454600554600654600760009054906101000a900460ff16600760019054906101000a900460ff16600760029054906101000a900460ff16600760039054906101000a900460ff1689805461053c90611467565b80601f016020809104026020016040519081016040528092919081815260200182805461056890611467565b80156105b55780601f1061058a576101008083540402835291602001916105b5565b820191906000526020600020905b81548152906001019060200180831161059857829003601f168201915b505050505099508880546105c890611467565b80601f01602080910402602001604051908101604052809291908181526020018280546105f490611467565b80156106415780601f1061061657610100808354040283529160200191610641565b820191906000526020600020905b81548152906001019060200180831161062457829003601f168201915b5050505050985087805461065490611467565b80601f016020809104026020016040519081016040528092919081815260200182805461068090611467565b80156106cd5780601f106106a2576101008083540402835291602001916106cd565b820191906000526020600020905b8154815290600101906020018083116106b057829003601f168201915b505050505097509a509a509a509a509a509a509a509a509a509a509a50909192939495969798999a565b600760009054906101000a900460ff1681565b6000806000600760019054906101000a900460ff16600760009054906101000a900460ff16600554925092509250909192565b60045481565b6009818154811061075357600080fd5b906000526020600020016000915054906101000a900473ffffffffffffffffffffffffffffffffffffffff1681565b60086020528060005260406000206000915090505481565b600180546107a790611467565b80601f01602080910402602001604051908101604052809291908181526020018280546107d390611467565b80156108205780601f106107f557610100808354040283529160200191610820565b820191906000526020600020905b81548152906001019060200180831161080357829003601f168201915b505050505081565b600760009054906101000a900460ff1615610878576040517f08c379a000000000000000000000000000000000000000000000000000000000815260040161086f906114e4565b60405180910390fd5b600654421015806108955750600760019054906101000a900460ff165b6108d4576040517f08c379a00000000000000000000000000000000000000000000000000000000081526004016108cb90611576565b60405180910390fd5b6000805b600980549050811015610a6d576000600982815481106108fb576108fa611596565b5b9060005260206000200160009054906101000a900473ffffffffffffffffffffffffffffffffffffffff1690506000600860008373ffffffffffffffffffffffffffffffffffffffff1673ffffffffffffffffffffffffffffffffffffffff1681526020019081526020016000205490506000811115610a5e576000600860008473ffffffffffffffffffffffffffffffffffffffff1673ffffffffffffffffffffffffffffffffffffffff168152602001908152602001600020819055508173ffffffffffffffffffffffffffffffffffffffff166108fc829081150290604051600060405180830381858888f19350505050158015610a00573d6000803e3d6000fd5b508084610a0d91906115f4565b93508173ffffffffffffffffffffffffffffffffffffffff167fa171b6942063c6f2800ce40a780edce37baa2b618571b11eedd1e69e626e7d7682604051610a559190611344565b60405180910390a25b505080806001019150506108d8565b506001600760036101000a81548160ff02191690831515021790555050565b600760009054906101000a900460ff16610adb576040517f08c379a0000000000000000000000000000000000000000000000000000000008152600401610ad290611674565b60405180910390fd5b6000600554905060008111610b25576040517f08c379a0000000000000000000000000000000000000000000000000000000008152600401610b1c906116e0565b60405180910390fd5b60006064600583610b369190611700565b610b409190611771565b905060008183610b5091906117a2565b9050600060058190555073a16095c9b486e9f81f8170d932724fd043896b8a73ffffffffffffffffffffffffffffffffffffffff166108fc839081150290604051600060405180830381858888f19350505050158015610bb4573d6000803e3d6000fd5b5060008054906101000a900473ffffffffffffffffffffffffffffffffffffffff1673ffffffffffffffffffffffffffffffffffffffff166108fc829081150290604051600060405180830381858888f19350505050158015610c1b573d6000803e3d6000fd5b506001600760026101000a81548160ff02191690831515021790555060008054906101000a900473ffffffffffffffffffffffffffffffffffffffff1673ffffffffffffffffffffffffffffffffffffffff167f221c08a06b07a64803b3787861a3f276212fcccb51c2e6234077a9b8cb13047a82604051610c9d9190611344565b60405180910390a2505050565b6001600760016101000a81548160ff021916908315150217905550565b60028054610cd490611467565b80601f0160208091040260200160405190810160405280929190818152602001828054610d0090611467565b8015610d4d5780601f10610d2257610100808354040283529160200191610d4d565b820191906000526020600020905b815481529060010190602001808311610d3057829003601f168201915b505050505081565b600760039054906101000a900460ff1681565b60055481565b73a16095c9b486e9f81f8170d932724fd043896b8a81565b600760029054906101000a900460ff1681565b60065481565b66038d7ea4c6800081565b600760019054906101000a900460ff1681565b6006544210610e01576040517f08c379a0000000000000000000000000000000000000000000000000000000008152600401610df890611822565b60405180910390fd5b600760019054906101000a900460ff1615610e51576040517f08c379a0000000000000000000000000000000000000000000000000000000008152600401610e489061188e565b60405180910390fd5b600034905066038d7ea4c68000811015610ea0576040517f08c379a0000000000000000000000000000000000000000000000000000000008152600401610e9790611920565b60405180910390fd5b60045481600554610eb191906115f4565b1115610ef2576040517f08c379a0000000000000000000000000000000000000000000000000000000008152600401610ee99061198c565b60405180910390fd5b6000600860003373ffffffffffffffffffffffffffffffffffffffff1673ffffffffffffffffffffffffffffffffffffffff1681526020019081526020016000205403610f9d576009339080600181540180825580915050600190039060005260206000200160009091909190916101000a81548173ffffffffffffffffffffffffffffffffffffffff021916908373ffffffffffffffffffffffffffffffffffffffff1602179055505b80600860003373ffffffffffffffffffffffffffffffffffffffff1673ffffffffffffffffffffffffffffffffffffffff1681526020019081526020016000206000828254610fec91906115f4565b92505081905550806005600082825461100591906115f4565b925050819055503373ffffffffffffffffffffffffffffffffffffffff167f264f630d9efa0d07053a31163641d9fcc0adafc9d9e76f1c37c2ce3a558d2c52346040516110529190611344565b60405180910390a260045460055410611081576001600760006101000a81548160ff0219169083151502179055505b50565b6003805461109190611467565b80601f01602080910402602001604051908101604052809291908181526020018280546110bd90611467565b801561110a5780601f106110df5761010080835404028352916020019161110a565b820191906000526020600020905b8154815290600101906020018083116110ed57829003601f168201915b505050505081565b600073ffffffffffffffffffffffffffffffffffffffff82169050919050565b600061113d82611112565b9050919050565b61114d81611132565b82525050565b60006020820190506111686000830184611144565b92915050565b600081519050919050565b600082825260208201905092915050565b60005b838110156111a857808201518184015260208101905061118d565b60008484015250505050565b6000601f19601f8301169050919050565b60006111d08261116e565b6111da8185611179565b93506111ea81856020860161118a565b6111f3816111b4565b840191505092915050565b6000819050919050565b611211816111fe565b82525050565b60008115159050919050565b61122c81611217565b82525050565b600061016082019050611248600083018e611144565b818103602083015261125a818d6111c5565b9050818103604083015261126e818c6111c5565b90508181036060830152611282818b6111c5565b9050611291608083018a611208565b61129e60a0830189611208565b6112ab60c0830188611208565b6112b860e0830187611223565b6112c6610100830186611223565b6112d4610120830185611223565b6112e2610140830184611223565b9c9b505050505050505050505050565b60006020820190506113076000830184611223565b92915050565b60006060820190506113226000830186611223565b61132f6020830185611223565b61133c6040830184611208565b949350505050565b60006020820190506113596000830184611208565b92915050565b600080fd5b61136d816111fe565b811461137857600080fd5b50565b60008135905061138a81611364565b92915050565b6000602082840312156113a6576113a561135f565b5b60006113b48482850161137b565b91505092915050565b6113c681611132565b81146113d157600080fd5b50565b6000813590506113e3816113bd565b92915050565b6000602082840312156113ff576113fe61135f565b5b600061140d848285016113d4565b91505092915050565b6000602082019050818103600083015261143081846111c5565b905092915050565b7f4e487b7100000000000000000000000000000000000000000000000000000000600052602260045260246000fd5b6000600282049050600182168061147f57607f821691505b60208210810361149257611491611438565b5b50919050565b7f476f616c206d65742c206e6f20726566756e647320617661696c61626c650000600082015250565b60006114ce601e83611179565b91506114d982611498565b602082019050919050565b600060208201905081810360008301526114fd816114c1565b9050919050565b7f43616d706169676e206d75737420626520656e64656420666f7220726566756e60008201527f6473000000000000000000000000000000000000000000000000000000000000602082015250565b6000611560602283611179565b915061156b82611504565b604082019050919050565b6000602082019050818103600083015261158f81611553565b9050919050565b7f4e487b7100000000000000000000000000000000000000000000000000000000600052603260045260246000fd5b7f4e487b7100000000000000000000000000000000000000000000000000000000600052601160045260246000fd5b60006115ff826111fe565b915061160a836111fe565b9250828201905080821115611622576116216115c5565b5b92915050565b7f476f616c206e6f74206d65740000000000000000000000000000000000000000600082015250565b600061165e600c83611179565b915061166982611628565b602082019050919050565b6000602082019050818103600083015261168d81611651565b9050919050565b7f4e6f2066756e647320746f2072656c6561736500000000000000000000000000600082015250565b60006116ca601383611179565b91506116d582611694565b602082019050919050565b600060208201905081810360008301526116f9816116bd565b9050919050565b600061170b826111fe565b9150611716836111fe565b9250828202611724816111fe565b9150828204841483151761173b5761173a6115c5565b5b5092915050565b7f4e487b7100000000000000000000000000000000000000000000000000000000600052601260045260246000fd5b600061177c826111fe565b9150611787836111fe565b92508261179757611796611742565b5b828204905092915050565b60006117ad826111fe565b91506117b8836111fe565b92508282039050818111156117d0576117cf6115c5565b5b92915050565b7f43616d706169676e2068617320656e6465640000000000000000000000000000600082015250565b600061180c601283611179565b9150611817826117d6565b602082019050919050565b6000602082019050818103600083015261183b816117ff565b9050919050565b7f43616d706169676e2068617320616c726561647920656e646564000000000000600082015250565b6000611878601a83611179565b915061188382611842565b602082019050919050565b600060208201905081810360008301526118a78161186b565b9050919050565b7f446f6e6174696f6e732062656c6f7720746865206d696e696d756d20616d6f7560008201527f6e7420617265206e6f7420616c6c6f7765640000000000000000000000000000602082015250565b600061190a603283611179565b9150611915826118ae565b604082019050919050565b60006020820190508181036000830152611939816118fd565b9050919050565b7f446f6e6174696f6e206578636565647320676f616c0000000000000000000000600082015250565b6000611976601583611179565b915061198182611940565b602082019050919050565b600060208201905081810360008301526119a581611969565b905091905056fea2646970667358221220ca2e0e29567923449e2b763bcb84f427bfbaf3e1970af91edb4689e2595c6ad064736f6c634300081b0033a26469706673582212202cfb6aa049a3469ef1df547ce88368c080218a01d95b7b2c6a52fb3410efe35064736f6c634300081b0033",
          "opcodes": "PUSH1 0x80 PUSH1 0x40 MSTORE CALLVALUE DUP1 ISZERO PUSH1 0xF JUMPI PUSH1 0x0 DUP1 REVERT JUMPDEST POP PUSH2 0x2D45 DUP1 PUSH2 0x1F PUSH1 0x0 CODECOPY PUSH1 0x0 RETURN INVALID PUSH1 0x80 PUSH1 0x40 MSTORE CALLVALUE DUP1 ISZERO PUSH2 0x10 JUMPI PUSH1 0x0 DUP1 REVERT JUMPDEST POP PUSH1 0x4 CALLDATASIZE LT PUSH2 0x56 JUMPI PUSH1 0x0 CALLDATALOAD PUSH1 0xE0 SHR DUP1 PUSH3 0x4545EF EQ PUSH2 0x5B JUMPI DUP1 PUSH4 0x141961BC EQ PUSH2 0x8B JUMPI DUP1 PUSH4 0x16F43DD4 EQ PUSH2 0xBB JUMPI DUP1 PUSH4 0x980F2E66 EQ PUSH2 0xD9 JUMPI DUP1 PUSH4 0xECF8D3DA EQ PUSH2 0xF5 JUMPI JUMPDEST PUSH1 0x0 DUP1 REVERT JUMPDEST PUSH2 0x75 PUSH1 0x4 DUP1 CALLDATASIZE SUB DUP2 ADD SWAP1 PUSH2 0x70 SWAP2 SWAP1 PUSH2 0x4E0 JUMP JUMPDEST PUSH2 0x111 JUMP JUMPDEST PUSH1 0x40 MLOAD PUSH2 0x82 SWAP2 SWAP1 PUSH2 0x528 JUMP JUMPDEST PUSH1 0x40 MLOAD DUP1 SWAP2 SUB SWAP1 RETURN JUMPDEST PUSH2 0xA5 PUSH1 0x4 DUP1 CALLDATASIZE SUB DUP2 ADD SWAP1 PUSH2 0xA0 SWAP2 SWAP1 PUSH2 0x579 JUMP JUMPDEST PUSH2 0x131 JUMP JUMPDEST PUSH1 0x40 MLOAD PUSH2 0xB2 SWAP2 SWAP1 PUSH2 0x5B5 JUMP JUMPDEST PUSH1 0x40 MLOAD DUP1 SWAP2 SUB SWAP1 RETURN JUMPDEST PUSH2 0xC3 PUSH2 0x170 JUMP JUMPDEST PUSH1 0x40 MLOAD PUSH2 0xD0 SWAP2 SWAP1 PUSH2 0x5DF JUMP JUMPDEST PUSH1 0x40 MLOAD DUP1 SWAP2 SUB SWAP1 RETURN JUMPDEST PUSH2 0xF3 PUSH1 0x4 DUP1 CALLDATASIZE SUB DUP2 ADD SWAP1 PUSH2 0xEE SWAP2 SWAP1 PUSH2 0x740 JUMP JUMPDEST PUSH2 0x17C JUMP JUMPDEST STOP JUMPDEST PUSH2 0x10F PUSH1 0x4 DUP1 CALLDATASIZE SUB DUP2 ADD SWAP1 PUSH2 0x10A SWAP2 SWAP1 PUSH2 0x4E0 JUMP JUMPDEST PUSH2 0x37A JUMP JUMPDEST STOP JUMPDEST PUSH1 0x1 PUSH1 0x20 MSTORE DUP1 PUSH1 0x0 MSTORE PUSH1 0x40 PUSH1 0x0 KECCAK256 PUSH1 0x0 SWAP2 POP SLOAD SWAP1 PUSH2 0x100 EXP SWAP1 DIV PUSH1 0xFF AND DUP2 JUMP JUMPDEST PUSH1 0x0 DUP2 DUP2 SLOAD DUP2 LT PUSH2 0x141 JUMPI PUSH1 0x0 DUP1 REVERT JUMPDEST SWAP1 PUSH1 0x0 MSTORE PUSH1 0x20 PUSH1 0x0 KECCAK256 ADD PUSH1 0x0 SWAP2 POP SLOAD SWAP1 PUSH2 0x100 EXP SWAP1 DIV PUSH20 0xFFFFFFFFFFFFFFFFFFFFFFFFFFFFFFFFFFFFFFFF AND DUP2 JUMP JUMPDEST PUSH1 0x0 DUP1 DUP1 SLOAD SWAP1 POP SWAP1 POP SWAP1 JUMP JUMPDEST PUSH1 0x1 PUSH1 0x0 CALLER PUSH20 0xFFFFFFFFFFFFFFFFFFFFFFFFFFFFFFFFFFFFFFFF AND PUSH20 0xFFFFFFFFFFFFFFFFFFFFFFFFFFFFFFFFFFFFFFFF AND DUP2 MSTORE PUSH1 0x20 ADD SWAP1 DUP2 MSTORE PUSH1 0x20 ADD PUSH1 0x0 KECCAK256 PUSH1 0x0 SWAP1 SLOAD SWAP1 PUSH2 0x100 EXP SWAP1 DIV PUSH1 0xFF AND ISZERO PUSH2 0x209 JUMPI PUSH1 0x40 MLOAD PUSH32 0x8C379A000000000000000000000000000000000000000000000000000000000 DUP2 MSTORE PUSH1 0x4 ADD PUSH2 0x200 SWAP1 PUSH2 0x892 JUMP JUMPDEST PUSH1 0x40 MLOAD DUP1 SWAP2 SUB SWAP1 REVERT JUMPDEST PUSH1 0x0 CALLER DUP7 DUP7 DUP7 DUP7 DUP7 PUSH1 0x40 MLOAD PUSH2 0x21D SWAP1 PUSH2 0x461 JUMP JUMPDEST PUSH2 0x22C SWAP7 SWAP6 SWAP5 SWAP4 SWAP3 SWAP2 SWAP1 PUSH2 0x920 JUMP JUMPDEST PUSH1 0x40 MLOAD DUP1 SWAP2 SUB SWAP1 PUSH1 0x0 CREATE DUP1 ISZERO DUP1 ISZERO PUSH2 0x248 JUMPI RETURNDATASIZE PUSH1 0x0 DUP1 RETURNDATACOPY RETURNDATASIZE PUSH1 0x0 REVERT JUMPDEST POP SWAP1 POP PUSH1 0x0 DUP2 SWAP1 DUP1 PUSH1 0x1 DUP2 SLOAD ADD DUP1 DUP3 SSTORE DUP1 SWAP2 POP POP PUSH1 0x1 SWAP1 SUB SWAP1 PUSH1 0x0 MSTORE PUSH1 0x20 PUSH1 0x0 KECCAK256 ADD PUSH1 0x0 SWAP1 SWAP2 SWAP1 SWAP2 SWAP1 SWAP2 PUSH2 0x100 EXP DUP2 SLOAD DUP2 PUSH20 0xFFFFFFFFFFFFFFFFFFFFFFFFFFFFFFFFFFFFFFFF MUL NOT AND SWAP1 DUP4 PUSH20 0xFFFFFFFFFFFFFFFFFFFFFFFFFFFFFFFFFFFFFFFF AND MUL OR SWAP1 SSTORE POP PUSH1 0x1 DUP1 PUSH1 0x0 CALLER PUSH20 0xFFFFFFFFFFFFFFFFFFFFFFFFFFFFFFFFFFFFFFFF AND PUSH20 0xFFFFFFFFFFFFFFFFFFFFFFFFFFFFFFFFFFFFFFFF AND DUP2 MSTORE PUSH1 0x20 ADD SWAP1 DUP2 MSTORE PUSH1 0x20 ADD PUSH1 0x0 KECCAK256 PUSH1 0x0 PUSH2 0x100 EXP DUP2 SLOAD DUP2 PUSH1 0xFF MUL NOT AND SWAP1 DUP4 ISZERO ISZERO MUL OR SWAP1 SSTORE POP CALLER PUSH20 0xFFFFFFFFFFFFFFFFFFFFFFFFFFFFFFFFFFFFFFFF AND DUP2 PUSH20 0xFFFFFFFFFFFFFFFFFFFFFFFFFFFFFFFFFFFFFFFF AND PUSH32 0xFB0049A8AD52835682E47B378224ED17CF8FE67B6C8EF5FB540050085A76C8E4 DUP9 DUP9 DUP9 DUP9 DUP9 PUSH1 0x40 MLOAD PUSH2 0x36A SWAP6 SWAP5 SWAP4 SWAP3 SWAP2 SWAP1 PUSH2 0x996 JUMP JUMPDEST PUSH1 0x40 MLOAD DUP1 SWAP2 SUB SWAP1 LOG3 POP POP POP POP POP POP JUMP JUMPDEST PUSH1 0x1 PUSH1 0x0 DUP3 PUSH20 0xFFFFFFFFFFFFFFFFFFFFFFFFFFFFFFFFFFFFFFFF AND PUSH20 0xFFFFFFFFFFFFFFFFFFFFFFFFFFFFFFFFFFFFFFFF AND DUP2 MSTORE PUSH1 0x20 ADD SWAP1 DUP2 MSTORE PUSH1 0x20 ADD PUSH1 0x0 KECCAK256 PUSH1 0x0 SWAP1 SLOAD SWAP1 PUSH2 0x100 EXP SWAP1 DIV PUSH1 0xFF AND PUSH2 0x406 JUMPI PUSH1 0x40 MLOAD PUSH32 0x8C379A000000000000000000000000000000000000000000000000000000000 DUP2 MSTORE PUSH1 0x4 ADD PUSH2 0x3FD SWAP1 PUSH2 0xA70 JUMP JUMPDEST PUSH1 0x40 MLOAD DUP1 SWAP2 SUB SWAP1 REVERT JUMPDEST PUSH1 0x0 PUSH1 0x1 PUSH1 0x0 DUP4 PUSH20 0xFFFFFFFFFFFFFFFFFFFFFFFFFFFFFFFFFFFFFFFF AND PUSH20 0xFFFFFFFFFFFFFFFFFFFFFFFFFFFFFFFFFFFFFFFF AND DUP2 MSTORE PUSH1 0x20 ADD SWAP1 DUP2 MSTORE PUSH1 0x20 ADD PUSH1 0x0 KECCAK256 PUSH1 0x0 PUSH2 0x100 EXP DUP2 SLOAD DUP2 PUSH1 0xFF MUL NOT AND SWAP1 DUP4 ISZERO ISZERO MUL OR SWAP1 SSTORE POP POP JUMP JUMPDEST PUSH2 0x227F DUP1 PUSH2 0xA91 DUP4 CODECOPY ADD SWAP1 JUMP JUMPDEST PUSH1 0x0 PUSH1 0x40 MLOAD SWAP1 POP SWAP1 JUMP JUMPDEST PUSH1 0x0 DUP1 REVERT JUMPDEST PUSH1 0x0 DUP1 REVERT JUMPDEST PUSH1 0x0 PUSH20 0xFFFFFFFFFFFFFFFFFFFFFFFFFFFFFFFFFFFFFFFF DUP3 AND SWAP1 POP SWAP2 SWAP1 POP JUMP JUMPDEST PUSH1 0x0 PUSH2 0x4AD DUP3 PUSH2 0x482 JUMP JUMPDEST SWAP1 POP SWAP2 SWAP1 POP JUMP JUMPDEST PUSH2 0x4BD DUP2 PUSH2 0x4A2 JUMP JUMPDEST DUP2 EQ PUSH2 0x4C8 JUMPI PUSH1 0x0 DUP1 REVERT JUMPDEST POP JUMP JUMPDEST PUSH1 0x0 DUP2 CALLDATALOAD SWAP1 POP PUSH2 0x4DA DUP2 PUSH2 0x4B4 JUMP JUMPDEST SWAP3 SWAP2 POP POP JUMP JUMPDEST PUSH1 0x0 PUSH1 0x20 DUP3 DUP5 SUB SLT ISZERO PUSH2 0x4F6 JUMPI PUSH2 0x4F5 PUSH2 0x478 JUMP JUMPDEST JUMPDEST PUSH1 0x0 PUSH2 0x504 DUP5 DUP3 DUP6 ADD PUSH2 0x4CB JUMP JUMPDEST SWAP2 POP POP SWAP3 SWAP2 POP POP JUMP JUMPDEST PUSH1 0x0 DUP2 ISZERO ISZERO SWAP1 POP SWAP2 SWAP1 POP JUMP JUMPDEST PUSH2 0x522 DUP2 PUSH2 0x50D JUMP JUMPDEST DUP3 MSTORE POP POP JUMP JUMPDEST PUSH1 0x0 PUSH1 0x20 DUP3 ADD SWAP1 POP PUSH2 0x53D PUSH1 0x0 DUP4 ADD DUP5 PUSH2 0x519 JUMP JUMPDEST SWAP3 SWAP2 POP POP JUMP JUMPDEST PUSH1 0x0 DUP2 SWAP1 POP SWAP2 SWAP1 POP JUMP JUMPDEST PUSH2 0x556 DUP2 PUSH2 0x543 JUMP JUMPDEST DUP2 EQ PUSH2 0x561 JUMPI PUSH1 0x0 DUP1 REVERT JUMPDEST POP JUMP JUMPDEST PUSH1 0x0 DUP2 CALLDATALOAD SWAP1 POP PUSH2 0x573 DUP2 PUSH2 0x54D JUMP JUMPDEST SWAP3 SWAP2 POP POP JUMP JUMPDEST PUSH1 0x0 PUSH1 0x20 DUP3 DUP5 SUB SLT ISZERO PUSH2 0x58F JUMPI PUSH2 0x58E PUSH2 0x478 JUMP JUMPDEST JUMPDEST PUSH1 0x0 PUSH2 0x59D DUP5 DUP3 DUP6 ADD PUSH2 0x564 JUMP JUMPDEST SWAP2 POP POP SWAP3 SWAP2 POP POP JUMP JUMPDEST PUSH2 0x5AF DUP2 PUSH2 0x4A2 JUMP JUMPDEST DUP3 MSTORE POP POP JUMP JUMPDEST PUSH1 0x0 PUSH1 0x20 DUP3 ADD SWAP1 POP PUSH2 0x5CA PUSH1 0x0 DUP4 ADD DUP5 PUSH2 0x5A6 JUMP JUMPDEST SWAP3 SWAP2 POP POP JUMP JUMPDEST PUSH2 0x5D9 DUP2 PUSH2 0x543 JUMP JUMPDEST DUP3 MSTORE POP POP JUMP JUMPDEST PUSH1 0x0 PUSH1 0x20 DUP3 ADD SWAP1 POP PUSH2 0x5F4 PUSH1 0x0 DUP4 ADD DUP5 PUSH2 0x5D0 JUMP JUMPDEST SWAP3 SWAP2 POP POP JUMP JUMPDEST PUSH1 0x0 DUP1 REVERT JUMPDEST PUSH1 0x0 DUP1 REVERT JUMPDEST PUSH1 0x0 PUSH1 0x1F NOT PUSH1 0x1F DUP4 ADD AND SWAP1 POP SWAP2 SWAP1 POP JUMP JUMPDEST PUSH32 0x4E487B7100000000000000000000000000000000000000000000000000000000 PUSH1 0x0 MSTORE PUSH1 0x41 PUSH1 0x4 MSTORE PUSH1 0x24 PUSH1 0x0 REVERT JUMPDEST PUSH2 0x64D DUP3 PUSH2 0x604 JUMP JUMPDEST DUP2 ADD DUP2 DUP2 LT PUSH8 0xFFFFFFFFFFFFFFFF DUP3 GT OR ISZERO PUSH2 0x66C JUMPI PUSH2 0x66B PUSH2 0x615 JUMP JUMPDEST JUMPDEST DUP1 PUSH1 0x40 MSTORE POP POP POP JUMP JUMPDEST PUSH1 0x0 PUSH2 0x67F PUSH2 0x46E JUMP JUMPDEST SWAP1 POP PUSH2 0x68B DUP3 DUP3 PUSH2 0x644 JUMP JUMPDEST SWAP2 SWAP1 POP JUMP JUMPDEST PUSH1 0x0 PUSH8 0xFFFFFFFFFFFFFFFF DUP3 GT ISZERO PUSH2 0x6AB JUMPI PUSH2 0x6AA PUSH2 0x615 JUMP JUMPDEST JUMPDEST PUSH2 0x6B4 DUP3 PUSH2 0x604 JUMP JUMPDEST SWAP1 POP PUSH1 0x20 DUP2 ADD SWAP1 POP SWAP2 SWAP1 POP JUMP JUMPDEST DUP3 DUP2 DUP4 CALLDATACOPY PUSH1 0x0 DUP4 DUP4 ADD MSTORE POP POP POP JUMP JUMPDEST PUSH1 0x0 PUSH2 0x6E3 PUSH2 0x6DE DUP5 PUSH2 0x690 JUMP JUMPDEST PUSH2 0x675 JUMP JUMPDEST SWAP1 POP DUP3 DUP2 MSTORE PUSH1 0x20 DUP2 ADD DUP5 DUP5 DUP5 ADD GT ISZERO PUSH2 0x6FF JUMPI PUSH2 0x6FE PUSH2 0x5FF JUMP JUMPDEST JUMPDEST PUSH2 0x70A DUP5 DUP3 DUP6 PUSH2 0x6C1 JUMP JUMPDEST POP SWAP4 SWAP3 POP POP POP JUMP JUMPDEST PUSH1 0x0 DUP3 PUSH1 0x1F DUP4 ADD SLT PUSH2 0x727 JUMPI PUSH2 0x726 PUSH2 0x5FA JUMP JUMPDEST JUMPDEST DUP2 CALLDATALOAD PUSH2 0x737 DUP5 DUP3 PUSH1 0x20 DUP7 ADD PUSH2 0x6D0 JUMP JUMPDEST SWAP2 POP POP SWAP3 SWAP2 POP POP JUMP JUMPDEST PUSH1 0x0 DUP1 PUSH1 0x0 DUP1 PUSH1 0x0 PUSH1 0xA0 DUP7 DUP9 SUB SLT ISZERO PUSH2 0x75C JUMPI PUSH2 0x75B PUSH2 0x478 JUMP JUMPDEST JUMPDEST PUSH1 0x0 DUP7 ADD CALLDATALOAD PUSH8 0xFFFFFFFFFFFFFFFF DUP2 GT ISZERO PUSH2 0x77A JUMPI PUSH2 0x779 PUSH2 0x47D JUMP JUMPDEST JUMPDEST PUSH2 0x786 DUP9 DUP3 DUP10 ADD PUSH2 0x712 JUMP JUMPDEST SWAP6 POP POP PUSH1 0x20 DUP7 ADD CALLDATALOAD PUSH8 0xFFFFFFFFFFFFFFFF DUP2 GT ISZERO PUSH2 0x7A7 JUMPI PUSH2 0x7A6 PUSH2 0x47D JUMP JUMPDEST JUMPDEST PUSH2 0x7B3 DUP9 DUP3 DUP10 ADD PUSH2 0x712 JUMP JUMPDEST SWAP5 POP POP PUSH1 0x40 DUP7 ADD CALLDATALOAD PUSH8 0xFFFFFFFFFFFFFFFF DUP2 GT ISZERO PUSH2 0x7D4 JUMPI PUSH2 0x7D3 PUSH2 0x47D JUMP JUMPDEST JUMPDEST PUSH2 0x7E0 DUP9 DUP3 DUP10 ADD PUSH2 0x712 JUMP JUMPDEST SWAP4 POP POP PUSH1 0x60 PUSH2 0x7F1 DUP9 DUP3 DUP10 ADD PUSH2 0x564 JUMP JUMPDEST SWAP3 POP POP PUSH1 0x80 PUSH2 0x802 DUP9 DUP3 DUP10 ADD PUSH2 0x564 JUMP JUMPDEST SWAP2 POP POP SWAP3 SWAP6 POP SWAP3 SWAP6 SWAP1 SWAP4 POP JUMP JUMPDEST PUSH1 0x0 DUP3 DUP3 MSTORE PUSH1 0x20 DUP3 ADD SWAP1 POP SWAP3 SWAP2 POP POP JUMP JUMPDEST PUSH32 0x596F7520616C7265616479206861766520616E206163746976652063616D7061 PUSH1 0x0 DUP3 ADD MSTORE PUSH32 0x69676E2E00000000000000000000000000000000000000000000000000000000 PUSH1 0x20 DUP3 ADD MSTORE POP JUMP JUMPDEST PUSH1 0x0 PUSH2 0x87C PUSH1 0x24 DUP4 PUSH2 0x80F JUMP JUMPDEST SWAP2 POP PUSH2 0x887 DUP3 PUSH2 0x820 JUMP JUMPDEST PUSH1 0x40 DUP3 ADD SWAP1 POP SWAP2 SWAP1 POP JUMP JUMPDEST PUSH1 0x0 PUSH1 0x20 DUP3 ADD SWAP1 POP DUP2 DUP2 SUB PUSH1 0x0 DUP4 ADD MSTORE PUSH2 0x8AB DUP2 PUSH2 0x86F JUMP JUMPDEST SWAP1 POP SWAP2 SWAP1 POP JUMP JUMPDEST PUSH1 0x0 DUP2 MLOAD SWAP1 POP SWAP2 SWAP1 POP JUMP JUMPDEST PUSH1 0x0 JUMPDEST DUP4 DUP2 LT ISZERO PUSH2 0x8DB JUMPI DUP1 DUP3 ADD MLOAD DUP2 DUP5 ADD MSTORE PUSH1 0x20 DUP2 ADD SWAP1 POP PUSH2 0x8C0 JUMP JUMPDEST PUSH1 0x0 DUP5 DUP5 ADD MSTORE POP POP POP POP JUMP JUMPDEST PUSH1 0x0 PUSH2 0x8F2 DUP3 PUSH2 0x8B2 JUMP JUMPDEST PUSH2 0x8FC DUP2 DUP6 PUSH2 0x80F JUMP JUMPDEST SWAP4 POP PUSH2 0x90C DUP2 DUP6 PUSH1 0x20 DUP7 ADD PUSH2 0x8BD JUMP JUMPDEST PUSH2 0x915 DUP2 PUSH2 0x604 JUMP JUMPDEST DUP5 ADD SWAP2 POP POP SWAP3 SWAP2 POP POP JUMP JUMPDEST PUSH1 0x0 PUSH1 0xC0 DUP3 ADD SWAP1 POP PUSH2 0x935 PUSH1 0x0 DUP4 ADD DUP10 PUSH2 0x5A6 JUMP JUMPDEST DUP2 DUP2 SUB PUSH1 0x20 DUP4 ADD MSTORE PUSH2 0x947 DUP2 DUP9 PUSH2 0x8E7 JUMP JUMPDEST SWAP1 POP DUP2 DUP2 SUB PUSH1 0x40 DUP4 ADD MSTORE PUSH2 0x95B DUP2 DUP8 PUSH2 0x8E7 JUMP JUMPDEST SWAP1 POP DUP2 DUP2 SUB PUSH1 0x60 DUP4 ADD MSTORE PUSH2 0x96F DUP2 DUP7 PUSH2 0x8E7 JUMP JUMPDEST SWAP1 POP PUSH2 0x97E PUSH1 0x80 DUP4 ADD DUP6 PUSH2 0x5D0 JUMP JUMPDEST PUSH2 0x98B PUSH1 0xA0 DUP4 ADD DUP5 PUSH2 0x5D0 JUMP JUMPDEST SWAP8 SWAP7 POP POP POP POP POP POP POP JUMP JUMPDEST PUSH1 0x0 PUSH1 0xA0 DUP3 ADD SWAP1 POP DUP2 DUP2 SUB PUSH1 0x0 DUP4 ADD MSTORE PUSH2 0x9B0 DUP2 DUP9 PUSH2 0x8E7 JUMP JUMPDEST SWAP1 POP DUP2 DUP2 SUB PUSH1 0x20 DUP4 ADD MSTORE PUSH2 0x9C4 DUP2 DUP8 PUSH2 0x8E7 JUMP JUMPDEST SWAP1 POP DUP2 DUP2 SUB PUSH1 0x40 DUP4 ADD MSTORE PUSH2 0x9D8 DUP2 DUP7 PUSH2 0x8E7 JUMP JUMPDEST SWAP1 POP PUSH2 0x9E7 PUSH1 0x60 DUP4 ADD DUP6 PUSH2 0x5D0 JUMP JUMPDEST PUSH2 0x9F4 PUSH1 0x80 DUP4 ADD DUP5 PUSH2 0x5D0 JUMP JUMPDEST SWAP7 SWAP6 POP POP POP POP POP POP JUMP JUMPDEST PUSH32 0x43726561746F7220646F6573206E6F74206861766520616E2061637469766520 PUSH1 0x0 DUP3 ADD MSTORE PUSH32 0x63616D706169676E2E0000000000000000000000000000000000000000000000 PUSH1 0x20 DUP3 ADD MSTORE POP JUMP JUMPDEST PUSH1 0x0 PUSH2 0xA5A PUSH1 0x29 DUP4 PUSH2 0x80F JUMP JUMPDEST SWAP2 POP PUSH2 0xA65 DUP3 PUSH2 0x9FE JUMP JUMPDEST PUSH1 0x40 DUP3 ADD SWAP1 POP SWAP2 SWAP1 POP JUMP JUMPDEST PUSH1 0x0 PUSH1 0x20 DUP3 ADD SWAP1 POP DUP2 DUP2 SUB PUSH1 0x0 DUP4 ADD MSTORE PUSH2 0xA89 DUP2 PUSH2 0xA4D JUMP JUMPDEST SWAP1 POP SWAP2 SWAP1 POP JUMP INVALID PUSH1 0x80 PUSH1 0x40 MSTORE CALLVALUE DUP1 ISZERO PUSH2 0x10 JUMPI PUSH1 0x0 DUP1 REVERT JUMPDEST POP PUSH1 0x40 MLOAD PUSH2 0x227F CODESIZE SUB DUP1 PUSH2 0x227F DUP4 CODECOPY DUP2 DUP2 ADD PUSH1 0x40 MSTORE DUP2 ADD SWAP1 PUSH2 0x32 SWAP2 SWAP1 PUSH2 0x3B5 JUMP JUMPDEST TIMESTAMP DUP2 GT PUSH2 0x74 JUMPI PUSH1 0x40 MLOAD PUSH32 0x8C379A000000000000000000000000000000000000000000000000000000000 DUP2 MSTORE PUSH1 0x4 ADD PUSH2 0x6B SWAP1 PUSH2 0x4F3 JUMP JUMPDEST PUSH1 0x40 MLOAD DUP1 SWAP2 SUB SWAP1 REVERT JUMPDEST PUSH1 0x0 DUP3 GT PUSH2 0xB7 JUMPI PUSH1 0x40 MLOAD PUSH32 0x8C379A000000000000000000000000000000000000000000000000000000000 DUP2 MSTORE PUSH1 0x4 ADD PUSH2 0xAE SWAP1 PUSH2 0x585 JUMP JUMPDEST PUSH1 0x40 MLOAD DUP1 SWAP2 SUB SWAP1 REVERT JUMPDEST DUP6 PUSH1 0x0 DUP1 PUSH2 0x100 EXP DUP2 SLOAD DUP2 PUSH20 0xFFFFFFFFFFFFFFFFFFFFFFFFFFFFFFFFFFFFFFFF MUL NOT AND SWAP1 DUP4 PUSH20 0xFFFFFFFFFFFFFFFFFFFFFFFFFFFFFFFFFFFFFFFF AND MUL OR SWAP1 SSTORE POP DUP5 PUSH1 0x1 SWAP1 DUP2 PUSH2 0x106 SWAP2 SWAP1 PUSH2 0x7BC JUMP JUMPDEST POP DUP4 PUSH1 0x2 SWAP1 DUP2 PUSH2 0x116 SWAP2 SWAP1 PUSH2 0x7BC JUMP JUMPDEST POP DUP3 PUSH1 0x3 SWAP1 DUP2 PUSH2 0x126 SWAP2 SWAP1 PUSH2 0x7BC JUMP JUMPDEST POP DUP2 PUSH1 0x4 DUP2 SWAP1 SSTORE POP DUP1 PUSH1 0x6 DUP2 SWAP1 SSTORE POP PUSH1 0x0 PUSH1 0x7 PUSH1 0x0 PUSH2 0x100 EXP DUP2 SLOAD DUP2 PUSH1 0xFF MUL NOT AND SWAP1 DUP4 ISZERO ISZERO MUL OR SWAP1 SSTORE POP PUSH1 0x0 PUSH1 0x7 PUSH1 0x1 PUSH2 0x100 EXP DUP2 SLOAD DUP2 PUSH1 0xFF MUL NOT AND SWAP1 DUP4 ISZERO ISZERO MUL OR SWAP1 SSTORE POP PUSH1 0x0 PUSH1 0x7 PUSH1 0x2 PUSH2 0x100 EXP DUP2 SLOAD DUP2 PUSH1 0xFF MUL NOT AND SWAP1 DUP4 ISZERO ISZERO MUL OR SWAP1 SSTORE POP PUSH1 0x0 PUSH1 0x7 PUSH1 0x3 PUSH2 0x100 EXP DUP2 SLOAD DUP2 PUSH1 0xFF MUL NOT AND SWAP1 DUP4 ISZERO ISZERO MUL OR SWAP1 SSTORE POP POP POP POP POP POP POP PUSH2 0x88E JUMP JUMPDEST PUSH1 0x0 PUSH1 0x40 MLOAD SWAP1 POP SWAP1 JUMP JUMPDEST PUSH1 0x0 DUP1 REVERT JUMPDEST PUSH1 0x0 DUP1 REVERT JUMPDEST PUSH1 0x0 PUSH20 0xFFFFFFFFFFFFFFFFFFFFFFFFFFFFFFFFFFFFFFFF DUP3 AND SWAP1 POP SWAP2 SWAP1 POP JUMP JUMPDEST PUSH1 0x0 PUSH2 0x1EB DUP3 PUSH2 0x1C0 JUMP JUMPDEST SWAP1 POP SWAP2 SWAP1 POP JUMP JUMPDEST PUSH2 0x1FB DUP2 PUSH2 0x1E0 JUMP JUMPDEST DUP2 EQ PUSH2 0x206 JUMPI PUSH1 0x0 DUP1 REVERT JUMPDEST POP JUMP JUMPDEST PUSH1 0x0 DUP2 MLOAD SWAP1 POP PUSH2 0x218 DUP2 PUSH2 0x1F2 JUMP JUMPDEST SWAP3 SWAP2 POP POP JUMP JUMPDEST PUSH1 0x0 DUP1 REVERT JUMPDEST PUSH1 0x0 DUP1 REVERT JUMPDEST PUSH1 0x0 PUSH1 0x1F NOT PUSH1 0x1F DUP4 ADD AND SWAP1 POP SWAP2 SWAP1 POP JUMP JUMPDEST PUSH32 0x4E487B7100000000000000000000000000000000000000000000000000000000 PUSH1 0x0 MSTORE PUSH1 0x41 PUSH1 0x4 MSTORE PUSH1 0x24 PUSH1 0x0 REVERT JUMPDEST PUSH2 0x271 DUP3 PUSH2 0x228 JUMP JUMPDEST DUP2 ADD DUP2 DUP2 LT PUSH8 0xFFFFFFFFFFFFFFFF DUP3 GT OR ISZERO PUSH2 0x290 JUMPI PUSH2 0x28F PUSH2 0x239 JUMP JUMPDEST JUMPDEST DUP1 PUSH1 0x40 MSTORE POP POP POP JUMP JUMPDEST PUSH1 0x0 PUSH2 0x2A3 PUSH2 0x1AC JUMP JUMPDEST SWAP1 POP PUSH2 0x2AF DUP3 DUP3 PUSH2 0x268 JUMP JUMPDEST SWAP2 SWAP1 POP JUMP JUMPDEST PUSH1 0x0 PUSH8 0xFFFFFFFFFFFFFFFF DUP3 GT ISZERO PUSH2 0x2CF JUMPI PUSH2 0x2CE PUSH2 0x239 JUMP JUMPDEST JUMPDEST PUSH2 0x2D8 DUP3 PUSH2 0x228 JUMP JUMPDEST SWAP1 POP PUSH1 0x20 DUP2 ADD SWAP1 POP SWAP2 SWAP1 POP JUMP JUMPDEST PUSH1 0x0 JUMPDEST DUP4 DUP2 LT ISZERO PUSH2 0x303 JUMPI DUP1 DUP3 ADD MLOAD DUP2 DUP5 ADD MSTORE PUSH1 0x20 DUP2 ADD SWAP1 POP PUSH2 0x2E8 JUMP JUMPDEST PUSH1 0x0 DUP5 DUP5 ADD MSTORE POP POP POP POP JUMP JUMPDEST PUSH1 0x0 PUSH2 0x322 PUSH2 0x31D DUP5 PUSH2 0x2B4 JUMP JUMPDEST PUSH2 0x299 JUMP JUMPDEST SWAP1 POP DUP3 DUP2 MSTORE PUSH1 0x20 DUP2 ADD DUP5 DUP5 DUP5 ADD GT ISZERO PUSH2 0x33E JUMPI PUSH2 0x33D PUSH2 0x223 JUMP JUMPDEST JUMPDEST PUSH2 0x349 DUP5 DUP3 DUP6 PUSH2 0x2E5 JUMP JUMPDEST POP SWAP4 SWAP3 POP POP POP JUMP JUMPDEST PUSH1 0x0 DUP3 PUSH1 0x1F DUP4 ADD SLT PUSH2 0x366 JUMPI PUSH2 0x365 PUSH2 0x21E JUMP JUMPDEST JUMPDEST DUP2 MLOAD PUSH2 0x376 DUP5 DUP3 PUSH1 0x20 DUP7 ADD PUSH2 0x30F JUMP JUMPDEST SWAP2 POP POP SWAP3 SWAP2 POP POP JUMP JUMPDEST PUSH1 0x0 DUP2 SWAP1 POP SWAP2 SWAP1 POP JUMP JUMPDEST PUSH2 0x392 DUP2 PUSH2 0x37F JUMP JUMPDEST DUP2 EQ PUSH2 0x39D JUMPI PUSH1 0x0 DUP1 REVERT JUMPDEST POP JUMP JUMPDEST PUSH1 0x0 DUP2 MLOAD SWAP1 POP PUSH2 0x3AF DUP2 PUSH2 0x389 JUMP JUMPDEST SWAP3 SWAP2 POP POP JUMP JUMPDEST PUSH1 0x0 DUP1 PUSH1 0x0 DUP1 PUSH1 0x0 DUP1 PUSH1 0xC0 DUP8 DUP10 SUB SLT ISZERO PUSH2 0x3D2 JUMPI PUSH2 0x3D1 PUSH2 0x1B6 JUMP JUMPDEST JUMPDEST PUSH1 0x0 PUSH2 0x3E0 DUP10 DUP3 DUP11 ADD PUSH2 0x209 JUMP JUMPDEST SWAP7 POP POP PUSH1 0x20 DUP8 ADD MLOAD PUSH8 0xFFFFFFFFFFFFFFFF DUP2 GT ISZERO PUSH2 0x401 JUMPI PUSH2 0x400 PUSH2 0x1BB JUMP JUMPDEST JUMPDEST PUSH2 0x40D DUP10 DUP3 DUP11 ADD PUSH2 0x351 JUMP JUMPDEST SWAP6 POP POP PUSH1 0x40 DUP8 ADD MLOAD PUSH8 0xFFFFFFFFFFFFFFFF DUP2 GT ISZERO PUSH2 0x42E JUMPI PUSH2 0x42D PUSH2 0x1BB JUMP JUMPDEST JUMPDEST PUSH2 0x43A DUP10 DUP3 DUP11 ADD PUSH2 0x351 JUMP JUMPDEST SWAP5 POP POP PUSH1 0x60 DUP8 ADD MLOAD PUSH8 0xFFFFFFFFFFFFFFFF DUP2 GT ISZERO PUSH2 0x45B JUMPI PUSH2 0x45A PUSH2 0x1BB JUMP JUMPDEST JUMPDEST PUSH2 0x467 DUP10 DUP3 DUP11 ADD PUSH2 0x351 JUMP JUMPDEST SWAP4 POP POP PUSH1 0x80 PUSH2 0x478 DUP10 DUP3 DUP11 ADD PUSH2 0x3A0 JUMP JUMPDEST SWAP3 POP POP PUSH1 0xA0 PUSH2 0x489 DUP10 DUP3 DUP11 ADD PUSH2 0x3A0 JUMP JUMPDEST SWAP2 POP POP SWAP3 SWAP6 POP SWAP3 SWAP6 POP SWAP3 SWAP6 JUMP JUMPDEST PUSH1 0x0 DUP3 DUP3 MSTORE PUSH1 0x20 DUP3 ADD SWAP1 POP SWAP3 SWAP2 POP POP JUMP JUMPDEST PUSH32 0x456E642064617465206D75737420626520696E20746865206675747572650000 PUSH1 0x0 DUP3 ADD MSTORE POP JUMP JUMPDEST PUSH1 0x0 PUSH2 0x4DD PUSH1 0x1E DUP4 PUSH2 0x496 JUMP JUMPDEST SWAP2 POP PUSH2 0x4E8 DUP3 PUSH2 0x4A7 JUMP JUMPDEST PUSH1 0x20 DUP3 ADD SWAP1 POP SWAP2 SWAP1 POP JUMP JUMPDEST PUSH1 0x0 PUSH1 0x20 DUP3 ADD SWAP1 POP DUP2 DUP2 SUB PUSH1 0x0 DUP4 ADD MSTORE PUSH2 0x50C DUP2 PUSH2 0x4D0 JUMP JUMPDEST SWAP1 POP SWAP2 SWAP1 POP JUMP JUMPDEST PUSH32 0x476F616C20616D6F756E74206D7573742062652067726561746572207468616E PUSH1 0x0 DUP3 ADD MSTORE PUSH32 0x2030000000000000000000000000000000000000000000000000000000000000 PUSH1 0x20 DUP3 ADD MSTORE POP JUMP JUMPDEST PUSH1 0x0 PUSH2 0x56F PUSH1 0x22 DUP4 PUSH2 0x496 JUMP JUMPDEST SWAP2 POP PUSH2 0x57A DUP3 PUSH2 0x513 JUMP JUMPDEST PUSH1 0x40 DUP3 ADD SWAP1 POP SWAP2 SWAP1 POP JUMP JUMPDEST PUSH1 0x0 PUSH1 0x20 DUP3 ADD SWAP1 POP DUP2 DUP2 SUB PUSH1 0x0 DUP4 ADD MSTORE PUSH2 0x59E DUP2 PUSH2 0x562 JUMP JUMPDEST SWAP1 POP SWAP2 SWAP1 POP JUMP JUMPDEST PUSH1 0x0 DUP2 MLOAD SWAP1 POP SWAP2 SWAP1 POP JUMP JUMPDEST PUSH32 0x4E487B7100000000000000000000000000000000000000000000000000000000 PUSH1 0x0 MSTORE PUSH1 0x22 PUSH1 0x4 MSTORE PUSH1 0x24 PUSH1 0x0 REVERT JUMPDEST PUSH1 0x0 PUSH1 0x2 DUP3 DIV SWAP1 POP PUSH1 0x1 DUP3 AND DUP1 PUSH2 0x5F7 JUMPI PUSH1 0x7F DUP3 AND SWAP2 POP JUMPDEST PUSH1 0x20 DUP3 LT DUP2 SUB PUSH2 0x60A JUMPI PUSH2 0x609 PUSH2 0x5B0 JUMP JUMPDEST JUMPDEST POP SWAP2 SWAP1 POP JUMP JUMPDEST PUSH1 0x0 DUP2 SWAP1 POP DUP2 PUSH1 0x0 MSTORE PUSH1 0x20 PUSH1 0x0 KECCAK256 SWAP1 POP SWAP2 SWAP1 POP JUMP JUMPDEST PUSH1 0x0 PUSH1 0x20 PUSH1 0x1F DUP4 ADD DIV SWAP1 POP SWAP2 SWAP1 POP JUMP JUMPDEST PUSH1 0x0 DUP3 DUP3 SHL SWAP1 POP SWAP3 SWAP2 POP POP JUMP JUMPDEST PUSH1 0x0 PUSH1 0x8 DUP4 MUL PUSH2 0x672 PUSH32 0xFFFFFFFFFFFFFFFFFFFFFFFFFFFFFFFFFFFFFFFFFFFFFFFFFFFFFFFFFFFFFFFF DUP3 PUSH2 0x635 JUMP JUMPDEST PUSH2 0x67C DUP7 DUP4 PUSH2 0x635 JUMP JUMPDEST SWAP6 POP DUP1 NOT DUP5 AND SWAP4 POP DUP1 DUP7 AND DUP5 OR SWAP3 POP POP POP SWAP4 SWAP3 POP POP POP JUMP JUMPDEST PUSH1 0x0 DUP2 SWAP1 POP SWAP2 SWAP1 POP JUMP JUMPDEST PUSH1 0x0 PUSH2 0x6B9 PUSH2 0x6B4 PUSH2 0x6AF DUP5 PUSH2 0x37F JUMP JUMPDEST PUSH2 0x694 JUMP JUMPDEST PUSH2 0x37F JUMP JUMPDEST SWAP1 POP SWAP2 SWAP1 POP JUMP JUMPDEST PUSH1 0x0 DUP2 SWAP1 POP SWAP2 SWAP1 POP JUMP JUMPDEST PUSH2 0x6D3 DUP4 PUSH2 0x69E JUMP JUMPDEST PUSH2 0x6E7 PUSH2 0x6DF DUP3 PUSH2 0x6C0 JUMP JUMPDEST DUP5 DUP5 SLOAD PUSH2 0x642 JUMP JUMPDEST DUP3 SSTORE POP POP POP POP JUMP JUMPDEST PUSH1 0x0 SWAP1 JUMP JUMPDEST PUSH2 0x6FC PUSH2 0x6EF JUMP JUMPDEST PUSH2 0x707 DUP2 DUP5 DUP5 PUSH2 0x6CA JUMP JUMPDEST POP POP POP JUMP JUMPDEST JUMPDEST DUP2 DUP2 LT ISZERO PUSH2 0x72B JUMPI PUSH2 0x720 PUSH1 0x0 DUP3 PUSH2 0x6F4 JUMP JUMPDEST PUSH1 0x1 DUP2 ADD SWAP1 POP PUSH2 0x70D JUMP JUMPDEST POP POP JUMP JUMPDEST PUSH1 0x1F DUP3 GT ISZERO PUSH2 0x770 JUMPI PUSH2 0x741 DUP2 PUSH2 0x610 JUMP JUMPDEST PUSH2 0x74A DUP5 PUSH2 0x625 JUMP JUMPDEST DUP2 ADD PUSH1 0x20 DUP6 LT ISZERO PUSH2 0x759 JUMPI DUP2 SWAP1 POP JUMPDEST PUSH2 0x76D PUSH2 0x765 DUP6 PUSH2 0x625 JUMP JUMPDEST DUP4 ADD DUP3 PUSH2 0x70C JUMP JUMPDEST POP POP JUMPDEST POP POP POP JUMP JUMPDEST PUSH1 0x0 DUP3 DUP3 SHR SWAP1 POP SWAP3 SWAP2 POP POP JUMP JUMPDEST PUSH1 0x0 PUSH2 0x793 PUSH1 0x0 NOT DUP5 PUSH1 0x8 MUL PUSH2 0x775 JUMP JUMPDEST NOT DUP1 DUP4 AND SWAP2 POP POP SWAP3 SWAP2 POP POP JUMP JUMPDEST PUSH1 0x0 PUSH2 0x7AC DUP4 DUP4 PUSH2 0x782 JUMP JUMPDEST SWAP2 POP DUP3 PUSH1 0x2 MUL DUP3 OR SWAP1 POP SWAP3 SWAP2 POP POP JUMP JUMPDEST PUSH2 0x7C5 DUP3 PUSH2 0x5A5 JUMP JUMPDEST PUSH8 0xFFFFFFFFFFFFFFFF DUP2 GT ISZERO PUSH2 0x7DE JUMPI PUSH2 0x7DD PUSH2 0x239 JUMP JUMPDEST JUMPDEST PUSH2 0x7E8 DUP3 SLOAD PUSH2 0x5DF JUMP JUMPDEST PUSH2 0x7F3 DUP3 DUP3 DUP6 PUSH2 0x72F JUMP JUMPDEST PUSH1 0x0 PUSH1 0x20 SWAP1 POP PUSH1 0x1F DUP4 GT PUSH1 0x1 DUP2 EQ PUSH2 0x826 JUMPI PUSH1 0x0 DUP5 ISZERO PUSH2 0x814 JUMPI DUP3 DUP8 ADD MLOAD SWAP1 POP JUMPDEST PUSH2 0x81E DUP6 DUP3 PUSH2 0x7A0 JUMP JUMPDEST DUP7 SSTORE POP PUSH2 0x886 JUMP JUMPDEST PUSH1 0x1F NOT DUP5 AND PUSH2 0x834 DUP7 PUSH2 0x610 JUMP JUMPDEST PUSH1 0x0 JUMPDEST DUP3 DUP2 LT ISZERO PUSH2 0x85C JUMPI DUP5 DUP10 ADD MLOAD DUP3 SSTORE PUSH1 0x1 DUP3 ADD SWAP2 POP PUSH1 0x20 DUP6 ADD SWAP5 POP PUSH1 0x20 DUP2 ADD SWAP1 POP PUSH2 0x837 JUMP JUMPDEST DUP7 DUP4 LT ISZERO PUSH2 0x879 JUMPI DUP5 DUP10 ADD MLOAD PUSH2 0x875 PUSH1 0x1F DUP10 AND DUP3 PUSH2 0x782 JUMP JUMPDEST DUP4 SSTORE POP JUMPDEST PUSH1 0x1 PUSH1 0x2 DUP9 MUL ADD DUP9 SSTORE POP POP POP JUMPDEST POP POP POP POP POP POP JUMP JUMPDEST PUSH2 0x19E2 DUP1 PUSH2 0x89D PUSH1 0x0 CODECOPY PUSH1 0x0 RETURN INVALID PUSH1 0x80 PUSH1 0x40 MSTORE PUSH1 0x4 CALLDATASIZE LT PUSH2 0x12A JUMPI PUSH1 0x0 CALLDATALOAD PUSH1 0xE0 SHR DUP1 PUSH4 0x71AAC7F9 GT PUSH2 0xAB JUMPI DUP1 PUSH4 0xBD0C8CCC GT PUSH2 0x6F JUMPI DUP1 PUSH4 0xBD0C8CCC EQ PUSH2 0x3A8 JUMPI DUP1 PUSH4 0xC24A0F8B EQ PUSH2 0x3D3 JUMPI DUP1 PUSH4 0xDB45810E EQ PUSH2 0x3FE JUMPI DUP1 PUSH4 0xE4880D96 EQ PUSH2 0x429 JUMPI DUP1 PUSH4 0xED88C68E EQ PUSH2 0x454 JUMPI DUP1 PUSH4 0xF3CCAAC0 EQ PUSH2 0x45E JUMPI PUSH2 0x12A JUMP JUMPDEST DUP1 PUSH4 0x71AAC7F9 EQ PUSH2 0x2E5 JUMPI DUP1 PUSH4 0x7284E416 EQ PUSH2 0x2FC JUMPI DUP1 PUSH4 0x85EAAC3E EQ PUSH2 0x327 JUMPI DUP1 PUSH4 0xAAF422BD EQ PUSH2 0x352 JUMPI DUP1 PUSH4 0xAFF75512 EQ PUSH2 0x37D JUMPI PUSH2 0x12A JUMP JUMPDEST DUP1 PUSH4 0x3CB5D100 GT PUSH2 0xF2 JUMPI DUP1 PUSH4 0x3CB5D100 EQ PUSH2 0x212 JUMPI DUP1 PUSH4 0x42E94C90 EQ PUSH2 0x24F JUMPI DUP1 PUSH4 0x4A79D50C EQ PUSH2 0x28C JUMPI DUP1 PUSH4 0x590E1AE3 EQ PUSH2 0x2B7 JUMPI DUP1 PUSH4 0x69D89575 EQ PUSH2 0x2CE JUMPI PUSH2 0x12A JUMP JUMPDEST DUP1 PUSH4 0x2D05D3F EQ PUSH2 0x12F JUMPI DUP1 PUSH4 0xC611F24 EQ PUSH2 0x15A JUMPI DUP1 PUSH4 0xCD20578 EQ PUSH2 0x18F JUMPI DUP1 PUSH4 0x10550515 EQ PUSH2 0x1BA JUMPI DUP1 PUSH4 0x2636B945 EQ PUSH2 0x1E7 JUMPI JUMPDEST PUSH1 0x0 DUP1 REVERT JUMPDEST CALLVALUE DUP1 ISZERO PUSH2 0x13B JUMPI PUSH1 0x0 DUP1 REVERT JUMPDEST POP PUSH2 0x144 PUSH2 0x489 JUMP JUMPDEST PUSH1 0x40 MLOAD PUSH2 0x151 SWAP2 SWAP1 PUSH2 0x1153 JUMP JUMPDEST PUSH1 0x40 MLOAD DUP1 SWAP2 SUB SWAP1 RETURN JUMPDEST CALLVALUE DUP1 ISZERO PUSH2 0x166 JUMPI PUSH1 0x0 DUP1 REVERT JUMPDEST POP PUSH2 0x16F PUSH2 0x4AD JUMP JUMPDEST PUSH1 0x40 MLOAD PUSH2 0x186 SWAP12 SWAP11 SWAP10 SWAP9 SWAP8 SWAP7 SWAP6 SWAP5 SWAP4 SWAP3 SWAP2 SWAP1 PUSH2 0x1232 JUMP JUMPDEST PUSH1 0x40 MLOAD DUP1 SWAP2 SUB SWAP1 RETURN JUMPDEST CALLVALUE DUP1 ISZERO PUSH2 0x19B JUMPI PUSH1 0x0 DUP1 REVERT JUMPDEST POP PUSH2 0x1A4 PUSH2 0x6F7 JUMP JUMPDEST PUSH1 0x40 MLOAD PUSH2 0x1B1 SWAP2 SWAP1 PUSH2 0x12F2 JUMP JUMPDEST PUSH1 0x40 MLOAD DUP1 SWAP2 SUB SWAP1 RETURN JUMPDEST CALLVALUE DUP1 ISZERO PUSH2 0x1C6 JUMPI PUSH1 0x0 DUP1 REVERT JUMPDEST POP PUSH2 0x1CF PUSH2 0x70A JUMP JUMPDEST PUSH1 0x40 MLOAD PUSH2 0x1DE SWAP4 SWAP3 SWAP2 SWAP1 PUSH2 0x130D JUMP JUMPDEST PUSH1 0x40 MLOAD DUP1 SWAP2 SUB SWAP1 RETURN JUMPDEST CALLVALUE DUP1 ISZERO PUSH2 0x1F3 JUMPI PUSH1 0x0 DUP1 REVERT JUMPDEST POP PUSH2 0x1FC PUSH2 0x73D JUMP JUMPDEST PUSH1 0x40 MLOAD PUSH2 0x209 SWAP2 SWAP1 PUSH2 0x1344 JUMP JUMPDEST PUSH1 0x40 MLOAD DUP1 SWAP2 SUB SWAP1 RETURN JUMPDEST CALLVALUE DUP1 ISZERO PUSH2 0x21E JUMPI PUSH1 0x0 DUP1 REVERT JUMPDEST POP PUSH2 0x239 PUSH1 0x4 DUP1 CALLDATASIZE SUB DUP2 ADD SWAP1 PUSH2 0x234 SWAP2 SWAP1 PUSH2 0x1390 JUMP JUMPDEST PUSH2 0x743 JUMP JUMPDEST PUSH1 0x40 MLOAD PUSH2 0x246 SWAP2 SWAP1 PUSH2 0x1153 JUMP JUMPDEST PUSH1 0x40 MLOAD DUP1 SWAP2 SUB SWAP1 RETURN JUMPDEST CALLVALUE DUP1 ISZERO PUSH2 0x25B JUMPI PUSH1 0x0 DUP1 REVERT JUMPDEST POP PUSH2 0x276 PUSH1 0x4 DUP1 CALLDATASIZE SUB DUP2 ADD SWAP1 PUSH2 0x271 SWAP2 SWAP1 PUSH2 0x13E9 JUMP JUMPDEST PUSH2 0x782 JUMP JUMPDEST PUSH1 0x40 MLOAD PUSH2 0x283 SWAP2 SWAP1 PUSH2 0x1344 JUMP JUMPDEST PUSH1 0x40 MLOAD DUP1 SWAP2 SUB SWAP1 RETURN JUMPDEST CALLVALUE DUP1 ISZERO PUSH2 0x298 JUMPI PUSH1 0x0 DUP1 REVERT JUMPDEST POP PUSH2 0x2A1 PUSH2 0x79A JUMP JUMPDEST PUSH1 0x40 MLOAD PUSH2 0x2AE SWAP2 SWAP1 PUSH2 0x1416 JUMP JUMPDEST PUSH1 0x40 MLOAD DUP1 SWAP2 SUB SWAP1 RETURN JUMPDEST CALLVALUE DUP1 ISZERO PUSH2 0x2C3 JUMPI PUSH1 0x0 DUP1 REVERT JUMPDEST POP PUSH2 0x2CC PUSH2 0x828 JUMP JUMPDEST STOP JUMPDEST CALLVALUE DUP1 ISZERO PUSH2 0x2DA JUMPI PUSH1 0x0 DUP1 REVERT JUMPDEST POP PUSH2 0x2E3 PUSH2 0xA8C JUMP JUMPDEST STOP JUMPDEST CALLVALUE DUP1 ISZERO PUSH2 0x2F1 JUMPI PUSH1 0x0 DUP1 REVERT JUMPDEST POP PUSH2 0x2FA PUSH2 0xCAA JUMP JUMPDEST STOP JUMPDEST CALLVALUE DUP1 ISZERO PUSH2 0x308 JUMPI PUSH1 0x0 DUP1 REVERT JUMPDEST POP PUSH2 0x311 PUSH2 0xCC7 JUMP JUMPDEST PUSH1 0x40 MLOAD PUSH2 0x31E SWAP2 SWAP1 PUSH2 0x1416 JUMP JUMPDEST PUSH1 0x40 MLOAD DUP1 SWAP2 SUB SWAP1 RETURN JUMPDEST CALLVALUE DUP1 ISZERO PUSH2 0x333 JUMPI PUSH1 0x0 DUP1 REVERT JUMPDEST POP PUSH2 0x33C PUSH2 0xD55 JUMP JUMPDEST PUSH1 0x40 MLOAD PUSH2 0x349 SWAP2 SWAP1 PUSH2 0x12F2 JUMP JUMPDEST PUSH1 0x40 MLOAD DUP1 SWAP2 SUB SWAP1 RETURN JUMPDEST CALLVALUE DUP1 ISZERO PUSH2 0x35E JUMPI PUSH1 0x0 DUP1 REVERT JUMPDEST POP PUSH2 0x367 PUSH2 0xD68 JUMP JUMPDEST PUSH1 0x40 MLOAD PUSH2 0x374 SWAP2 SWAP1 PUSH2 0x1344 JUMP JUMPDEST PUSH1 0x40 MLOAD DUP1 SWAP2 SUB SWAP1 RETURN JUMPDEST CALLVALUE DUP1 ISZERO PUSH2 0x389 JUMPI PUSH1 0x0 DUP1 REVERT JUMPDEST POP PUSH2 0x392 PUSH2 0xD6E JUMP JUMPDEST PUSH1 0x40 MLOAD PUSH2 0x39F SWAP2 SWAP1 PUSH2 0x1153 JUMP JUMPDEST PUSH1 0x40 MLOAD DUP1 SWAP2 SUB SWAP1 RETURN JUMPDEST CALLVALUE DUP1 ISZERO PUSH2 0x3B4 JUMPI PUSH1 0x0 DUP1 REVERT JUMPDEST POP PUSH2 0x3BD PUSH2 0xD86 JUMP JUMPDEST PUSH1 0x40 MLOAD PUSH2 0x3CA SWAP2 SWAP1 PUSH2 0x12F2 JUMP JUMPDEST PUSH1 0x40 MLOAD DUP1 SWAP2 SUB SWAP1 RETURN JUMPDEST CALLVALUE DUP1 ISZERO PUSH2 0x3DF JUMPI PUSH1 0x0 DUP1 REVERT JUMPDEST POP PUSH2 0x3E8 PUSH2 0xD99 JUMP JUMPDEST PUSH1 0x40 MLOAD PUSH2 0x3F5 SWAP2 SWAP1 PUSH2 0x1344 JUMP JUMPDEST PUSH1 0x40 MLOAD DUP1 SWAP2 SUB SWAP1 RETURN JUMPDEST CALLVALUE DUP1 ISZERO PUSH2 0x40A JUMPI PUSH1 0x0 DUP1 REVERT JUMPDEST POP PUSH2 0x413 PUSH2 0xD9F JUMP JUMPDEST PUSH1 0x40 MLOAD PUSH2 0x420 SWAP2 SWAP1 PUSH2 0x1344 JUMP JUMPDEST PUSH1 0x40 MLOAD DUP1 SWAP2 SUB SWAP1 RETURN JUMPDEST CALLVALUE DUP1 ISZERO PUSH2 0x435 JUMPI PUSH1 0x0 DUP1 REVERT JUMPDEST POP PUSH2 0x43E PUSH2 0xDAA JUMP JUMPDEST PUSH1 0x40 MLOAD PUSH2 0x44B SWAP2 SWAP1 PUSH2 0x12F2 JUMP JUMPDEST PUSH1 0x40 MLOAD DUP1 SWAP2 SUB SWAP1 RETURN JUMPDEST PUSH2 0x45C PUSH2 0xDBD JUMP JUMPDEST STOP JUMPDEST CALLVALUE DUP1 ISZERO PUSH2 0x46A JUMPI PUSH1 0x0 DUP1 REVERT JUMPDEST POP PUSH2 0x473 PUSH2 0x1084 JUMP JUMPDEST PUSH1 0x40 MLOAD PUSH2 0x480 SWAP2 SWAP1 PUSH2 0x1416 JUMP JUMPDEST PUSH1 0x40 MLOAD DUP1 SWAP2 SUB SWAP1 RETURN JUMPDEST PUSH1 0x0 DUP1 SLOAD SWAP1 PUSH2 0x100 EXP SWAP1 DIV PUSH20 0xFFFFFFFFFFFFFFFFFFFFFFFFFFFFFFFFFFFFFFFF AND DUP2 JUMP JUMPDEST PUSH1 0x0 PUSH1 0x60 DUP1 PUSH1 0x60 PUSH1 0x0 DUP1 PUSH1 0x0 DUP1 PUSH1 0x0 DUP1 PUSH1 0x0 DUP1 PUSH1 0x0 SWAP1 SLOAD SWAP1 PUSH2 0x100 EXP SWAP1 DIV PUSH20 0xFFFFFFFFFFFFFFFFFFFFFFFFFFFFFFFFFFFFFFFF AND PUSH1 0x1 PUSH1 0x2 PUSH1 0x3 PUSH1 0x4 SLOAD PUSH1 0x5 SLOAD PUSH1 0x6 SLOAD PUSH1 0x7 PUSH1 0x0 SWAP1 SLOAD SWAP1 PUSH2 0x100 EXP SWAP1 DIV PUSH1 0xFF AND PUSH1 0x7 PUSH1 0x1 SWAP1 SLOAD SWAP1 PUSH2 0x100 EXP SWAP1 DIV PUSH1 0xFF AND PUSH1 0x7 PUSH1 0x2 SWAP1 SLOAD SWAP1 PUSH2 0x100 EXP SWAP1 DIV PUSH1 0xFF AND PUSH1 0x7 PUSH1 0x3 SWAP1 SLOAD SWAP1 PUSH2 0x100 EXP SWAP1 DIV PUSH1 0xFF AND DUP10 DUP1 SLOAD PUSH2 0x53C SWAP1 PUSH2 0x1467 JUMP JUMPDEST DUP1 PUSH1 0x1F ADD PUSH1 0x20 DUP1 SWAP2 DIV MUL PUSH1 0x20 ADD PUSH1 0x40 MLOAD SWAP1 DUP2 ADD PUSH1 0x40 MSTORE DUP1 SWAP3 SWAP2 SWAP1 DUP2 DUP2 MSTORE PUSH1 0x20 ADD DUP3 DUP1 SLOAD PUSH2 0x568 SWAP1 PUSH2 0x1467 JUMP JUMPDEST DUP1 ISZERO PUSH2 0x5B5 JUMPI DUP1 PUSH1 0x1F LT PUSH2 0x58A JUMPI PUSH2 0x100 DUP1 DUP4 SLOAD DIV MUL DUP4 MSTORE SWAP2 PUSH1 0x20 ADD SWAP2 PUSH2 0x5B5 JUMP JUMPDEST DUP3 ADD SWAP2 SWAP1 PUSH1 0x0 MSTORE PUSH1 0x20 PUSH1 0x0 KECCAK256 SWAP1 JUMPDEST DUP2 SLOAD DUP2 MSTORE SWAP1 PUSH1 0x1 ADD SWAP1 PUSH1 0x20 ADD DUP1 DUP4 GT PUSH2 0x598 JUMPI DUP3 SWAP1 SUB PUSH1 0x1F AND DUP3 ADD SWAP2 JUMPDEST POP POP POP POP POP SWAP10 POP DUP9 DUP1 SLOAD PUSH2 0x5C8 SWAP1 PUSH2 0x1467 JUMP JUMPDEST DUP1 PUSH1 0x1F ADD PUSH1 0x20 DUP1 SWAP2 DIV MUL PUSH1 0x20 ADD PUSH1 0x40 MLOAD SWAP1 DUP2 ADD PUSH1 0x40 MSTORE DUP1 SWAP3 SWAP2 SWAP1 DUP2 DUP2 MSTORE PUSH1 0x20 ADD DUP3 DUP1 SLOAD PUSH2 0x5F4 SWAP1 PUSH2 0x1467 JUMP JUMPDEST DUP1 ISZERO PUSH2 0x641 JUMPI DUP1 PUSH1 0x1F LT PUSH2 0x616 JUMPI PUSH2 0x100 DUP1 DUP4 SLOAD DIV MUL DUP4 MSTORE SWAP2 PUSH1 0x20 ADD SWAP2 PUSH2 0x641 JUMP JUMPDEST DUP3 ADD SWAP2 SWAP1 PUSH1 0x0 MSTORE PUSH1 0x20 PUSH1 0x0 KECCAK256 SWAP1 JUMPDEST DUP2 SLOAD DUP2 MSTORE SWAP1 PUSH1 0x1 ADD SWAP1 PUSH1 0x20 ADD DUP1 DUP4 GT PUSH2 0x624 JUMPI DUP3 SWAP1 SUB PUSH1 0x1F AND DUP3 ADD SWAP2 JUMPDEST POP POP POP POP POP SWAP9 POP DUP8 DUP1 SLOAD PUSH2 0x654 SWAP1 PUSH2 0x1467 JUMP JUMPDEST DUP1 PUSH1 0x1F ADD PUSH1 0x20 DUP1 SWAP2 DIV MUL PUSH1 0x20 ADD PUSH1 0x40 MLOAD SWAP1 DUP2 ADD PUSH1 0x40 MSTORE DUP1 SWAP3 SWAP2 SWAP1 DUP2 DUP2 MSTORE PUSH1 0x20 ADD DUP3 DUP1 SLOAD PUSH2 0x680 SWAP1 PUSH2 0x1467 JUMP JUMPDEST DUP1 ISZERO PUSH2 0x6CD JUMPI DUP1 PUSH1 0x1F LT PUSH2 0x6A2 JUMPI PUSH2 0x100 DUP1 DUP4 SLOAD DIV MUL DUP4 MSTORE SWAP2 PUSH1 0x20 ADD SWAP2 PUSH2 0x6CD JUMP JUMPDEST DUP3 ADD SWAP2 SWAP1 PUSH1 0x0 MSTORE PUSH1 0x20 PUSH1 0x0 KECCAK256 SWAP1 JUMPDEST DUP2 SLOAD DUP2 MSTORE SWAP1 PUSH1 0x1 ADD SWAP1 PUSH1 0x20 ADD DUP1 DUP4 GT PUSH2 0x6B0 JUMPI DUP3 SWAP1 SUB PUSH1 0x1F AND DUP3 ADD SWAP2 JUMPDEST POP POP POP POP POP SWAP8 POP SWAP11 POP SWAP11 POP SWAP11 POP SWAP11 POP SWAP11 POP SWAP11 POP SWAP11 POP SWAP11 POP SWAP11 POP SWAP11 POP SWAP11 POP SWAP1 SWAP2 SWAP3 SWAP4 SWAP5 SWAP6 SWAP7 SWAP8 SWAP9 SWAP10 SWAP11 JUMP JUMPDEST PUSH1 0x7 PUSH1 0x0 SWAP1 SLOAD SWAP1 PUSH2 0x100 EXP SWAP1 DIV PUSH1 0xFF AND DUP2 JUMP JUMPDEST PUSH1 0x0 DUP1 PUSH1 0x0 PUSH1 0x7 PUSH1 0x1 SWAP1 SLOAD SWAP1 PUSH2 0x100 EXP SWAP1 DIV PUSH1 0xFF AND PUSH1 0x7 PUSH1 0x0 SWAP1 SLOAD SWAP1 PUSH2 0x100 EXP SWAP1 DIV PUSH1 0xFF AND PUSH1 0x5 SLOAD SWAP3 POP SWAP3 POP SWAP3 POP SWAP1 SWAP2 SWAP3 JUMP JUMPDEST PUSH1 0x4 SLOAD DUP2 JUMP JUMPDEST PUSH1 0x9 DUP2 DUP2 SLOAD DUP2 LT PUSH2 0x753 JUMPI PUSH1 0x0 DUP1 REVERT JUMPDEST SWAP1 PUSH1 0x0 MSTORE PUSH1 0x20 PUSH1 0x0 KECCAK256 ADD PUSH1 0x0 SWAP2 POP SLOAD SWAP1 PUSH2 0x100 EXP SWAP1 DIV PUSH20 0xFFFFFFFFFFFFFFFFFFFFFFFFFFFFFFFFFFFFFFFF AND DUP2 JUMP JUMPDEST PUSH1 0x8 PUSH1 0x20 MSTORE DUP1 PUSH1 0x0 MSTORE PUSH1 0x40 PUSH1 0x0 KECCAK256 PUSH1 0x0 SWAP2 POP SWAP1 POP SLOAD DUP2 JUMP JUMPDEST PUSH1 0x1 DUP1 SLOAD PUSH2 0x7A7 SWAP1 PUSH2 0x1467 JUMP JUMPDEST DUP1 PUSH1 0x1F ADD PUSH1 0x20 DUP1 SWAP2 DIV MUL PUSH1 0x20 ADD PUSH1 0x40 MLOAD SWAP1 DUP2 ADD PUSH1 0x40 MSTORE DUP1 SWAP3 SWAP2 SWAP1 DUP2 DUP2 MSTORE PUSH1 0x20 ADD DUP3 DUP1 SLOAD PUSH2 0x7D3 SWAP1 PUSH2 0x1467 JUMP JUMPDEST DUP1 ISZERO PUSH2 0x820 JUMPI DUP1 PUSH1 0x1F LT PUSH2 0x7F5 JUMPI PUSH2 0x100 DUP1 DUP4 SLOAD DIV MUL DUP4 MSTORE SWAP2 PUSH1 0x20 ADD SWAP2 PUSH2 0x820 JUMP JUMPDEST DUP3 ADD SWAP2 SWAP1 PUSH1 0x0 MSTORE PUSH1 0x20 PUSH1 0x0 KECCAK256 SWAP1 JUMPDEST DUP2 SLOAD DUP2 MSTORE SWAP1 PUSH1 0x1 ADD SWAP1 PUSH1 0x20 ADD DUP1 DUP4 GT PUSH2 0x803 JUMPI DUP3 SWAP1 SUB PUSH1 0x1F AND DUP3 ADD SWAP2 JUMPDEST POP POP POP POP POP DUP2 JUMP JUMPDEST PUSH1 0x7 PUSH1 0x0 SWAP1 SLOAD SWAP1 PUSH2 0x100 EXP SWAP1 DIV PUSH1 0xFF AND ISZERO PUSH2 0x878 JUMPI PUSH1 0x40 MLOAD PUSH32 0x8C379A000000000000000000000000000000000000000000000000000000000 DUP2 MSTORE PUSH1 0x4 ADD PUSH2 0x86F SWAP1 PUSH2 0x14E4 JUMP JUMPDEST PUSH1 0x40 MLOAD DUP1 SWAP2 SUB SWAP1 REVERT JUMPDEST PUSH1 0x6 SLOAD TIMESTAMP LT ISZERO DUP1 PUSH2 0x895 JUMPI POP PUSH1 0x7 PUSH1 0x1 SWAP1 SLOAD SWAP1 PUSH2 0x100 EXP SWAP1 DIV PUSH1 0xFF AND JUMPDEST PUSH2 0x8D4 JUMPI PUSH1 0x40 MLOAD PUSH32 0x8C379A000000000000000000000000000000000000000000000000000000000 DUP2 MSTORE PUSH1 0x4 ADD PUSH2 0x8CB SWAP1 PUSH2 0x1576 JUMP JUMPDEST PUSH1 0x40 MLOAD DUP1 SWAP2 SUB SWAP1 REVERT JUMPDEST PUSH1 0x0 DUP1 JUMPDEST PUSH1 0x9 DUP1 SLOAD SWAP1 POP DUP2 LT ISZERO PUSH2 0xA6D JUMPI PUSH1 0x0 PUSH1 0x9 DUP3 DUP2 SLOAD DUP2 LT PUSH2 0x8FB JUMPI PUSH2 0x8FA PUSH2 0x1596 JUMP JUMPDEST JUMPDEST SWAP1 PUSH1 0x0 MSTORE PUSH1 0x20 PUSH1 0x0 KECCAK256 ADD PUSH1 0x0 SWAP1 SLOAD SWAP1 PUSH2 0x100 EXP SWAP1 DIV PUSH20 0xFFFFFFFFFFFFFFFFFFFFFFFFFFFFFFFFFFFFFFFF AND SWAP1 POP PUSH1 0x0 PUSH1 0x8 PUSH1 0x0 DUP4 PUSH20 0xFFFFFFFFFFFFFFFFFFFFFFFFFFFFFFFFFFFFFFFF AND PUSH20 0xFFFFFFFFFFFFFFFFFFFFFFFFFFFFFFFFFFFFFFFF AND DUP2 MSTORE PUSH1 0x20 ADD SWAP1 DUP2 MSTORE PUSH1 0x20 ADD PUSH1 0x0 KECCAK256 SLOAD SWAP1 POP PUSH1 0x0 DUP2 GT ISZERO PUSH2 0xA5E JUMPI PUSH1 0x0 PUSH1 0x8 PUSH1 0x0 DUP5 PUSH20 0xFFFFFFFFFFFFFFFFFFFFFFFFFFFFFFFFFFFFFFFF AND PUSH20 0xFFFFFFFFFFFFFFFFFFFFFFFFFFFFFFFFFFFFFFFF AND DUP2 MSTORE PUSH1 0x20 ADD SWAP1 DUP2 MSTORE PUSH1 0x20 ADD PUSH1 0x0 KECCAK256 DUP2 SWAP1 SSTORE POP DUP2 PUSH20 0xFFFFFFFFFFFFFFFFFFFFFFFFFFFFFFFFFFFFFFFF AND PUSH2 0x8FC DUP3 SWAP1 DUP2 ISZERO MUL SWAP1 PUSH1 0x40 MLOAD PUSH1 0x0 PUSH1 0x40 MLOAD DUP1 DUP4 SUB DUP2 DUP6 DUP9 DUP9 CALL SWAP4 POP POP POP POP ISZERO DUP1 ISZERO PUSH2 0xA00 JUMPI RETURNDATASIZE PUSH1 0x0 DUP1 RETURNDATACOPY RETURNDATASIZE PUSH1 0x0 REVERT JUMPDEST POP DUP1 DUP5 PUSH2 0xA0D SWAP2 SWAP1 PUSH2 0x15F4 JUMP JUMPDEST SWAP4 POP DUP2 PUSH20 0xFFFFFFFFFFFFFFFFFFFFFFFFFFFFFFFFFFFFFFFF AND PUSH32 0xA171B6942063C6F2800CE40A780EDCE37BAA2B618571B11EEDD1E69E626E7D76 DUP3 PUSH1 0x40 MLOAD PUSH2 0xA55 SWAP2 SWAP1 PUSH2 0x1344 JUMP JUMPDEST PUSH1 0x40 MLOAD DUP1 SWAP2 SUB SWAP1 LOG2 JUMPDEST POP POP DUP1 DUP1 PUSH1 0x1 ADD SWAP2 POP POP PUSH2 0x8D8 JUMP JUMPDEST POP PUSH1 0x1 PUSH1 0x7 PUSH1 0x3 PUSH2 0x100 EXP DUP2 SLOAD DUP2 PUSH1 0xFF MUL NOT AND SWAP1 DUP4 ISZERO ISZERO MUL OR SWAP1 SSTORE POP POP JUMP JUMPDEST PUSH1 0x7 PUSH1 0x0 SWAP1 SLOAD SWAP1 PUSH2 0x100 EXP SWAP1 DIV PUSH1 0xFF AND PUSH2 0xADB JUMPI PUSH1 0x40 MLOAD PUSH32 0x8C379A000000000000000000000000000000000000000000000000000000000 DUP2 MSTORE PUSH1 0x4 ADD PUSH2 0xAD2 SWAP1 PUSH2 0x1674 JUMP JUMPDEST PUSH1 0x40 MLOAD DUP1 SWAP2 SUB SWAP1 REVERT JUMPDEST PUSH1 0x0 PUSH1 0x5 SLOAD SWAP1 POP PUSH1 0x0 DUP2 GT PUSH2 0xB25 JUMPI PUSH1 0x40 MLOAD PUSH32 0x8C379A000000000000000000000000000000000000000000000000000000000 DUP2 MSTORE PUSH1 0x4 ADD PUSH2 0xB1C SWAP1 PUSH2 0x16E0 JUMP JUMPDEST PUSH1 0x40 MLOAD DUP1 SWAP2 SUB SWAP1 REVERT JUMPDEST PUSH1 0x0 PUSH1 0x64 PUSH1 0x5 DUP4 PUSH2 0xB36 SWAP2 SWAP1 PUSH2 0x1700 JUMP JUMPDEST PUSH2 0xB40 SWAP2 SWAP1 PUSH2 0x1771 JUMP JUMPDEST SWAP1 POP PUSH1 0x0 DUP2 DUP4 PUSH2 0xB50 SWAP2 SWAP1 PUSH2 0x17A2 JUMP JUMPDEST SWAP1 POP PUSH1 0x0 PUSH1 0x5 DUP2 SWAP1 SSTORE POP PUSH20 0xA16095C9B486E9F81F8170D932724FD043896B8A PUSH20 0xFFFFFFFFFFFFFFFFFFFFFFFFFFFFFFFFFFFFFFFF AND PUSH2 0x8FC DUP4 SWAP1 DUP2 ISZERO MUL SWAP1 PUSH1 0x40 MLOAD PUSH1 0x0 PUSH1 0x40 MLOAD DUP1 DUP4 SUB DUP2 DUP6 DUP9 DUP9 CALL SWAP4 POP POP POP POP ISZERO DUP1 ISZERO PUSH2 0xBB4 JUMPI RETURNDATASIZE PUSH1 0x0 DUP1 RETURNDATACOPY RETURNDATASIZE PUSH1 0x0 REVERT JUMPDEST POP PUSH1 0x0 DUP1 SLOAD SWAP1 PUSH2 0x100 EXP SWAP1 DIV PUSH20 0xFFFFFFFFFFFFFFFFFFFFFFFFFFFFFFFFFFFFFFFF AND PUSH20 0xFFFFFFFFFFFFFFFFFFFFFFFFFFFFFFFFFFFFFFFF AND PUSH2 0x8FC DUP3 SWAP1 DUP2 ISZERO MUL SWAP1 PUSH1 0x40 MLOAD PUSH1 0x0 PUSH1 0x40 MLOAD DUP1 DUP4 SUB DUP2 DUP6 DUP9 DUP9 CALL SWAP4 POP POP POP POP ISZERO DUP1 ISZERO PUSH2 0xC1B JUMPI RETURNDATASIZE PUSH1 0x0 DUP1 RETURNDATACOPY RETURNDATASIZE PUSH1 0x0 REVERT JUMPDEST POP PUSH1 0x1 PUSH1 0x7 PUSH1 0x2 PUSH2 0x100 EXP DUP2 SLOAD DUP2 PUSH1 0xFF MUL NOT AND SWAP1 DUP4 ISZERO ISZERO MUL OR SWAP1 SSTORE POP PUSH1 0x0 DUP1 SLOAD SWAP1 PUSH2 0x100 EXP SWAP1 DIV PUSH20 0xFFFFFFFFFFFFFFFFFFFFFFFFFFFFFFFFFFFFFFFF AND PUSH20 0xFFFFFFFFFFFFFFFFFFFFFFFFFFFFFFFFFFFFFFFF AND PUSH32 0x221C08A06B07A64803B3787861A3F276212FCCCB51C2E6234077A9B8CB13047A DUP3 PUSH1 0x40 MLOAD PUSH2 0xC9D SWAP2 SWAP1 PUSH2 0x1344 JUMP JUMPDEST PUSH1 0x40 MLOAD DUP1 SWAP2 SUB SWAP1 LOG2 POP POP POP JUMP JUMPDEST PUSH1 0x1 PUSH1 0x7 PUSH1 0x1 PUSH2 0x100 EXP DUP2 SLOAD DUP2 PUSH1 0xFF MUL NOT AND SWAP1 DUP4 ISZERO ISZERO MUL OR SWAP1 SSTORE POP JUMP JUMPDEST PUSH1 0x2 DUP1 SLOAD PUSH2 0xCD4 SWAP1 PUSH2 0x1467 JUMP JUMPDEST DUP1 PUSH1 0x1F ADD PUSH1 0x20 DUP1 SWAP2 DIV MUL PUSH1 0x20 ADD PUSH1 0x40 MLOAD SWAP1 DUP2 ADD PUSH1 0x40 MSTORE DUP1 SWAP3 SWAP2 SWAP1 DUP2 DUP2 MSTORE PUSH1 0x20 ADD DUP3 DUP1 SLOAD PUSH2 0xD00 SWAP1 PUSH2 0x1467 JUMP JUMPDEST DUP1 ISZERO PUSH2 0xD4D JUMPI DUP1 PUSH1 0x1F LT PUSH2 0xD22 JUMPI PUSH2 0x100 DUP1 DUP4 SLOAD DIV MUL DUP4 MSTORE SWAP2 PUSH1 0x20 ADD SWAP2 PUSH2 0xD4D JUMP JUMPDEST DUP3 ADD SWAP2 SWAP1 PUSH1 0x0 MSTORE PUSH1 0x20 PUSH1 0x0 KECCAK256 SWAP1 JUMPDEST DUP2 SLOAD DUP2 MSTORE SWAP1 PUSH1 0x1 ADD SWAP1 PUSH1 0x20 ADD DUP1 DUP4 GT PUSH2 0xD30 JUMPI DUP3 SWAP1 SUB PUSH1 0x1F AND DUP3 ADD SWAP2 JUMPDEST POP POP POP POP POP DUP2 JUMP JUMPDEST PUSH1 0x7 PUSH1 0x3 SWAP1 SLOAD SWAP1 PUSH2 0x100 EXP SWAP1 DIV PUSH1 0xFF AND DUP2 JUMP JUMPDEST PUSH1 0x5 SLOAD DUP2 JUMP JUMPDEST PUSH20 0xA16095C9B486E9F81F8170D932724FD043896B8A DUP2 JUMP JUMPDEST PUSH1 0x7 PUSH1 0x2 SWAP1 SLOAD SWAP1 PUSH2 0x100 EXP SWAP1 DIV PUSH1 0xFF AND DUP2 JUMP JUMPDEST PUSH1 0x6 SLOAD DUP2 JUMP JUMPDEST PUSH7 0x38D7EA4C68000 DUP2 JUMP JUMPDEST PUSH1 0x7 PUSH1 0x1 SWAP1 SLOAD SWAP1 PUSH2 0x100 EXP SWAP1 DIV PUSH1 0xFF AND DUP2 JUMP JUMPDEST PUSH1 0x6 SLOAD TIMESTAMP LT PUSH2 0xE01 JUMPI PUSH1 0x40 MLOAD PUSH32 0x8C379A000000000000000000000000000000000000000000000000000000000 DUP2 MSTORE PUSH1 0x4 ADD PUSH2 0xDF8 SWAP1 PUSH2 0x1822 JUMP JUMPDEST PUSH1 0x40 MLOAD DUP1 SWAP2 SUB SWAP1 REVERT JUMPDEST PUSH1 0x7 PUSH1 0x1 SWAP1 SLOAD SWAP1 PUSH2 0x100 EXP SWAP1 DIV PUSH1 0xFF AND ISZERO PUSH2 0xE51 JUMPI PUSH1 0x40 MLOAD PUSH32 0x8C379A000000000000000000000000000000000000000000000000000000000 DUP2 MSTORE PUSH1 0x4 ADD PUSH2 0xE48 SWAP1 PUSH2 0x188E JUMP JUMPDEST PUSH1 0x40 MLOAD DUP1 SWAP2 SUB SWAP1 REVERT JUMPDEST PUSH1 0x0 CALLVALUE SWAP1 POP PUSH7 0x38D7EA4C68000 DUP2 LT ISZERO PUSH2 0xEA0 JUMPI PUSH1 0x40 MLOAD PUSH32 0x8C379A000000000000000000000000000000000000000000000000000000000 DUP2 MSTORE PUSH1 0x4 ADD PUSH2 0xE97 SWAP1 PUSH2 0x1920 JUMP JUMPDEST PUSH1 0x40 MLOAD DUP1 SWAP2 SUB SWAP1 REVERT JUMPDEST PUSH1 0x4 SLOAD DUP2 PUSH1 0x5 SLOAD PUSH2 0xEB1 SWAP2 SWAP1 PUSH2 0x15F4 JUMP JUMPDEST GT ISZERO PUSH2 0xEF2 JUMPI PUSH1 0x40 MLOAD PUSH32 0x8C379A000000000000000000000000000000000000000000000000000000000 DUP2 MSTORE PUSH1 0x4 ADD PUSH2 0xEE9 SWAP1 PUSH2 0x198C JUMP JUMPDEST PUSH1 0x40 MLOAD DUP1 SWAP2 SUB SWAP1 REVERT JUMPDEST PUSH1 0x0 PUSH1 0x8 PUSH1 0x0 CALLER PUSH20 0xFFFFFFFFFFFFFFFFFFFFFFFFFFFFFFFFFFFFFFFF AND PUSH20 0xFFFFFFFFFFFFFFFFFFFFFFFFFFFFFFFFFFFFFFFF AND DUP2 MSTORE PUSH1 0x20 ADD SWAP1 DUP2 MSTORE PUSH1 0x20 ADD PUSH1 0x0 KECCAK256 SLOAD SUB PUSH2 0xF9D JUMPI PUSH1 0x9 CALLER SWAP1 DUP1 PUSH1 0x1 DUP2 SLOAD ADD DUP1 DUP3 SSTORE DUP1 SWAP2 POP POP PUSH1 0x1 SWAP1 SUB SWAP1 PUSH1 0x0 MSTORE PUSH1 0x20 PUSH1 0x0 KECCAK256 ADD PUSH1 0x0 SWAP1 SWAP2 SWAP1 SWAP2 SWAP1 SWAP2 PUSH2 0x100 EXP DUP2 SLOAD DUP2 PUSH20 0xFFFFFFFFFFFFFFFFFFFFFFFFFFFFFFFFFFFFFFFF MUL NOT AND SWAP1 DUP4 PUSH20 0xFFFFFFFFFFFFFFFFFFFFFFFFFFFFFFFFFFFFFFFF AND MUL OR SWAP1 SSTORE POP JUMPDEST DUP1 PUSH1 0x8 PUSH1 0x0 CALLER PUSH20 0xFFFFFFFFFFFFFFFFFFFFFFFFFFFFFFFFFFFFFFFF AND PUSH20 0xFFFFFFFFFFFFFFFFFFFFFFFFFFFFFFFFFFFFFFFF AND DUP2 MSTORE PUSH1 0x20 ADD SWAP1 DUP2 MSTORE PUSH1 0x20 ADD PUSH1 0x0 KECCAK256 PUSH1 0x0 DUP3 DUP3 SLOAD PUSH2 0xFEC SWAP2 SWAP1 PUSH2 0x15F4 JUMP JUMPDEST SWAP3 POP POP DUP2 SWAP1 SSTORE POP DUP1 PUSH1 0x5 PUSH1 0x0 DUP3 DUP3 SLOAD PUSH2 0x1005 SWAP2 SWAP1 PUSH2 0x15F4 JUMP JUMPDEST SWAP3 POP POP DUP2 SWAP1 SSTORE POP CALLER PUSH20 0xFFFFFFFFFFFFFFFFFFFFFFFFFFFFFFFFFFFFFFFF AND PUSH32 0x264F630D9EFA0D07053A31163641D9FCC0ADAFC9D9E76F1C37C2CE3A558D2C52 CALLVALUE PUSH1 0x40 MLOAD PUSH2 0x1052 SWAP2 SWAP1 PUSH2 0x1344 JUMP JUMPDEST PUSH1 0x40 MLOAD DUP1 SWAP2 SUB SWAP1 LOG2 PUSH1 0x4 SLOAD PUSH1 0x5 SLOAD LT PUSH2 0x1081 JUMPI PUSH1 0x1 PUSH1 0x7 PUSH1 0x0 PUSH2 0x100 EXP DUP2 SLOAD DUP2 PUSH1 0xFF MUL NOT AND SWAP1 DUP4 ISZERO ISZERO MUL OR SWAP1 SSTORE POP JUMPDEST POP JUMP JUMPDEST PUSH1 0x3 DUP1 SLOAD PUSH2 0x1091 SWAP1 PUSH2 0x1467 JUMP JUMPDEST DUP1 PUSH1 0x1F ADD PUSH1 0x20 DUP1 SWAP2 DIV MUL PUSH1 0x20 ADD PUSH1 0x40 MLOAD SWAP1 DUP2 ADD PUSH1 0x40 MSTORE DUP1 SWAP3 SWAP2 SWAP1 DUP2 DUP2 MSTORE PUSH1 0x20 ADD DUP3 DUP1 SLOAD PUSH2 0x10BD SWAP1 PUSH2 0x1467 JUMP JUMPDEST DUP1 ISZERO PUSH2 0x110A JUMPI DUP1 PUSH1 0x1F LT PUSH2 0x10DF JUMPI PUSH2 0x100 DUP1 DUP4 SLOAD DIV MUL DUP4 MSTORE SWAP2 PUSH1 0x20 ADD SWAP2 PUSH2 0x110A JUMP JUMPDEST DUP3 ADD SWAP2 SWAP1 PUSH1 0x0 MSTORE PUSH1 0x20 PUSH1 0x0 KECCAK256 SWAP1 JUMPDEST DUP2 SLOAD DUP2 MSTORE SWAP1 PUSH1 0x1 ADD SWAP1 PUSH1 0x20 ADD DUP1 DUP4 GT PUSH2 0x10ED JUMPI DUP3 SWAP1 SUB PUSH1 0x1F AND DUP3 ADD SWAP2 JUMPDEST POP POP POP POP POP DUP2 JUMP JUMPDEST PUSH1 0x0 PUSH20 0xFFFFFFFFFFFFFFFFFFFFFFFFFFFFFFFFFFFFFFFF DUP3 AND SWAP1 POP SWAP2 SWAP1 POP JUMP JUMPDEST PUSH1 0x0 PUSH2 0x113D DUP3 PUSH2 0x1112 JUMP JUMPDEST SWAP1 POP SWAP2 SWAP1 POP JUMP JUMPDEST PUSH2 0x114D DUP2 PUSH2 0x1132 JUMP JUMPDEST DUP3 MSTORE POP POP JUMP JUMPDEST PUSH1 0x0 PUSH1 0x20 DUP3 ADD SWAP1 POP PUSH2 0x1168 PUSH1 0x0 DUP4 ADD DUP5 PUSH2 0x1144 JUMP JUMPDEST SWAP3 SWAP2 POP POP JUMP JUMPDEST PUSH1 0x0 DUP2 MLOAD SWAP1 POP SWAP2 SWAP1 POP JUMP JUMPDEST PUSH1 0x0 DUP3 DUP3 MSTORE PUSH1 0x20 DUP3 ADD SWAP1 POP SWAP3 SWAP2 POP POP JUMP JUMPDEST PUSH1 0x0 JUMPDEST DUP4 DUP2 LT ISZERO PUSH2 0x11A8 JUMPI DUP1 DUP3 ADD MLOAD DUP2 DUP5 ADD MSTORE PUSH1 0x20 DUP2 ADD SWAP1 POP PUSH2 0x118D JUMP JUMPDEST PUSH1 0x0 DUP5 DUP5 ADD MSTORE POP POP POP POP JUMP JUMPDEST PUSH1 0x0 PUSH1 0x1F NOT PUSH1 0x1F DUP4 ADD AND SWAP1 POP SWAP2 SWAP1 POP JUMP JUMPDEST PUSH1 0x0 PUSH2 0x11D0 DUP3 PUSH2 0x116E JUMP JUMPDEST PUSH2 0x11DA DUP2 DUP6 PUSH2 0x1179 JUMP JUMPDEST SWAP4 POP PUSH2 0x11EA DUP2 DUP6 PUSH1 0x20 DUP7 ADD PUSH2 0x118A JUMP JUMPDEST PUSH2 0x11F3 DUP2 PUSH2 0x11B4 JUMP JUMPDEST DUP5 ADD SWAP2 POP POP SWAP3 SWAP2 POP POP JUMP JUMPDEST PUSH1 0x0 DUP2 SWAP1 POP SWAP2 SWAP1 POP JUMP JUMPDEST PUSH2 0x1211 DUP2 PUSH2 0x11FE JUMP JUMPDEST DUP3 MSTORE POP POP JUMP JUMPDEST PUSH1 0x0 DUP2 ISZERO ISZERO SWAP1 POP SWAP2 SWAP1 POP JUMP JUMPDEST PUSH2 0x122C DUP2 PUSH2 0x1217 JUMP JUMPDEST DUP3 MSTORE POP POP JUMP JUMPDEST PUSH1 0x0 PUSH2 0x160 DUP3 ADD SWAP1 POP PUSH2 0x1248 PUSH1 0x0 DUP4 ADD DUP15 PUSH2 0x1144 JUMP JUMPDEST DUP2 DUP2 SUB PUSH1 0x20 DUP4 ADD MSTORE PUSH2 0x125A DUP2 DUP14 PUSH2 0x11C5 JUMP JUMPDEST SWAP1 POP DUP2 DUP2 SUB PUSH1 0x40 DUP4 ADD MSTORE PUSH2 0x126E DUP2 DUP13 PUSH2 0x11C5 JUMP JUMPDEST SWAP1 POP DUP2 DUP2 SUB PUSH1 0x60 DUP4 ADD MSTORE PUSH2 0x1282 DUP2 DUP12 PUSH2 0x11C5 JUMP JUMPDEST SWAP1 POP PUSH2 0x1291 PUSH1 0x80 DUP4 ADD DUP11 PUSH2 0x1208 JUMP JUMPDEST PUSH2 0x129E PUSH1 0xA0 DUP4 ADD DUP10 PUSH2 0x1208 JUMP JUMPDEST PUSH2 0x12AB PUSH1 0xC0 DUP4 ADD DUP9 PUSH2 0x1208 JUMP JUMPDEST PUSH2 0x12B8 PUSH1 0xE0 DUP4 ADD DUP8 PUSH2 0x1223 JUMP JUMPDEST PUSH2 0x12C6 PUSH2 0x100 DUP4 ADD DUP7 PUSH2 0x1223 JUMP JUMPDEST PUSH2 0x12D4 PUSH2 0x120 DUP4 ADD DUP6 PUSH2 0x1223 JUMP JUMPDEST PUSH2 0x12E2 PUSH2 0x140 DUP4 ADD DUP5 PUSH2 0x1223 JUMP JUMPDEST SWAP13 SWAP12 POP POP POP POP POP POP POP POP POP POP POP POP JUMP JUMPDEST PUSH1 0x0 PUSH1 0x20 DUP3 ADD SWAP1 POP PUSH2 0x1307 PUSH1 0x0 DUP4 ADD DUP5 PUSH2 0x1223 JUMP JUMPDEST SWAP3 SWAP2 POP POP JUMP JUMPDEST PUSH1 0x0 PUSH1 0x60 DUP3 ADD SWAP1 POP PUSH2 0x1322 PUSH1 0x0 DUP4 ADD DUP7 PUSH2 0x1223 JUMP JUMPDEST PUSH2 0x132F PUSH1 0x20 DUP4 ADD DUP6 PUSH2 0x1223 JUMP JUMPDEST PUSH2 0x133C PUSH1 0x40 DUP4 ADD DUP5 PUSH2 0x1208 JUMP JUMPDEST SWAP5 SWAP4 POP POP POP POP JUMP JUMPDEST PUSH1 0x0 PUSH1 0x20 DUP3 ADD SWAP1 POP PUSH2 0x1359 PUSH1 0x0 DUP4 ADD DUP5 PUSH2 0x1208 JUMP JUMPDEST SWAP3 SWAP2 POP POP JUMP JUMPDEST PUSH1 0x0 DUP1 REVERT JUMPDEST PUSH2 0x136D DUP2 PUSH2 0x11FE JUMP JUMPDEST DUP2 EQ PUSH2 0x1378 JUMPI PUSH1 0x0 DUP1 REVERT JUMPDEST POP JUMP JUMPDEST PUSH1 0x0 DUP2 CALLDATALOAD SWAP1 POP PUSH2 0x138A DUP2 PUSH2 0x1364 JUMP JUMPDEST SWAP3 SWAP2 POP POP JUMP JUMPDEST PUSH1 0x0 PUSH1 0x20 DUP3 DUP5 SUB SLT ISZERO PUSH2 0x13A6 JUMPI PUSH2 0x13A5 PUSH2 0x135F JUMP JUMPDEST JUMPDEST PUSH1 0x0 PUSH2 0x13B4 DUP5 DUP3 DUP6 ADD PUSH2 0x137B JUMP JUMPDEST SWAP2 POP POP SWAP3 SWAP2 POP POP JUMP JUMPDEST PUSH2 0x13C6 DUP2 PUSH2 0x1132 JUMP JUMPDEST DUP2 EQ PUSH2 0x13D1 JUMPI PUSH1 0x0 DUP1 REVERT JUMPDEST POP JUMP JUMPDEST PUSH1 0x0 DUP2 CALLDATALOAD SWAP1 POP PUSH2 0x13E3 DUP2 PUSH2 0x13BD JUMP JUMPDEST SWAP3 SWAP2 POP POP JUMP JUMPDEST PUSH1 0x0 PUSH1 0x20 DUP3 DUP5 SUB SLT ISZERO PUSH2 0x13FF JUMPI PUSH2 0x13FE PUSH2 0x135F JUMP JUMPDEST JUMPDEST PUSH1 0x0 PUSH2 0x140D DUP5 DUP3 DUP6 ADD PUSH2 0x13D4 JUMP JUMPDEST SWAP2 POP POP SWAP3 SWAP2 POP POP JUMP JUMPDEST PUSH1 0x0 PUSH1 0x20 DUP3 ADD SWAP1 POP DUP2 DUP2 SUB PUSH1 0x0 DUP4 ADD MSTORE PUSH2 0x1430 DUP2 DUP5 PUSH2 0x11C5 JUMP JUMPDEST SWAP1 POP SWAP3 SWAP2 POP POP JUMP JUMPDEST PUSH32 0x4E487B7100000000000000000000000000000000000000000000000000000000 PUSH1 0x0 MSTORE PUSH1 0x22 PUSH1 0x4 MSTORE PUSH1 0x24 PUSH1 0x0 REVERT JUMPDEST PUSH1 0x0 PUSH1 0x2 DUP3 DIV SWAP1 POP PUSH1 0x1 DUP3 AND DUP1 PUSH2 0x147F JUMPI PUSH1 0x7F DUP3 AND SWAP2 POP JUMPDEST PUSH1 0x20 DUP3 LT DUP2 SUB PUSH2 0x1492 JUMPI PUSH2 0x1491 PUSH2 0x1438 JUMP JUMPDEST JUMPDEST POP SWAP2 SWAP1 POP JUMP JUMPDEST PUSH32 0x476F616C206D65742C206E6F20726566756E647320617661696C61626C650000 PUSH1 0x0 DUP3 ADD MSTORE POP JUMP JUMPDEST PUSH1 0x0 PUSH2 0x14CE PUSH1 0x1E DUP4 PUSH2 0x1179 JUMP JUMPDEST SWAP2 POP PUSH2 0x14D9 DUP3 PUSH2 0x1498 JUMP JUMPDEST PUSH1 0x20 DUP3 ADD SWAP1 POP SWAP2 SWAP1 POP JUMP JUMPDEST PUSH1 0x0 PUSH1 0x20 DUP3 ADD SWAP1 POP DUP2 DUP2 SUB PUSH1 0x0 DUP4 ADD MSTORE PUSH2 0x14FD DUP2 PUSH2 0x14C1 JUMP JUMPDEST SWAP1 POP SWAP2 SWAP1 POP JUMP JUMPDEST PUSH32 0x43616D706169676E206D75737420626520656E64656420666F7220726566756E PUSH1 0x0 DUP3 ADD MSTORE PUSH32 0x6473000000000000000000000000000000000000000000000000000000000000 PUSH1 0x20 DUP3 ADD MSTORE POP JUMP JUMPDEST PUSH1 0x0 PUSH2 0x1560 PUSH1 0x22 DUP4 PUSH2 0x1179 JUMP JUMPDEST SWAP2 POP PUSH2 0x156B DUP3 PUSH2 0x1504 JUMP JUMPDEST PUSH1 0x40 DUP3 ADD SWAP1 POP SWAP2 SWAP1 POP JUMP JUMPDEST PUSH1 0x0 PUSH1 0x20 DUP3 ADD SWAP1 POP DUP2 DUP2 SUB PUSH1 0x0 DUP4 ADD MSTORE PUSH2 0x158F DUP2 PUSH2 0x1553 JUMP JUMPDEST SWAP1 POP SWAP2 SWAP1 POP JUMP JUMPDEST PUSH32 0x4E487B7100000000000000000000000000000000000000000000000000000000 PUSH1 0x0 MSTORE PUSH1 0x32 PUSH1 0x4 MSTORE PUSH1 0x24 PUSH1 0x0 REVERT JUMPDEST PUSH32 0x4E487B7100000000000000000000000000000000000000000000000000000000 PUSH1 0x0 MSTORE PUSH1 0x11 PUSH1 0x4 MSTORE PUSH1 0x24 PUSH1 0x0 REVERT JUMPDEST PUSH1 0x0 PUSH2 0x15FF DUP3 PUSH2 0x11FE JUMP JUMPDEST SWAP2 POP PUSH2 0x160A DUP4 PUSH2 0x11FE JUMP JUMPDEST SWAP3 POP DUP3 DUP3 ADD SWAP1 POP DUP1 DUP3 GT ISZERO PUSH2 0x1622 JUMPI PUSH2 0x1621 PUSH2 0x15C5 JUMP JUMPDEST JUMPDEST SWAP3 SWAP2 POP POP JUMP JUMPDEST PUSH32 0x476F616C206E6F74206D65740000000000000000000000000000000000000000 PUSH1 0x0 DUP3 ADD MSTORE POP JUMP JUMPDEST PUSH1 0x0 PUSH2 0x165E PUSH1 0xC DUP4 PUSH2 0x1179 JUMP JUMPDEST SWAP2 POP PUSH2 0x1669 DUP3 PUSH2 0x1628 JUMP JUMPDEST PUSH1 0x20 DUP3 ADD SWAP1 POP SWAP2 SWAP1 POP JUMP JUMPDEST PUSH1 0x0 PUSH1 0x20 DUP3 ADD SWAP1 POP DUP2 DUP2 SUB PUSH1 0x0 DUP4 ADD MSTORE PUSH2 0x168D DUP2 PUSH2 0x1651 JUMP JUMPDEST SWAP1 POP SWAP2 SWAP1 POP JUMP JUMPDEST PUSH32 0x4E6F2066756E647320746F2072656C6561736500000000000000000000000000 PUSH1 0x0 DUP3 ADD MSTORE POP JUMP JUMPDEST PUSH1 0x0 PUSH2 0x16CA PUSH1 0x13 DUP4 PUSH2 0x1179 JUMP JUMPDEST SWAP2 POP PUSH2 0x16D5 DUP3 PUSH2 0x1694 JUMP JUMPDEST PUSH1 0x20 DUP3 ADD SWAP1 POP SWAP2 SWAP1 POP JUMP JUMPDEST PUSH1 0x0 PUSH1 0x20 DUP3 ADD SWAP1 POP DUP2 DUP2 SUB PUSH1 0x0 DUP4 ADD MSTORE PUSH2 0x16F9 DUP2 PUSH2 0x16BD JUMP JUMPDEST SWAP1 POP SWAP2 SWAP1 POP JUMP JUMPDEST PUSH1 0x0 PUSH2 0x170B DUP3 PUSH2 0x11FE JUMP JUMPDEST SWAP2 POP PUSH2 0x1716 DUP4 PUSH2 0x11FE JUMP JUMPDEST SWAP3 POP DUP3 DUP3 MUL PUSH2 0x1724 DUP2 PUSH2 0x11FE JUMP JUMPDEST SWAP2 POP DUP3 DUP3 DIV DUP5 EQ DUP4 ISZERO OR PUSH2 0x173B JUMPI PUSH2 0x173A PUSH2 0x15C5 JUMP JUMPDEST JUMPDEST POP SWAP3 SWAP2 POP POP JUMP JUMPDEST PUSH32 0x4E487B7100000000000000000000000000000000000000000000000000000000 PUSH1 0x0 MSTORE PUSH1 0x12 PUSH1 0x4 MSTORE PUSH1 0x24 PUSH1 0x0 REVERT JUMPDEST PUSH1 0x0 PUSH2 0x177C DUP3 PUSH2 0x11FE JUMP JUMPDEST SWAP2 POP PUSH2 0x1787 DUP4 PUSH2 0x11FE JUMP JUMPDEST SWAP3 POP DUP3 PUSH2 0x1797 JUMPI PUSH2 0x1796 PUSH2 0x1742 JUMP JUMPDEST JUMPDEST DUP3 DUP3 DIV SWAP1 POP SWAP3 SWAP2 POP POP JUMP JUMPDEST PUSH1 0x0 PUSH2 0x17AD DUP3 PUSH2 0x11FE JUMP JUMPDEST SWAP2 POP PUSH2 0x17B8 DUP4 PUSH2 0x11FE JUMP JUMPDEST SWAP3 POP DUP3 DUP3 SUB SWAP1 POP DUP2 DUP2 GT ISZERO PUSH2 0x17D0 JUMPI PUSH2 0x17CF PUSH2 0x15C5 JUMP JUMPDEST JUMPDEST SWAP3 SWAP2 POP POP JUMP JUMPDEST PUSH32 0x43616D706169676E2068617320656E6465640000000000000000000000000000 PUSH1 0x0 DUP3 ADD MSTORE POP JUMP JUMPDEST PUSH1 0x0 PUSH2 0x180C PUSH1 0x12 DUP4 PUSH2 0x1179 JUMP JUMPDEST SWAP2 POP PUSH2 0x1817 DUP3 PUSH2 0x17D6 JUMP JUMPDEST PUSH1 0x20 DUP3 ADD SWAP1 POP SWAP2 SWAP1 POP JUMP JUMPDEST PUSH1 0x0 PUSH1 0x20 DUP3 ADD SWAP1 POP DUP2 DUP2 SUB PUSH1 0x0 DUP4 ADD MSTORE PUSH2 0x183B DUP2 PUSH2 0x17FF JUMP JUMPDEST SWAP1 POP SWAP2 SWAP1 POP JUMP JUMPDEST PUSH32 0x43616D706169676E2068617320616C726561647920656E646564000000000000 PUSH1 0x0 DUP3 ADD MSTORE POP JUMP JUMPDEST PUSH1 0x0 PUSH2 0x1878 PUSH1 0x1A DUP4 PUSH2 0x1179 JUMP JUMPDEST SWAP2 POP PUSH2 0x1883 DUP3 PUSH2 0x1842 JUMP JUMPDEST PUSH1 0x20 DUP3 ADD SWAP1 POP SWAP2 SWAP1 POP JUMP JUMPDEST PUSH1 0x0 PUSH1 0x20 DUP3 ADD SWAP1 POP DUP2 DUP2 SUB PUSH1 0x0 DUP4 ADD MSTORE PUSH2 0x18A7 DUP2 PUSH2 0x186B JUMP JUMPDEST SWAP1 POP SWAP2 SWAP1 POP JUMP JUMPDEST PUSH32 0x446F6E6174696F6E732062656C6F7720746865206D696E696D756D20616D6F75 PUSH1 0x0 DUP3 ADD MSTORE PUSH32 0x6E7420617265206E6F7420616C6C6F7765640000000000000000000000000000 PUSH1 0x20 DUP3 ADD MSTORE POP JUMP JUMPDEST PUSH1 0x0 PUSH2 0x190A PUSH1 0x32 DUP4 PUSH2 0x1179 JUMP JUMPDEST SWAP2 POP PUSH2 0x1915 DUP3 PUSH2 0x18AE JUMP JUMPDEST PUSH1 0x40 DUP3 ADD SWAP1 POP SWAP2 SWAP1 POP JUMP JUMPDEST PUSH1 0x0 PUSH1 0x20 DUP3 ADD SWAP1 POP DUP2 DUP2 SUB PUSH1 0x0 DUP4 ADD MSTORE PUSH2 0x1939 DUP2 PUSH2 0x18FD JUMP JUMPDEST SWAP1 POP SWAP2 SWAP1 POP JUMP JUMPDEST PUSH32 0x446F6E6174696F6E206578636565647320676F616C0000000000000000000000 PUSH1 0x0 DUP3 ADD MSTORE POP JUMP JUMPDEST PUSH1 0x0 PUSH2 0x1976 PUSH1 0x15 DUP4 PUSH2 0x1179 JUMP JUMPDEST SWAP2 POP PUSH2 0x1981 DUP3 PUSH2 0x1940 JUMP JUMPDEST PUSH1 0x20 DUP3 ADD SWAP1 POP SWAP2 SWAP1 POP JUMP JUMPDEST PUSH1 0x0 PUSH1 0x20 DUP3 ADD SWAP1 POP DUP2 DUP2 SUB PUSH1 0x0 DUP4 ADD MSTORE PUSH2 0x19A5 DUP2 PUSH2 0x1969 JUMP JUMPDEST SWAP1 POP SWAP2 SWAP1 POP JUMP INVALID LOG2 PUSH5 0x6970667358 0x22 SLT KECCAK256 0xCA 0x2E 0xE 0x29 JUMP PUSH26 0x23449E2B763BCB84F427BFBAF3E1970AF91EDB4689E2595C6AD0 PUSH5 0x736F6C6343 STOP ADDMOD SHL STOP CALLER LOG2 PUSH5 0x6970667358 0x22 SLT KECCAK256 0x2C 0xFB PUSH11 0xA049A3469EF1DF547CE883 PUSH9 0xC080218A01D95B7B2C PUSH11 0x52FB3410EFE35064736F6C PUSH4 0x4300081B STOP CALLER "
        },
        "methodIdentifiers": {
          "campaigns(uint256)": "141961bc",
          "createCampaign(string,string,string,uint256,uint256)": "980f2e66",
          "getTotalCampaigns()": "16f43dd4",
          "hasActiveCampaign(address)": "004545ef",
          "resetActiveCampaignStatus(address)": "ecf8d3da"
        }
      }
    }
  }
}