{
  "_format": "hh-sol-artifact-1",
  "contractName": "CampaignFactory",
  "sourceName": "contracts/CampaignFactory.sol",
  "abi": [
    {
      "anonymous": false,
      "inputs": [
        {
          "indexed": true,
          "internalType": "address",
          "name": "campaignAddress",
          "type": "address"
        },
        {
          "indexed": true,
          "internalType": "address",
          "name": "creator",
          "type": "address"
        },
        {
          "indexed": false,
          "internalType": "string",
          "name": "title",
          "type": "string"
        },
        {
          "indexed": false,
          "internalType": "string",
          "name": "description",
          "type": "string"
        },
        {
          "indexed": false,
          "internalType": "string",
          "name": "image",
          "type": "string"
        },
        {
          "indexed": false,
          "internalType": "uint256",
          "name": "goalAmount",
          "type": "uint256"
        },
        {
          "indexed": false,
          "internalType": "uint256",
          "name": "endDate",
          "type": "uint256"
        }
      ],
      "name": "CampaignCreated",
      "type": "event"
    },
    {
      "inputs": [
        {
          "internalType": "uint256",
          "name": "",
          "type": "uint256"
        }
      ],
      "name": "campaigns",
      "outputs": [
        {
          "internalType": "address",
          "name": "",
          "type": "address"
        }
      ],
      "stateMutability": "view",
      "type": "function"
    },
    {
      "inputs": [
        {
          "internalType": "string",
          "name": "_title",
          "type": "string"
        },
        {
          "internalType": "string",
          "name": "_description",
          "type": "string"
        },
        {
          "internalType": "string",
          "name": "_image",
          "type": "string"
        },
        {
          "internalType": "uint256",
          "name": "_goalAmount",
          "type": "uint256"
        },
        {
          "internalType": "uint256",
          "name": "_endDate",
          "type": "uint256"
        }
      ],
      "name": "createCampaign",
      "outputs": [],
      "stateMutability": "nonpayable",
      "type": "function"
    },
    {
      "inputs": [],
      "name": "getTotalCampaigns",
      "outputs": [
        {
          "internalType": "uint256",
          "name": "",
          "type": "uint256"
        }
      ],
      "stateMutability": "view",
      "type": "function"
    },
    {
      "inputs": [
        {
          "internalType": "address",
          "name": "",
          "type": "address"
        }
      ],
      "name": "hasActiveCampaign",
      "outputs": [
        {
          "internalType": "bool",
          "name": "",
          "type": "bool"
        }
      ],
      "stateMutability": "view",
      "type": "function"
    },
    {
      "inputs": [
        {
          "internalType": "address",
          "name": "creator",
          "type": "address"
        }
      ],
      "name": "resetActiveCampaignStatus",
      "outputs": [],
      "stateMutability": "nonpayable",
      "type": "function"
    }
  ],
  "bytecode": "0x6080604052348015600f57600080fd5b50612d458061001f6000396000f3fe608060405234801561001057600080fd5b50600436106100565760003560e01c80624545ef1461005b578063141961bc1461008b57806316f43dd4146100bb578063980f2e66146100d9578063ecf8d3da146100f5575b600080fd5b610075600480360381019061007091906104e0565b610111565b6040516100829190610528565b60405180910390f35b6100a560048036038101906100a09190610579565b610131565b6040516100b291906105b5565b60405180910390f35b6100c3610170565b6040516100d091906105df565b60405180910390f35b6100f360048036038101906100ee9190610740565b61017c565b005b61010f600480360381019061010a91906104e0565b61037a565b005b60016020528060005260406000206000915054906101000a900460ff1681565b6000818154811061014157600080fd5b906000526020600020016000915054906101000a900473ffffffffffffffffffffffffffffffffffffffff1681565b60008080549050905090565b600160003373ffffffffffffffffffffffffffffffffffffffff1673ffffffffffffffffffffffffffffffffffffffff16815260200190815260200160002060009054906101000a900460ff1615610209576040517f08c379a000000000000000000000000000000000000000000000000000000000815260040161020090610892565b60405180910390fd5b600033868686868660405161021d90610461565b61022c96959493929190610920565b604051809103906000f080158015610248573d6000803e3d6000fd5b5090506000819080600181540180825580915050600190039060005260206000200160009091909190916101000a81548173ffffffffffffffffffffffffffffffffffffffff021916908373ffffffffffffffffffffffffffffffffffffffff16021790555060018060003373ffffffffffffffffffffffffffffffffffffffff1673ffffffffffffffffffffffffffffffffffffffff16815260200190815260200160002060006101000a81548160ff0219169083151502179055503373ffffffffffffffffffffffffffffffffffffffff168173ffffffffffffffffffffffffffffffffffffffff167ffb0049a8ad52835682e47b378224ed17cf8fe67b6c8ef5fb540050085a76c8e4888888888860405161036a959493929190610996565b60405180910390a3505050505050565b600160008273ffffffffffffffffffffffffffffffffffffffff1673ffffffffffffffffffffffffffffffffffffffff16815260200190815260200160002060009054906101000a900460ff16610406576040517f08c379a00000000000000000000000000000000000000000000000000000000081526004016103fd90610a70565b60405180910390fd5b6000600160008373ffffffffffffffffffffffffffffffffffffffff1673ffffffffffffffffffffffffffffffffffffffff16815260200190815260200160002060006101000a81548160ff02191690831515021790555050565b61227f80610a9183390190565b6000604051905090565b600080fd5b600080fd5b600073ffffffffffffffffffffffffffffffffffffffff82169050919050565b60006104ad82610482565b9050919050565b6104bd816104a2565b81146104c857600080fd5b50565b6000813590506104da816104b4565b92915050565b6000602082840312156104f6576104f5610478565b5b6000610504848285016104cb565b91505092915050565b60008115159050919050565b6105228161050d565b82525050565b600060208201905061053d6000830184610519565b92915050565b6000819050919050565b61055681610543565b811461056157600080fd5b50565b6000813590506105738161054d565b92915050565b60006020828403121561058f5761058e610478565b5b600061059d84828501610564565b91505092915050565b6105af816104a2565b82525050565b60006020820190506105ca60008301846105a6565b92915050565b6105d981610543565b82525050565b60006020820190506105f460008301846105d0565b92915050565b600080fd5b600080fd5b6000601f19601f8301169050919050565b7f4e487b7100000000000000000000000000000000000000000000000000000000600052604160045260246000fd5b61064d82610604565b810181811067ffffffffffffffff8211171561066c5761066b610615565b5b80604052505050565b600061067f61046e565b905061068b8282610644565b919050565b600067ffffffffffffffff8211156106ab576106aa610615565b5b6106b482610604565b9050602081019050919050565b82818337600083830152505050565b60006106e36106de84610690565b610675565b9050828152602081018484840111156106ff576106fe6105ff565b5b61070a8482856106c1565b509392505050565b600082601f830112610727576107266105fa565b5b81356107378482602086016106d0565b91505092915050565b600080600080600060a0868803121561075c5761075b610478565b5b600086013567ffffffffffffffff81111561077a5761077961047d565b5b61078688828901610712565b955050602086013567ffffffffffffffff8111156107a7576107a661047d565b5b6107b388828901610712565b945050604086013567ffffffffffffffff8111156107d4576107d361047d565b5b6107e088828901610712565b93505060606107f188828901610564565b925050608061080288828901610564565b9150509295509295909350565b600082825260208201905092915050565b7f596f7520616c7265616479206861766520616e206163746976652063616d706160008201527f69676e2e00000000000000000000000000000000000000000000000000000000602082015250565b600061087c60248361080f565b915061088782610820565b604082019050919050565b600060208201905081810360008301526108ab8161086f565b9050919050565b600081519050919050565b60005b838110156108db5780820151818401526020810190506108c0565b60008484015250505050565b60006108f2826108b2565b6108fc818561080f565b935061090c8185602086016108bd565b61091581610604565b840191505092915050565b600060c08201905061093560008301896105a6565b818103602083015261094781886108e7565b9050818103604083015261095b81876108e7565b9050818103606083015261096f81866108e7565b905061097e60808301856105d0565b61098b60a08301846105d0565b979650505050505050565b600060a08201905081810360008301526109b081886108e7565b905081810360208301526109c481876108e7565b905081810360408301526109d881866108e7565b90506109e760608301856105d0565b6109f460808301846105d0565b9695505050505050565b7f43726561746f7220646f6573206e6f74206861766520616e206163746976652060008201527f63616d706169676e2e0000000000000000000000000000000000000000000000602082015250565b6000610a5a60298361080f565b9150610a65826109fe565b604082019050919050565b60006020820190508181036000830152610a8981610a4d565b905091905056fe608060405234801561001057600080fd5b5060405161227f38038061227f833981810160405281019061003291906103b5565b428111610074576040517f08c379a000000000000000000000000000000000000000000000000000000000815260040161006b906104f3565b60405180910390fd5b600082116100b7576040517f08c379a00000000000000000000000000000000000000000000000000000000081526004016100ae90610585565b60405180910390fd5b856000806101000a81548173ffffffffffffffffffffffffffffffffffffffff021916908373ffffffffffffffffffffffffffffffffffffffff160217905550846001908161010691906107bc565b50836002908161011691906107bc565b50826003908161012691906107bc565b5081600481905550806006819055506000600760006101000a81548160ff0219169083151502179055506000600760016101000a81548160ff0219169083151502179055506000600760026101000a81548160ff0219169083151502179055506000600760036101000a81548160ff02191690831515021790555050505050505061088e565b6000604051905090565b600080fd5b600080fd5b600073ffffffffffffffffffffffffffffffffffffffff82169050919050565b60006101eb826101c0565b9050919050565b6101fb816101e0565b811461020657600080fd5b50565b600081519050610218816101f2565b92915050565b600080fd5b600080fd5b6000601f19601f8301169050919050565b7f4e487b7100000000000000000000000000000000000000000000000000000000600052604160045260246000fd5b61027182610228565b810181811067ffffffffffffffff821117156102905761028f610239565b5b80604052505050565b60006102a36101ac565b90506102af8282610268565b919050565b600067ffffffffffffffff8211156102cf576102ce610239565b5b6102d882610228565b9050602081019050919050565b60005b838110156103035780820151818401526020810190506102e8565b60008484015250505050565b600061032261031d846102b4565b610299565b90508281526020810184848401111561033e5761033d610223565b5b6103498482856102e5565b509392505050565b600082601f8301126103665761036561021e565b5b815161037684826020860161030f565b91505092915050565b6000819050919050565b6103928161037f565b811461039d57600080fd5b50565b6000815190506103af81610389565b92915050565b60008060008060008060c087890312156103d2576103d16101b6565b5b60006103e089828a01610209565b965050602087015167ffffffffffffffff811115610401576104006101bb565b5b61040d89828a01610351565b955050604087015167ffffffffffffffff81111561042e5761042d6101bb565b5b61043a89828a01610351565b945050606087015167ffffffffffffffff81111561045b5761045a6101bb565b5b61046789828a01610351565b935050608061047889828a016103a0565b92505060a061048989828a016103a0565b9150509295509295509295565b600082825260208201905092915050565b7f456e642064617465206d75737420626520696e20746865206675747572650000600082015250565b60006104dd601e83610496565b91506104e8826104a7565b602082019050919050565b6000602082019050818103600083015261050c816104d0565b9050919050565b7f476f616c20616d6f756e74206d7573742062652067726561746572207468616e60008201527f2030000000000000000000000000000000000000000000000000000000000000602082015250565b600061056f602283610496565b915061057a82610513565b604082019050919050565b6000602082019050818103600083015261059e81610562565b9050919050565b600081519050919050565b7f4e487b7100000000000000000000000000000000000000000000000000000000600052602260045260246000fd5b600060028204905060018216806105f757607f821691505b60208210810361060a576106096105b0565b5b50919050565b60008190508160005260206000209050919050565b60006020601f8301049050919050565b600082821b905092915050565b6000600883026106727fffffffffffffffffffffffffffffffffffffffffffffffffffffffffffffffff82610635565b61067c8683610635565b95508019841693508086168417925050509392505050565b6000819050919050565b60006106b96106b46106af8461037f565b610694565b61037f565b9050919050565b6000819050919050565b6106d38361069e565b6106e76106df826106c0565b848454610642565b825550505050565b600090565b6106fc6106ef565b6107078184846106ca565b505050565b5b8181101561072b576107206000826106f4565b60018101905061070d565b5050565b601f8211156107705761074181610610565b61074a84610625565b81016020851015610759578190505b61076d61076585610625565b83018261070c565b50505b505050565b600082821c905092915050565b600061079360001984600802610775565b1980831691505092915050565b60006107ac8383610782565b9150826002028217905092915050565b6107c5826105a5565b67ffffffffffffffff8111156107de576107dd610239565b5b6107e882546105df565b6107f382828561072f565b600060209050601f8311600181146108265760008415610814578287015190505b61081e85826107a0565b865550610886565b601f19841661083486610610565b60005b8281101561085c57848901518255600182019150602085019450602081019050610837565b868310156108795784890151610875601f891682610782565b8355505b6001600288020188555050505b505050505050565b6119e28061089d6000396000f3fe60806040526004361061012a5760003560e01c806371aac7f9116100ab578063bd0c8ccc1161006f578063bd0c8ccc146103a8578063c24a0f8b146103d3578063db45810e146103fe578063e4880d9614610429578063ed88c68e14610454578063f3ccaac01461045e5761012a565b806371aac7f9146102e55780637284e416146102fc57806385eaac3e14610327578063aaf422bd14610352578063aff755121461037d5761012a565b80633cb5d100116100f25780633cb5d1001461021257806342e94c901461024f5780634a79d50c1461028c578063590e1ae3146102b757806369d89575146102ce5761012a565b806302d05d3f1461012f5780630c611f241461015a5780630cd205781461018f57806310550515146101ba5780632636b945146101e7575b600080fd5b34801561013b57600080fd5b50610144610489565b6040516101519190611153565b60405180910390f35b34801561016657600080fd5b5061016f6104ad565b6040516101869b9a99989796959493929190611232565b60405180910390f35b34801561019b57600080fd5b506101a46106f7565b6040516101b191906112f2565b60405180910390f35b3480156101c657600080fd5b506101cf61070a565b6040516101de9392919061130d565b60405180910390f35b3480156101f357600080fd5b506101fc61073d565b6040516102099190611344565b60405180910390f35b34801561021e57600080fd5b5061023960048036038101906102349190611390565b610743565b6040516102469190611153565b60405180910390f35b34801561025b57600080fd5b50610276600480360381019061027191906113e9565b610782565b6040516102839190611344565b60405180910390f35b34801561029857600080fd5b506102a161079a565b6040516102ae9190611416565b60405180910390f35b3480156102c357600080fd5b506102cc610828565b005b3480156102da57600080fd5b506102e3610a8c565b005b3480156102f157600080fd5b506102fa610caa565b005b34801561030857600080fd5b50610311610cc7565b60405161031e9190611416565b60405180910390f35b34801561033357600080fd5b5061033c610d55565b60405161034991906112f2565b60405180910390f35b34801561035e57600080fd5b50610367610d68565b6040516103749190611344565b60405180910390f35b34801561038957600080fd5b50610392610d6e565b60405161039f9190611153565b60405180910390f35b3480156103b457600080fd5b506103bd610d86565b6040516103ca91906112f2565b60405180910390f35b3480156103df57600080fd5b506103e8610d99565b6040516103f59190611344565b60405180910390f35b34801561040a57600080fd5b50610413610d9f565b6040516104209190611344565b60405180910390f35b34801561043557600080fd5b5061043e610daa565b60405161044b91906112f2565b60405180910390f35b61045c610dbd565b005b34801561046a57600080fd5b50610473611084565b6040516104809190611416565b60405180910390f35b60008054906101000a900473ffffffffffffffffffffffffffffffffffffffff1681565b6000606080606060008060008060008060008060009054906101000a900473ffffffffffffffffffffffffffffffffffffffff16600160026003600454600554600654600760009054906101000a900460ff16600760019054906101000a900460ff16600760029054906101000a900460ff16600760039054906101000a900460ff1689805461053c90611467565b80601f016020809104026020016040519081016040528092919081815260200182805461056890611467565b80156105b55780601f1061058a576101008083540402835291602001916105b5565b820191906000526020600020905b81548152906001019060200180831161059857829003601f168201915b505050505099508880546105c890611467565b80601f01602080910402602001604051908101604052809291908181526020018280546105f490611467565b80156106415780601f1061061657610100808354040283529160200191610641565b820191906000526020600020905b81548152906001019060200180831161062457829003601f168201915b5050505050985087805461065490611467565b80601f016020809104026020016040519081016040528092919081815260200182805461068090611467565b80156106cd5780601f106106a2576101008083540402835291602001916106cd565b820191906000526020600020905b8154815290600101906020018083116106b057829003601f168201915b505050505097509a509a509a509a509a509a509a509a509a509a509a50909192939495969798999a565b600760009054906101000a900460ff1681565b6000806000600760019054906101000a900460ff16600760009054906101000a900460ff16600554925092509250909192565b60045481565b6009818154811061075357600080fd5b906000526020600020016000915054906101000a900473ffffffffffffffffffffffffffffffffffffffff1681565b60086020528060005260406000206000915090505481565b600180546107a790611467565b80601f01602080910402602001604051908101604052809291908181526020018280546107d390611467565b80156108205780601f106107f557610100808354040283529160200191610820565b820191906000526020600020905b81548152906001019060200180831161080357829003601f168201915b505050505081565b600760009054906101000a900460ff1615610878576040517f08c379a000000000000000000000000000000000000000000000000000000000815260040161086f906114e4565b60405180910390fd5b600654421015806108955750600760019054906101000a900460ff165b6108d4576040517f08c379a00000000000000000000000000000000000000000000000000000000081526004016108cb90611576565b60405180910390fd5b6000805b600980549050811015610a6d576000600982815481106108fb576108fa611596565b5b9060005260206000200160009054906101000a900473ffffffffffffffffffffffffffffffffffffffff1690506000600860008373ffffffffffffffffffffffffffffffffffffffff1673ffffffffffffffffffffffffffffffffffffffff1681526020019081526020016000205490506000811115610a5e576000600860008473ffffffffffffffffffffffffffffffffffffffff1673ffffffffffffffffffffffffffffffffffffffff168152602001908152602001600020819055508173ffffffffffffffffffffffffffffffffffffffff166108fc829081150290604051600060405180830381858888f19350505050158015610a00573d6000803e3d6000fd5b508084610a0d91906115f4565b93508173ffffffffffffffffffffffffffffffffffffffff167fa171b6942063c6f2800ce40a780edce37baa2b618571b11eedd1e69e626e7d7682604051610a559190611344565b60405180910390a25b505080806001019150506108d8565b506001600760036101000a81548160ff02191690831515021790555050565b600760009054906101000a900460ff16610adb576040517f08c379a0000000000000000000000000000000000000000000000000000000008152600401610ad290611674565b60405180910390fd5b6000600554905060008111610b25576040517f08c379a0000000000000000000000000000000000000000000000000000000008152600401610b1c906116e0565b60405180910390fd5b60006064600583610b369190611700565b610b409190611771565b905060008183610b5091906117a2565b9050600060058190555073a16095c9b486e9f81f8170d932724fd043896b8a73ffffffffffffffffffffffffffffffffffffffff166108fc839081150290604051600060405180830381858888f19350505050158015610bb4573d6000803e3d6000fd5b5060008054906101000a900473ffffffffffffffffffffffffffffffffffffffff1673ffffffffffffffffffffffffffffffffffffffff166108fc829081150290604051600060405180830381858888f19350505050158015610c1b573d6000803e3d6000fd5b506001600760026101000a81548160ff02191690831515021790555060008054906101000a900473ffffffffffffffffffffffffffffffffffffffff1673ffffffffffffffffffffffffffffffffffffffff167f221c08a06b07a64803b3787861a3f276212fcccb51c2e6234077a9b8cb13047a82604051610c9d9190611344565b60405180910390a2505050565b6001600760016101000a81548160ff021916908315150217905550565b60028054610cd490611467565b80601f0160208091040260200160405190810160405280929190818152602001828054610d0090611467565b8015610d4d5780601f10610d2257610100808354040283529160200191610d4d565b820191906000526020600020905b815481529060010190602001808311610d3057829003601f168201915b505050505081565b600760039054906101000a900460ff1681565b60055481565b73a16095c9b486e9f81f8170d932724fd043896b8a81565b600760029054906101000a900460ff1681565b60065481565b66038d7ea4c6800081565b600760019054906101000a900460ff1681565b6006544210610e01576040517f08c379a0000000000000000000000000000000000000000000000000000000008152600401610df890611822565b60405180910390fd5b600760019054906101000a900460ff1615610e51576040517f08c379a0000000000000000000000000000000000000000000000000000000008152600401610e489061188e565b60405180910390fd5b600034905066038d7ea4c68000811015610ea0576040517f08c379a0000000000000000000000000000000000000000000000000000000008152600401610e9790611920565b60405180910390fd5b60045481600554610eb191906115f4565b1115610ef2576040517f08c379a0000000000000000000000000000000000000000000000000000000008152600401610ee99061198c565b60405180910390fd5b6000600860003373ffffffffffffffffffffffffffffffffffffffff1673ffffffffffffffffffffffffffffffffffffffff1681526020019081526020016000205403610f9d576009339080600181540180825580915050600190039060005260206000200160009091909190916101000a81548173ffffffffffffffffffffffffffffffffffffffff021916908373ffffffffffffffffffffffffffffffffffffffff1602179055505b80600860003373ffffffffffffffffffffffffffffffffffffffff1673ffffffffffffffffffffffffffffffffffffffff1681526020019081526020016000206000828254610fec91906115f4565b92505081905550806005600082825461100591906115f4565b925050819055503373ffffffffffffffffffffffffffffffffffffffff167f264f630d9efa0d07053a31163641d9fcc0adafc9d9e76f1c37c2ce3a558d2c52346040516110529190611344565b60405180910390a260045460055410611081576001600760006101000a81548160ff0219169083151502179055505b50565b6003805461109190611467565b80601f01602080910402602001604051908101604052809291908181526020018280546110bd90611467565b801561110a5780601f106110df5761010080835404028352916020019161110a565b820191906000526020600020905b8154815290600101906020018083116110ed57829003601f168201915b505050505081565b600073ffffffffffffffffffffffffffffffffffffffff82169050919050565b600061113d82611112565b9050919050565b61114d81611132565b82525050565b60006020820190506111686000830184611144565b92915050565b600081519050919050565b600082825260208201905092915050565b60005b838110156111a857808201518184015260208101905061118d565b60008484015250505050565b6000601f19601f8301169050919050565b60006111d08261116e565b6111da8185611179565b93506111ea81856020860161118a565b6111f3816111b4565b840191505092915050565b6000819050919050565b611211816111fe565b82525050565b60008115159050919050565b61122c81611217565b82525050565b600061016082019050611248600083018e611144565b818103602083015261125a818d6111c5565b9050818103604083015261126e818c6111c5565b90508181036060830152611282818b6111c5565b9050611291608083018a611208565b61129e60a0830189611208565b6112ab60c0830188611208565b6112b860e0830187611223565b6112c6610100830186611223565b6112d4610120830185611223565b6112e2610140830184611223565b9c9b505050505050505050505050565b60006020820190506113076000830184611223565b92915050565b60006060820190506113226000830186611223565b61132f6020830185611223565b61133c6040830184611208565b949350505050565b60006020820190506113596000830184611208565b92915050565b600080fd5b61136d816111fe565b811461137857600080fd5b50565b60008135905061138a81611364565b92915050565b6000602082840312156113a6576113a561135f565b5b60006113b48482850161137b565b91505092915050565b6113c681611132565b81146113d157600080fd5b50565b6000813590506113e3816113bd565b92915050565b6000602082840312156113ff576113fe61135f565b5b600061140d848285016113d4565b91505092915050565b6000602082019050818103600083015261143081846111c5565b905092915050565b7f4e487b7100000000000000000000000000000000000000000000000000000000600052602260045260246000fd5b6000600282049050600182168061147f57607f821691505b60208210810361149257611491611438565b5b50919050565b7f476f616c206d65742c206e6f20726566756e647320617661696c61626c650000600082015250565b60006114ce601e83611179565b91506114d982611498565b602082019050919050565b600060208201905081810360008301526114fd816114c1565b9050919050565b7f43616d706169676e206d75737420626520656e64656420666f7220726566756e60008201527f6473000000000000000000000000000000000000000000000000000000000000602082015250565b6000611560602283611179565b915061156b82611504565b604082019050919050565b6000602082019050818103600083015261158f81611553565b9050919050565b7f4e487b7100000000000000000000000000000000000000000000000000000000600052603260045260246000fd5b7f4e487b7100000000000000000000000000000000000000000000000000000000600052601160045260246000fd5b60006115ff826111fe565b915061160a836111fe565b9250828201905080821115611622576116216115c5565b5b92915050565b7f476f616c206e6f74206d65740000000000000000000000000000000000000000600082015250565b600061165e600c83611179565b915061166982611628565b602082019050919050565b6000602082019050818103600083015261168d81611651565b9050919050565b7f4e6f2066756e647320746f2072656c6561736500000000000000000000000000600082015250565b60006116ca601383611179565b91506116d582611694565b602082019050919050565b600060208201905081810360008301526116f9816116bd565b9050919050565b600061170b826111fe565b9150611716836111fe565b9250828202611724816111fe565b9150828204841483151761173b5761173a6115c5565b5b5092915050565b7f4e487b7100000000000000000000000000000000000000000000000000000000600052601260045260246000fd5b600061177c826111fe565b9150611787836111fe565b92508261179757611796611742565b5b828204905092915050565b60006117ad826111fe565b91506117b8836111fe565b92508282039050818111156117d0576117cf6115c5565b5b92915050565b7f43616d706169676e2068617320656e6465640000000000000000000000000000600082015250565b600061180c601283611179565b9150611817826117d6565b602082019050919050565b6000602082019050818103600083015261183b816117ff565b9050919050565b7f43616d706169676e2068617320616c726561647920656e646564000000000000600082015250565b6000611878601a83611179565b915061188382611842565b602082019050919050565b600060208201905081810360008301526118a78161186b565b9050919050565b7f446f6e6174696f6e732062656c6f7720746865206d696e696d756d20616d6f7560008201527f6e7420617265206e6f7420616c6c6f7765640000000000000000000000000000602082015250565b600061190a603283611179565b9150611915826118ae565b604082019050919050565b60006020820190508181036000830152611939816118fd565b9050919050565b7f446f6e6174696f6e206578636565647320676f616c0000000000000000000000600082015250565b6000611976601583611179565b915061198182611940565b602082019050919050565b600060208201905081810360008301526119a581611969565b905091905056fea2646970667358221220ca2e0e29567923449e2b763bcb84f427bfbaf3e1970af91edb4689e2595c6ad064736f6c634300081b0033a26469706673582212202cfb6aa049a3469ef1df547ce88368c080218a01d95b7b2c6a52fb3410efe35064736f6c634300081b0033",
  "linkReferences": {},
  "deployedLinkReferences": {}
}