{
  "contracts/Campaign.sol": {
    "Campaign": {
      "abi": [
        {
          "inputs": [
            {
              "internalType": "address",
              "name": "_creator",
              "type": "address"
            },
            {
              "internalType": "string",
              "name": "_title",
              "type": "string"
            },
            {
              "internalType": "string",
              "name": "_description",
              "type": "string"
            },
            {
              "internalType": "string",
              "name": "_image",
              "type": "string"
            },
            {
              "internalType": "uint256",
              "name": "_goalAmount",
              "type": "uint256"
            },
            {
              "internalType": "uint256",
              "name": "_endDate",
              "type": "uint256"
            }
          ],
          "stateMutability": "nonpayable",
          "type": "constructor"
        },
        {
          "anonymous": false,
          "inputs": [
            {
              "indexed": true,
              "internalType": "address",
              "name": "donor",
              "type": "address"
            },
            {
              "indexed": false,
              "internalType": "uint256",
              "name": "amount",
              "type": "uint256"
            }
          ],
          "name": "DonationReceived",
          "type": "event"
        },
        {
          "anonymous": false,
          "inputs": [
            {
              "indexed": false,
              "internalType": "uint256",
              "name": "amount",
              "type": "uint256"
            }
          ],
          "name": "FundsReleased",
          "type": "event"
        },
        {
          "anonymous": false,
          "inputs": [
            {
              "indexed": true,
              "internalType": "address",
              "name": "donor",
              "type": "address"
            },
            {
              "indexed": false,
              "internalType": "uint256",
              "name": "amount",
              "type": "uint256"
            }
          ],
          "name": "RefundIssued",
          "type": "event"
        },
        {
          "inputs": [],
          "name": "MIN_DONATION",
          "outputs": [
            {
              "internalType": "uint256",
              "name": "",
              "type": "uint256"
            }
          ],
          "stateMutability": "view",
          "type": "function"
        },
        {
          "inputs": [
            {
              "internalType": "address",
              "name": "",
              "type": "address"
            }
          ],
          "name": "contributions",
          "outputs": [
            {
              "internalType": "uint256",
              "name": "",
              "type": "uint256"
            }
          ],
          "stateMutability": "view",
          "type": "function"
        },
        {
          "inputs": [],
          "name": "creator",
          "outputs": [
            {
              "internalType": "address",
              "name": "",
              "type": "address"
            }
          ],
          "stateMutability": "view",
          "type": "function"
        },
        {
          "inputs": [],
          "name": "description",
          "outputs": [
            {
              "internalType": "string",
              "name": "",
              "type": "string"
            }
          ],
          "stateMutability": "view",
          "type": "function"
        },
        {
          "inputs": [],
          "name": "donate",
          "outputs": [],
          "stateMutability": "payable",
          "type": "function"
        },
        {
          "inputs": [],
          "name": "endCampaign",
          "outputs": [],
          "stateMutability": "nonpayable",
          "type": "function"
        },
        {
          "inputs": [],
          "name": "endDate",
          "outputs": [
            {
              "internalType": "uint256",
              "name": "",
              "type": "uint256"
            }
          ],
          "stateMutability": "view",
          "type": "function"
        },
        {
          "inputs": [],
          "name": "getCampaignDetails",
          "outputs": [
            {
              "internalType": "string",
              "name": "_title",
              "type": "string"
            },
            {
              "internalType": "string",
              "name": "_description",
              "type": "string"
            },
            {
              "internalType": "string",
              "name": "_image",
              "type": "string"
            },
            {
              "internalType": "uint256",
              "name": "_goalAmount",
              "type": "uint256"
            },
            {
              "internalType": "uint256",
              "name": "_totalContributionsAmount",
              "type": "uint256"
            },
            {
              "internalType": "uint256",
              "name": "_endDate",
              "type": "uint256"
            }
          ],
          "stateMutability": "view",
          "type": "function"
        },
        {
          "inputs": [],
          "name": "getCampaignStatus",
          "outputs": [
            {
              "internalType": "bool",
              "name": "",
              "type": "bool"
            },
            {
              "internalType": "uint256",
              "name": "",
              "type": "uint256"
            }
          ],
          "stateMutability": "view",
          "type": "function"
        },
        {
          "inputs": [],
          "name": "goalAmount",
          "outputs": [
            {
              "internalType": "uint256",
              "name": "",
              "type": "uint256"
            }
          ],
          "stateMutability": "view",
          "type": "function"
        },
        {
          "inputs": [],
          "name": "image",
          "outputs": [
            {
              "internalType": "string",
              "name": "",
              "type": "string"
            }
          ],
          "stateMutability": "view",
          "type": "function"
        },
        {
          "inputs": [],
          "name": "isCampaignEnded",
          "outputs": [
            {
              "internalType": "bool",
              "name": "",
              "type": "bool"
            }
          ],
          "stateMutability": "view",
          "type": "function"
        },
        {
          "inputs": [],
          "name": "isGoalMet",
          "outputs": [
            {
              "internalType": "bool",
              "name": "",
              "type": "bool"
            }
          ],
          "stateMutability": "view",
          "type": "function"
        },
        {
          "inputs": [],
          "name": "refund",
          "outputs": [],
          "stateMutability": "nonpayable",
          "type": "function"
        },
        {
          "inputs": [],
          "name": "releaseFunds",
          "outputs": [],
          "stateMutability": "nonpayable",
          "type": "function"
        },
        {
          "inputs": [],
          "name": "serverAddress",
          "outputs": [
            {
              "internalType": "address",
              "name": "",
              "type": "address"
            }
          ],
          "stateMutability": "view",
          "type": "function"
        },
        {
          "inputs": [],
          "name": "title",
          "outputs": [
            {
              "internalType": "string",
              "name": "",
              "type": "string"
            }
          ],
          "stateMutability": "view",
          "type": "function"
        },
        {
          "inputs": [],
          "name": "totalContributionsAmount",
          "outputs": [
            {
              "internalType": "uint256",
              "name": "",
              "type": "uint256"
            }
          ],
          "stateMutability": "view",
          "type": "function"
        }
      ],
      "evm": {
        "bytecode": {
          "linkReferences": {},
          "object": "608060405234801561001057600080fd5b5060405161208c38038061208c83398181016040528101906100329190610380565b428111610074576040517f08c379a000000000000000000000000000000000000000000000000000000000815260040161006b906104be565b60405180910390fd5b600082116100b7576040517f08c379a00000000000000000000000000000000000000000000000000000000081526004016100ae90610550565b60405180910390fd5b85600160006101000a81548173ffffffffffffffffffffffffffffffffffffffff021916908373ffffffffffffffffffffffffffffffffffffffff16021790555084600290816101079190610787565b5083600390816101179190610787565b5082600490816101279190610787565b5081600581905550806007819055506000600860006101000a81548160ff0219169083151502179055506000600860016101000a81548160ff021916908315150217905550505050505050610859565b6000604051905090565b600080fd5b600080fd5b600073ffffffffffffffffffffffffffffffffffffffff82169050919050565b60006101b68261018b565b9050919050565b6101c6816101ab565b81146101d157600080fd5b50565b6000815190506101e3816101bd565b92915050565b600080fd5b600080fd5b6000601f19601f8301169050919050565b7f4e487b7100000000000000000000000000000000000000000000000000000000600052604160045260246000fd5b61023c826101f3565b810181811067ffffffffffffffff8211171561025b5761025a610204565b5b80604052505050565b600061026e610177565b905061027a8282610233565b919050565b600067ffffffffffffffff82111561029a57610299610204565b5b6102a3826101f3565b9050602081019050919050565b60005b838110156102ce5780820151818401526020810190506102b3565b60008484015250505050565b60006102ed6102e88461027f565b610264565b905082815260208101848484011115610309576103086101ee565b5b6103148482856102b0565b509392505050565b600082601f830112610331576103306101e9565b5b81516103418482602086016102da565b91505092915050565b6000819050919050565b61035d8161034a565b811461036857600080fd5b50565b60008151905061037a81610354565b92915050565b60008060008060008060c0878903121561039d5761039c610181565b5b60006103ab89828a016101d4565b965050602087015167ffffffffffffffff8111156103cc576103cb610186565b5b6103d889828a0161031c565b955050604087015167ffffffffffffffff8111156103f9576103f8610186565b5b61040589828a0161031c565b945050606087015167ffffffffffffffff81111561042657610425610186565b5b61043289828a0161031c565b935050608061044389828a0161036b565b92505060a061045489828a0161036b565b9150509295509295509295565b600082825260208201905092915050565b7f456e642064617465206d75737420626520696e20746865206675747572650000600082015250565b60006104a8601e83610461565b91506104b382610472565b602082019050919050565b600060208201905081810360008301526104d78161049b565b9050919050565b7f476f616c20616d6f756e74206d7573742062652067726561746572207468616e60008201527f2030000000000000000000000000000000000000000000000000000000000000602082015250565b600061053a602283610461565b9150610545826104de565b604082019050919050565b600060208201905081810360008301526105698161052d565b9050919050565b600081519050919050565b7f4e487b7100000000000000000000000000000000000000000000000000000000600052602260045260246000fd5b600060028204905060018216806105c257607f821691505b6020821081036105d5576105d461057b565b5b50919050565b60008190508160005260206000209050919050565b60006020601f8301049050919050565b600082821b905092915050565b60006008830261063d7fffffffffffffffffffffffffffffffffffffffffffffffffffffffffffffffff82610600565b6106478683610600565b95508019841693508086168417925050509392505050565b6000819050919050565b600061068461067f61067a8461034a565b61065f565b61034a565b9050919050565b6000819050919050565b61069e83610669565b6106b26106aa8261068b565b84845461060d565b825550505050565b600090565b6106c76106ba565b6106d2818484610695565b505050565b5b818110156106f6576106eb6000826106bf565b6001810190506106d8565b5050565b601f82111561073b5761070c816105db565b610715846105f0565b81016020851015610724578190505b610738610730856105f0565b8301826106d7565b50505b505050565b600082821c905092915050565b600061075e60001984600802610740565b1980831691505092915050565b6000610777838361074d565b9150826002028217905092915050565b61079082610570565b67ffffffffffffffff8111156107a9576107a8610204565b5b6107b382546105aa565b6107be8282856106fa565b600060209050601f8311600181146107f157600084156107df578287015190505b6107e9858261076b565b865550610851565b601f1984166107ff866105db565b60005b8281101561082757848901518255600182019150602085019450602081019050610802565b868310156108445784890151610840601f89168261074d565b8355505b6001600288020188555050505b505050505050565b611824806108686000396000f3fe6080604052600436106101095760003560e01c806371aac7f911610095578063db420fe311610064578063db420fe314610319578063db45810e14610344578063e4880d961461036f578063ed88c68e1461039a578063f3ccaac0146103a457610109565b806371aac7f9146102815780637284e41614610298578063aaf422bd146102c3578063c24a0f8b146102ee57610109565b80632636b945116100dc5780632636b945146101c057806342e94c90146101eb5780634a79d50c14610228578063590e1ae31461025357806369d895751461026a57610109565b806302d05d3f1461010e5780630c611f24146101395780630cd20578146101695780631055051514610194575b600080fd5b34801561011a57600080fd5b506101236103cf565b6040516101309190611007565b60405180910390f35b34801561014557600080fd5b5061014e6103f5565b604051610160969594939291906110cb565b60405180910390f35b34801561017557600080fd5b5061017e6105c6565b60405161018b919061115c565b60405180910390f35b3480156101a057600080fd5b506101a96105d9565b6040516101b7929190611177565b60405180910390f35b3480156101cc57600080fd5b506101d56105f7565b6040516101e291906111a0565b60405180910390f35b3480156101f757600080fd5b50610212600480360381019061020d91906111ec565b6105fd565b60405161021f91906111a0565b60405180910390f35b34801561023457600080fd5b5061023d610615565b60405161024a9190611219565b60405180910390f35b34801561025f57600080fd5b506102686106a3565b005b34801561027657600080fd5b5061027f6108b3565b005b34801561028d57600080fd5b50610296610add565b005b3480156102a457600080fd5b506102ad610c25565b6040516102ba9190611219565b60405180910390f35b3480156102cf57600080fd5b506102d8610cb3565b6040516102e591906111a0565b60405180910390f35b3480156102fa57600080fd5b50610303610cb9565b60405161031091906111a0565b60405180910390f35b34801561032557600080fd5b5061032e610cbf565b60405161033b9190611007565b60405180910390f35b34801561035057600080fd5b50610359610ce3565b60405161036691906111a0565b60405180910390f35b34801561037b57600080fd5b50610384610cee565b604051610391919061115c565b60405180910390f35b6103a2610d01565b005b3480156103b057600080fd5b506103b9610f38565b6040516103c69190611219565b60405180910390f35b600160009054906101000a900473ffffffffffffffffffffffffffffffffffffffff1681565b6060806060600080600060026003600460055460065460075485805461041a9061126a565b80601f01602080910402602001604051908101604052809291908181526020018280546104469061126a565b80156104935780601f1061046857610100808354040283529160200191610493565b820191906000526020600020905b81548152906001019060200180831161047657829003601f168201915b505050505095508480546104a69061126a565b80601f01602080910402602001604051908101604052809291908181526020018280546104d29061126a565b801561051f5780601f106104f45761010080835404028352916020019161051f565b820191906000526020600020905b81548152906001019060200180831161050257829003601f168201915b505050505094508380546105329061126a565b80601f016020809104026020016040519081016040528092919081815260200182805461055e9061126a565b80156105ab5780601f10610580576101008083540402835291602001916105ab565b820191906000526020600020905b81548152906001019060200180831161058e57829003601f168201915b50505050509350955095509550955095509550909192939495565b600860009054906101000a900460ff1681565b600080600860009054906101000a900460ff16600654915091509091565b60055481565b60096020528060005260406000206000915090505481565b600280546106229061126a565b80601f016020809104026020016040519081016040528092919081815260200182805461064e9061126a565b801561069b5780601f106106705761010080835404028352916020019161069b565b820191906000526020600020905b81548152906001019060200180831161067e57829003601f168201915b505050505081565b600860009054906101000a900460ff16156106f3576040517f08c379a00000000000000000000000000000000000000000000000000000000081526004016106ea906112e7565b60405180910390fd5b600754421015806107105750600860019054906101000a900460ff165b61074f576040517f08c379a000000000000000000000000000000000000000000000000000000000815260040161074690611379565b60405180910390fd5b6000600960003373ffffffffffffffffffffffffffffffffffffffff1673ffffffffffffffffffffffffffffffffffffffff168152602001908152602001600020549050600081116107d6576040517f08c379a00000000000000000000000000000000000000000000000000000000081526004016107cd906113e5565b60405180910390fd5b6000600960003373ffffffffffffffffffffffffffffffffffffffff1673ffffffffffffffffffffffffffffffffffffffff168152602001908152602001600020819055503373ffffffffffffffffffffffffffffffffffffffff166108fc829081150290604051600060405180830381858888f19350505050158015610861573d6000803e3d6000fd5b503373ffffffffffffffffffffffffffffffffffffffff167fa171b6942063c6f2800ce40a780edce37baa2b618571b11eedd1e69e626e7d76826040516108a891906111a0565b60405180910390a250565b600160009054906101000a900473ffffffffffffffffffffffffffffffffffffffff1673ffffffffffffffffffffffffffffffffffffffff163373ffffffffffffffffffffffffffffffffffffffff16148061095a575060008054906101000a900473ffffffffffffffffffffffffffffffffffffffff1673ffffffffffffffffffffffffffffffffffffffff163373ffffffffffffffffffffffffffffffffffffffff16145b610999576040517f08c379a000000000000000000000000000000000000000000000000000000000815260040161099090611451565b60405180910390fd5b600860009054906101000a900460ff166109e8576040517f08c379a00000000000000000000000000000000000000000000000000000000081526004016109df906114bd565b60405180910390fd5b6000600654905060008111610a32576040517f08c379a0000000000000000000000000000000000000000000000000000000008152600401610a2990611529565b60405180910390fd5b6000600681905550600160009054906101000a900473ffffffffffffffffffffffffffffffffffffffff1673ffffffffffffffffffffffffffffffffffffffff166108fc829081150290604051600060405180830381858888f19350505050158015610aa2573d6000803e3d6000fd5b507f952b264c8e0a06cddb4bbaa6d6af1d565145329fd95bbe72cb2b53942b2dc96681604051610ad291906111a0565b60405180910390a150565b600160009054906101000a900473ffffffffffffffffffffffffffffffffffffffff1673ffffffffffffffffffffffffffffffffffffffff163373ffffffffffffffffffffffffffffffffffffffff161480610b84575060008054906101000a900473ffffffffffffffffffffffffffffffffffffffff1673ffffffffffffffffffffffffffffffffffffffff163373ffffffffffffffffffffffffffffffffffffffff16145b610bc3576040517f08c379a0000000000000000000000000000000000000000000000000000000008152600401610bba90611451565b60405180910390fd5b600754421015610c08576040517f08c379a0000000000000000000000000000000000000000000000000000000008152600401610bff90611595565b60405180910390fd5b6001600860016101000a81548160ff021916908315150217905550565b60038054610c329061126a565b80601f0160208091040260200160405190810160405280929190818152602001828054610c5e9061126a565b8015610cab5780601f10610c8057610100808354040283529160200191610cab565b820191906000526020600020905b815481529060010190602001808311610c8e57829003601f168201915b505050505081565b60065481565b60075481565b60008054906101000a900473ffffffffffffffffffffffffffffffffffffffff1681565b662386f26fc1000081565b600860019054906101000a900460ff1681565b6007544210610d45576040517f08c379a0000000000000000000000000000000000000000000000000000000008152600401610d3c90611601565b60405180910390fd5b600860019054906101000a900460ff1615610d95576040517f08c379a0000000000000000000000000000000000000000000000000000000008152600401610d8c9061166d565b60405180910390fd5b6000349050662386f26fc10000811015610de4576040517f08c379a0000000000000000000000000000000000000000000000000000000008152600401610ddb906116ff565b60405180910390fd5b60055481600654610df5919061174e565b1115610e36576040517f08c379a0000000000000000000000000000000000000000000000000000000008152600401610e2d906117ce565b60405180910390fd5b80600960003373ffffffffffffffffffffffffffffffffffffffff1673ffffffffffffffffffffffffffffffffffffffff1681526020019081526020016000206000828254610e85919061174e565b925050819055508060066000828254610e9e919061174e565b925050819055503373ffffffffffffffffffffffffffffffffffffffff167f264f630d9efa0d07053a31163641d9fcc0adafc9d9e76f1c37c2ce3a558d2c5234604051610eeb91906111a0565b60405180910390a260055460065410610f35576001600860006101000a81548160ff0219169083151502179055506001600860016101000a81548160ff0219169083151502179055505b50565b60048054610f459061126a565b80601f0160208091040260200160405190810160405280929190818152602001828054610f719061126a565b8015610fbe5780601f10610f9357610100808354040283529160200191610fbe565b820191906000526020600020905b815481529060010190602001808311610fa157829003601f168201915b505050505081565b600073ffffffffffffffffffffffffffffffffffffffff82169050919050565b6000610ff182610fc6565b9050919050565b61100181610fe6565b82525050565b600060208201905061101c6000830184610ff8565b92915050565b600081519050919050565b600082825260208201905092915050565b60005b8381101561105c578082015181840152602081019050611041565b60008484015250505050565b6000601f19601f8301169050919050565b600061108482611022565b61108e818561102d565b935061109e81856020860161103e565b6110a781611068565b840191505092915050565b6000819050919050565b6110c5816110b2565b82525050565b600060c08201905081810360008301526110e58189611079565b905081810360208301526110f98188611079565b9050818103604083015261110d8187611079565b905061111c60608301866110bc565b61112960808301856110bc565b61113660a08301846110bc565b979650505050505050565b60008115159050919050565b61115681611141565b82525050565b6000602082019050611171600083018461114d565b92915050565b600060408201905061118c600083018561114d565b61119960208301846110bc565b9392505050565b60006020820190506111b560008301846110bc565b92915050565b600080fd5b6111c981610fe6565b81146111d457600080fd5b50565b6000813590506111e6816111c0565b92915050565b600060208284031215611202576112016111bb565b5b6000611210848285016111d7565b91505092915050565b600060208201905081810360008301526112338184611079565b905092915050565b7f4e487b7100000000000000000000000000000000000000000000000000000000600052602260045260246000fd5b6000600282049050600182168061128257607f821691505b6020821081036112955761129461123b565b5b50919050565b7f476f616c206d65742c206e6f20726566756e647320617661696c61626c650000600082015250565b60006112d1601e8361102d565b91506112dc8261129b565b602082019050919050565b60006020820190508181036000830152611300816112c4565b9050919050565b7f43616d706169676e206d75737420626520656e64656420666f7220726566756e60008201527f6473000000000000000000000000000000000000000000000000000000000000602082015250565b600061136360228361102d565b915061136e82611307565b604082019050919050565b6000602082019050818103600083015261139281611356565b9050919050565b7f4e6f20636f6e747269627574696f6e7320746f20726566756e64000000000000600082015250565b60006113cf601a8361102d565b91506113da82611399565b602082019050919050565b600060208201905081810360008301526113fe816113c2565b9050919050565b7f4e6f7420616c6c6f776564000000000000000000000000000000000000000000600082015250565b600061143b600b8361102d565b915061144682611405565b602082019050919050565b6000602082019050818103600083015261146a8161142e565b9050919050565b7f476f616c206e6f74206d65740000000000000000000000000000000000000000600082015250565b60006114a7600c8361102d565b91506114b282611471565b602082019050919050565b600060208201905081810360008301526114d68161149a565b9050919050565b7f4e6f2066756e647320746f2072656c6561736500000000000000000000000000600082015250565b600061151360138361102d565b915061151e826114dd565b602082019050919050565b6000602082019050818103600083015261154281611506565b9050919050565b7f43616d706169676e20656e642064617465206e6f742072656163686564000000600082015250565b600061157f601d8361102d565b915061158a82611549565b602082019050919050565b600060208201905081810360008301526115ae81611572565b9050919050565b7f43616d706169676e2068617320656e6465640000000000000000000000000000600082015250565b60006115eb60128361102d565b91506115f6826115b5565b602082019050919050565b6000602082019050818103600083015261161a816115de565b9050919050565b7f43616d706169676e2068617320616c726561647920656e646564000000000000600082015250565b6000611657601a8361102d565b915061166282611621565b602082019050919050565b600060208201905081810360008301526116868161164a565b9050919050565b7f446f6e6174696f6e732062656c6f7720746865206d696e696d756d20616d6f7560008201527f6e7420617265206e6f7420616c6c6f7765640000000000000000000000000000602082015250565b60006116e960328361102d565b91506116f48261168d565b604082019050919050565b60006020820190508181036000830152611718816116dc565b9050919050565b7f4e487b7100000000000000000000000000000000000000000000000000000000600052601160045260246000fd5b6000611759826110b2565b9150611764836110b2565b925082820190508082111561177c5761177b61171f565b5b92915050565b7f446f6e6174696f6e206578636565647320676f616c0000000000000000000000600082015250565b60006117b860158361102d565b91506117c382611782565b602082019050919050565b600060208201905081810360008301526117e7816117ab565b905091905056fea2646970667358221220ee362612d720c5f697015a5286da2dacf4842061d24d4ffc0f3e87b8433a626f64736f6c634300081b0033",
          "opcodes": "PUSH1 0x80 PUSH1 0x40 MSTORE CALLVALUE DUP1 ISZERO PUSH2 0x10 JUMPI PUSH1 0x0 DUP1 REVERT JUMPDEST POP PUSH1 0x40 MLOAD PUSH2 0x208C CODESIZE SUB DUP1 PUSH2 0x208C DUP4 CODECOPY DUP2 DUP2 ADD PUSH1 0x40 MSTORE DUP2 ADD SWAP1 PUSH2 0x32 SWAP2 SWAP1 PUSH2 0x380 JUMP JUMPDEST TIMESTAMP DUP2 GT PUSH2 0x74 JUMPI PUSH1 0x40 MLOAD PUSH32 0x8C379A000000000000000000000000000000000000000000000000000000000 DUP2 MSTORE PUSH1 0x4 ADD PUSH2 0x6B SWAP1 PUSH2 0x4BE JUMP JUMPDEST PUSH1 0x40 MLOAD DUP1 SWAP2 SUB SWAP1 REVERT JUMPDEST PUSH1 0x0 DUP3 GT PUSH2 0xB7 JUMPI PUSH1 0x40 MLOAD PUSH32 0x8C379A000000000000000000000000000000000000000000000000000000000 DUP2 MSTORE PUSH1 0x4 ADD PUSH2 0xAE SWAP1 PUSH2 0x550 JUMP JUMPDEST PUSH1 0x40 MLOAD DUP1 SWAP2 SUB SWAP1 REVERT JUMPDEST DUP6 PUSH1 0x1 PUSH1 0x0 PUSH2 0x100 EXP DUP2 SLOAD DUP2 PUSH20 0xFFFFFFFFFFFFFFFFFFFFFFFFFFFFFFFFFFFFFFFF MUL NOT AND SWAP1 DUP4 PUSH20 0xFFFFFFFFFFFFFFFFFFFFFFFFFFFFFFFFFFFFFFFF AND MUL OR SWAP1 SSTORE POP DUP5 PUSH1 0x2 SWAP1 DUP2 PUSH2 0x107 SWAP2 SWAP1 PUSH2 0x787 JUMP JUMPDEST POP DUP4 PUSH1 0x3 SWAP1 DUP2 PUSH2 0x117 SWAP2 SWAP1 PUSH2 0x787 JUMP JUMPDEST POP DUP3 PUSH1 0x4 SWAP1 DUP2 PUSH2 0x127 SWAP2 SWAP1 PUSH2 0x787 JUMP JUMPDEST POP DUP2 PUSH1 0x5 DUP2 SWAP1 SSTORE POP DUP1 PUSH1 0x7 DUP2 SWAP1 SSTORE POP PUSH1 0x0 PUSH1 0x8 PUSH1 0x0 PUSH2 0x100 EXP DUP2 SLOAD DUP2 PUSH1 0xFF MUL NOT AND SWAP1 DUP4 ISZERO ISZERO MUL OR SWAP1 SSTORE POP PUSH1 0x0 PUSH1 0x8 PUSH1 0x1 PUSH2 0x100 EXP DUP2 SLOAD DUP2 PUSH1 0xFF MUL NOT AND SWAP1 DUP4 ISZERO ISZERO MUL OR SWAP1 SSTORE POP POP POP POP POP POP POP PUSH2 0x859 JUMP JUMPDEST PUSH1 0x0 PUSH1 0x40 MLOAD SWAP1 POP SWAP1 JUMP JUMPDEST PUSH1 0x0 DUP1 REVERT JUMPDEST PUSH1 0x0 DUP1 REVERT JUMPDEST PUSH1 0x0 PUSH20 0xFFFFFFFFFFFFFFFFFFFFFFFFFFFFFFFFFFFFFFFF DUP3 AND SWAP1 POP SWAP2 SWAP1 POP JUMP JUMPDEST PUSH1 0x0 PUSH2 0x1B6 DUP3 PUSH2 0x18B JUMP JUMPDEST SWAP1 POP SWAP2 SWAP1 POP JUMP JUMPDEST PUSH2 0x1C6 DUP2 PUSH2 0x1AB JUMP JUMPDEST DUP2 EQ PUSH2 0x1D1 JUMPI PUSH1 0x0 DUP1 REVERT JUMPDEST POP JUMP JUMPDEST PUSH1 0x0 DUP2 MLOAD SWAP1 POP PUSH2 0x1E3 DUP2 PUSH2 0x1BD JUMP JUMPDEST SWAP3 SWAP2 POP POP JUMP JUMPDEST PUSH1 0x0 DUP1 REVERT JUMPDEST PUSH1 0x0 DUP1 REVERT JUMPDEST PUSH1 0x0 PUSH1 0x1F NOT PUSH1 0x1F DUP4 ADD AND SWAP1 POP SWAP2 SWAP1 POP JUMP JUMPDEST PUSH32 0x4E487B7100000000000000000000000000000000000000000000000000000000 PUSH1 0x0 MSTORE PUSH1 0x41 PUSH1 0x4 MSTORE PUSH1 0x24 PUSH1 0x0 REVERT JUMPDEST PUSH2 0x23C DUP3 PUSH2 0x1F3 JUMP JUMPDEST DUP2 ADD DUP2 DUP2 LT PUSH8 0xFFFFFFFFFFFFFFFF DUP3 GT OR ISZERO PUSH2 0x25B JUMPI PUSH2 0x25A PUSH2 0x204 JUMP JUMPDEST JUMPDEST DUP1 PUSH1 0x40 MSTORE POP POP POP JUMP JUMPDEST PUSH1 0x0 PUSH2 0x26E PUSH2 0x177 JUMP JUMPDEST SWAP1 POP PUSH2 0x27A DUP3 DUP3 PUSH2 0x233 JUMP JUMPDEST SWAP2 SWAP1 POP JUMP JUMPDEST PUSH1 0x0 PUSH8 0xFFFFFFFFFFFFFFFF DUP3 GT ISZERO PUSH2 0x29A JUMPI PUSH2 0x299 PUSH2 0x204 JUMP JUMPDEST JUMPDEST PUSH2 0x2A3 DUP3 PUSH2 0x1F3 JUMP JUMPDEST SWAP1 POP PUSH1 0x20 DUP2 ADD SWAP1 POP SWAP2 SWAP1 POP JUMP JUMPDEST PUSH1 0x0 JUMPDEST DUP4 DUP2 LT ISZERO PUSH2 0x2CE JUMPI DUP1 DUP3 ADD MLOAD DUP2 DUP5 ADD MSTORE PUSH1 0x20 DUP2 ADD SWAP1 POP PUSH2 0x2B3 JUMP JUMPDEST PUSH1 0x0 DUP5 DUP5 ADD MSTORE POP POP POP POP JUMP JUMPDEST PUSH1 0x0 PUSH2 0x2ED PUSH2 0x2E8 DUP5 PUSH2 0x27F JUMP JUMPDEST PUSH2 0x264 JUMP JUMPDEST SWAP1 POP DUP3 DUP2 MSTORE PUSH1 0x20 DUP2 ADD DUP5 DUP5 DUP5 ADD GT ISZERO PUSH2 0x309 JUMPI PUSH2 0x308 PUSH2 0x1EE JUMP JUMPDEST JUMPDEST PUSH2 0x314 DUP5 DUP3 DUP6 PUSH2 0x2B0 JUMP JUMPDEST POP SWAP4 SWAP3 POP POP POP JUMP JUMPDEST PUSH1 0x0 DUP3 PUSH1 0x1F DUP4 ADD SLT PUSH2 0x331 JUMPI PUSH2 0x330 PUSH2 0x1E9 JUMP JUMPDEST JUMPDEST DUP2 MLOAD PUSH2 0x341 DUP5 DUP3 PUSH1 0x20 DUP7 ADD PUSH2 0x2DA JUMP JUMPDEST SWAP2 POP POP SWAP3 SWAP2 POP POP JUMP JUMPDEST PUSH1 0x0 DUP2 SWAP1 POP SWAP2 SWAP1 POP JUMP JUMPDEST PUSH2 0x35D DUP2 PUSH2 0x34A JUMP JUMPDEST DUP2 EQ PUSH2 0x368 JUMPI PUSH1 0x0 DUP1 REVERT JUMPDEST POP JUMP JUMPDEST PUSH1 0x0 DUP2 MLOAD SWAP1 POP PUSH2 0x37A DUP2 PUSH2 0x354 JUMP JUMPDEST SWAP3 SWAP2 POP POP JUMP JUMPDEST PUSH1 0x0 DUP1 PUSH1 0x0 DUP1 PUSH1 0x0 DUP1 PUSH1 0xC0 DUP8 DUP10 SUB SLT ISZERO PUSH2 0x39D JUMPI PUSH2 0x39C PUSH2 0x181 JUMP JUMPDEST JUMPDEST PUSH1 0x0 PUSH2 0x3AB DUP10 DUP3 DUP11 ADD PUSH2 0x1D4 JUMP JUMPDEST SWAP7 POP POP PUSH1 0x20 DUP8 ADD MLOAD PUSH8 0xFFFFFFFFFFFFFFFF DUP2 GT ISZERO PUSH2 0x3CC JUMPI PUSH2 0x3CB PUSH2 0x186 JUMP JUMPDEST JUMPDEST PUSH2 0x3D8 DUP10 DUP3 DUP11 ADD PUSH2 0x31C JUMP JUMPDEST SWAP6 POP POP PUSH1 0x40 DUP8 ADD MLOAD PUSH8 0xFFFFFFFFFFFFFFFF DUP2 GT ISZERO PUSH2 0x3F9 JUMPI PUSH2 0x3F8 PUSH2 0x186 JUMP JUMPDEST JUMPDEST PUSH2 0x405 DUP10 DUP3 DUP11 ADD PUSH2 0x31C JUMP JUMPDEST SWAP5 POP POP PUSH1 0x60 DUP8 ADD MLOAD PUSH8 0xFFFFFFFFFFFFFFFF DUP2 GT ISZERO PUSH2 0x426 JUMPI PUSH2 0x425 PUSH2 0x186 JUMP JUMPDEST JUMPDEST PUSH2 0x432 DUP10 DUP3 DUP11 ADD PUSH2 0x31C JUMP JUMPDEST SWAP4 POP POP PUSH1 0x80 PUSH2 0x443 DUP10 DUP3 DUP11 ADD PUSH2 0x36B JUMP JUMPDEST SWAP3 POP POP PUSH1 0xA0 PUSH2 0x454 DUP10 DUP3 DUP11 ADD PUSH2 0x36B JUMP JUMPDEST SWAP2 POP POP SWAP3 SWAP6 POP SWAP3 SWAP6 POP SWAP3 SWAP6 JUMP JUMPDEST PUSH1 0x0 DUP3 DUP3 MSTORE PUSH1 0x20 DUP3 ADD SWAP1 POP SWAP3 SWAP2 POP POP JUMP JUMPDEST PUSH32 0x456E642064617465206D75737420626520696E20746865206675747572650000 PUSH1 0x0 DUP3 ADD MSTORE POP JUMP JUMPDEST PUSH1 0x0 PUSH2 0x4A8 PUSH1 0x1E DUP4 PUSH2 0x461 JUMP JUMPDEST SWAP2 POP PUSH2 0x4B3 DUP3 PUSH2 0x472 JUMP JUMPDEST PUSH1 0x20 DUP3 ADD SWAP1 POP SWAP2 SWAP1 POP JUMP JUMPDEST PUSH1 0x0 PUSH1 0x20 DUP3 ADD SWAP1 POP DUP2 DUP2 SUB PUSH1 0x0 DUP4 ADD MSTORE PUSH2 0x4D7 DUP2 PUSH2 0x49B JUMP JUMPDEST SWAP1 POP SWAP2 SWAP1 POP JUMP JUMPDEST PUSH32 0x476F616C20616D6F756E74206D7573742062652067726561746572207468616E PUSH1 0x0 DUP3 ADD MSTORE PUSH32 0x2030000000000000000000000000000000000000000000000000000000000000 PUSH1 0x20 DUP3 ADD MSTORE POP JUMP JUMPDEST PUSH1 0x0 PUSH2 0x53A PUSH1 0x22 DUP4 PUSH2 0x461 JUMP JUMPDEST SWAP2 POP PUSH2 0x545 DUP3 PUSH2 0x4DE JUMP JUMPDEST PUSH1 0x40 DUP3 ADD SWAP1 POP SWAP2 SWAP1 POP JUMP JUMPDEST PUSH1 0x0 PUSH1 0x20 DUP3 ADD SWAP1 POP DUP2 DUP2 SUB PUSH1 0x0 DUP4 ADD MSTORE PUSH2 0x569 DUP2 PUSH2 0x52D JUMP JUMPDEST SWAP1 POP SWAP2 SWAP1 POP JUMP JUMPDEST PUSH1 0x0 DUP2 MLOAD SWAP1 POP SWAP2 SWAP1 POP JUMP JUMPDEST PUSH32 0x4E487B7100000000000000000000000000000000000000000000000000000000 PUSH1 0x0 MSTORE PUSH1 0x22 PUSH1 0x4 MSTORE PUSH1 0x24 PUSH1 0x0 REVERT JUMPDEST PUSH1 0x0 PUSH1 0x2 DUP3 DIV SWAP1 POP PUSH1 0x1 DUP3 AND DUP1 PUSH2 0x5C2 JUMPI PUSH1 0x7F DUP3 AND SWAP2 POP JUMPDEST PUSH1 0x20 DUP3 LT DUP2 SUB PUSH2 0x5D5 JUMPI PUSH2 0x5D4 PUSH2 0x57B JUMP JUMPDEST JUMPDEST POP SWAP2 SWAP1 POP JUMP JUMPDEST PUSH1 0x0 DUP2 SWAP1 POP DUP2 PUSH1 0x0 MSTORE PUSH1 0x20 PUSH1 0x0 KECCAK256 SWAP1 POP SWAP2 SWAP1 POP JUMP JUMPDEST PUSH1 0x0 PUSH1 0x20 PUSH1 0x1F DUP4 ADD DIV SWAP1 POP SWAP2 SWAP1 POP JUMP JUMPDEST PUSH1 0x0 DUP3 DUP3 SHL SWAP1 POP SWAP3 SWAP2 POP POP JUMP JUMPDEST PUSH1 0x0 PUSH1 0x8 DUP4 MUL PUSH2 0x63D PUSH32 0xFFFFFFFFFFFFFFFFFFFFFFFFFFFFFFFFFFFFFFFFFFFFFFFFFFFFFFFFFFFFFFFF DUP3 PUSH2 0x600 JUMP JUMPDEST PUSH2 0x647 DUP7 DUP4 PUSH2 0x600 JUMP JUMPDEST SWAP6 POP DUP1 NOT DUP5 AND SWAP4 POP DUP1 DUP7 AND DUP5 OR SWAP3 POP POP POP SWAP4 SWAP3 POP POP POP JUMP JUMPDEST PUSH1 0x0 DUP2 SWAP1 POP SWAP2 SWAP1 POP JUMP JUMPDEST PUSH1 0x0 PUSH2 0x684 PUSH2 0x67F PUSH2 0x67A DUP5 PUSH2 0x34A JUMP JUMPDEST PUSH2 0x65F JUMP JUMPDEST PUSH2 0x34A JUMP JUMPDEST SWAP1 POP SWAP2 SWAP1 POP JUMP JUMPDEST PUSH1 0x0 DUP2 SWAP1 POP SWAP2 SWAP1 POP JUMP JUMPDEST PUSH2 0x69E DUP4 PUSH2 0x669 JUMP JUMPDEST PUSH2 0x6B2 PUSH2 0x6AA DUP3 PUSH2 0x68B JUMP JUMPDEST DUP5 DUP5 SLOAD PUSH2 0x60D JUMP JUMPDEST DUP3 SSTORE POP POP POP POP JUMP JUMPDEST PUSH1 0x0 SWAP1 JUMP JUMPDEST PUSH2 0x6C7 PUSH2 0x6BA JUMP JUMPDEST PUSH2 0x6D2 DUP2 DUP5 DUP5 PUSH2 0x695 JUMP JUMPDEST POP POP POP JUMP JUMPDEST JUMPDEST DUP2 DUP2 LT ISZERO PUSH2 0x6F6 JUMPI PUSH2 0x6EB PUSH1 0x0 DUP3 PUSH2 0x6BF JUMP JUMPDEST PUSH1 0x1 DUP2 ADD SWAP1 POP PUSH2 0x6D8 JUMP JUMPDEST POP POP JUMP JUMPDEST PUSH1 0x1F DUP3 GT ISZERO PUSH2 0x73B JUMPI PUSH2 0x70C DUP2 PUSH2 0x5DB JUMP JUMPDEST PUSH2 0x715 DUP5 PUSH2 0x5F0 JUMP JUMPDEST DUP2 ADD PUSH1 0x20 DUP6 LT ISZERO PUSH2 0x724 JUMPI DUP2 SWAP1 POP JUMPDEST PUSH2 0x738 PUSH2 0x730 DUP6 PUSH2 0x5F0 JUMP JUMPDEST DUP4 ADD DUP3 PUSH2 0x6D7 JUMP JUMPDEST POP POP JUMPDEST POP POP POP JUMP JUMPDEST PUSH1 0x0 DUP3 DUP3 SHR SWAP1 POP SWAP3 SWAP2 POP POP JUMP JUMPDEST PUSH1 0x0 PUSH2 0x75E PUSH1 0x0 NOT DUP5 PUSH1 0x8 MUL PUSH2 0x740 JUMP JUMPDEST NOT DUP1 DUP4 AND SWAP2 POP POP SWAP3 SWAP2 POP POP JUMP JUMPDEST PUSH1 0x0 PUSH2 0x777 DUP4 DUP4 PUSH2 0x74D JUMP JUMPDEST SWAP2 POP DUP3 PUSH1 0x2 MUL DUP3 OR SWAP1 POP SWAP3 SWAP2 POP POP JUMP JUMPDEST PUSH2 0x790 DUP3 PUSH2 0x570 JUMP JUMPDEST PUSH8 0xFFFFFFFFFFFFFFFF DUP2 GT ISZERO PUSH2 0x7A9 JUMPI PUSH2 0x7A8 PUSH2 0x204 JUMP JUMPDEST JUMPDEST PUSH2 0x7B3 DUP3 SLOAD PUSH2 0x5AA JUMP JUMPDEST PUSH2 0x7BE DUP3 DUP3 DUP6 PUSH2 0x6FA JUMP JUMPDEST PUSH1 0x0 PUSH1 0x20 SWAP1 POP PUSH1 0x1F DUP4 GT PUSH1 0x1 DUP2 EQ PUSH2 0x7F1 JUMPI PUSH1 0x0 DUP5 ISZERO PUSH2 0x7DF JUMPI DUP3 DUP8 ADD MLOAD SWAP1 POP JUMPDEST PUSH2 0x7E9 DUP6 DUP3 PUSH2 0x76B JUMP JUMPDEST DUP7 SSTORE POP PUSH2 0x851 JUMP JUMPDEST PUSH1 0x1F NOT DUP5 AND PUSH2 0x7FF DUP7 PUSH2 0x5DB JUMP JUMPDEST PUSH1 0x0 JUMPDEST DUP3 DUP2 LT ISZERO PUSH2 0x827 JUMPI DUP5 DUP10 ADD MLOAD DUP3 SSTORE PUSH1 0x1 DUP3 ADD SWAP2 POP PUSH1 0x20 DUP6 ADD SWAP5 POP PUSH1 0x20 DUP2 ADD SWAP1 POP PUSH2 0x802 JUMP JUMPDEST DUP7 DUP4 LT ISZERO PUSH2 0x844 JUMPI DUP5 DUP10 ADD MLOAD PUSH2 0x840 PUSH1 0x1F DUP10 AND DUP3 PUSH2 0x74D JUMP JUMPDEST DUP4 SSTORE POP JUMPDEST PUSH1 0x1 PUSH1 0x2 DUP9 MUL ADD DUP9 SSTORE POP POP POP JUMPDEST POP POP POP POP POP POP JUMP JUMPDEST PUSH2 0x1824 DUP1 PUSH2 0x868 PUSH1 0x0 CODECOPY PUSH1 0x0 RETURN INVALID PUSH1 0x80 PUSH1 0x40 MSTORE PUSH1 0x4 CALLDATASIZE LT PUSH2 0x109 JUMPI PUSH1 0x0 CALLDATALOAD PUSH1 0xE0 SHR DUP1 PUSH4 0x71AAC7F9 GT PUSH2 0x95 JUMPI DUP1 PUSH4 0xDB420FE3 GT PUSH2 0x64 JUMPI DUP1 PUSH4 0xDB420FE3 EQ PUSH2 0x319 JUMPI DUP1 PUSH4 0xDB45810E EQ PUSH2 0x344 JUMPI DUP1 PUSH4 0xE4880D96 EQ PUSH2 0x36F JUMPI DUP1 PUSH4 0xED88C68E EQ PUSH2 0x39A JUMPI DUP1 PUSH4 0xF3CCAAC0 EQ PUSH2 0x3A4 JUMPI PUSH2 0x109 JUMP JUMPDEST DUP1 PUSH4 0x71AAC7F9 EQ PUSH2 0x281 JUMPI DUP1 PUSH4 0x7284E416 EQ PUSH2 0x298 JUMPI DUP1 PUSH4 0xAAF422BD EQ PUSH2 0x2C3 JUMPI DUP1 PUSH4 0xC24A0F8B EQ PUSH2 0x2EE JUMPI PUSH2 0x109 JUMP JUMPDEST DUP1 PUSH4 0x2636B945 GT PUSH2 0xDC JUMPI DUP1 PUSH4 0x2636B945 EQ PUSH2 0x1C0 JUMPI DUP1 PUSH4 0x42E94C90 EQ PUSH2 0x1EB JUMPI DUP1 PUSH4 0x4A79D50C EQ PUSH2 0x228 JUMPI DUP1 PUSH4 0x590E1AE3 EQ PUSH2 0x253 JUMPI DUP1 PUSH4 0x69D89575 EQ PUSH2 0x26A JUMPI PUSH2 0x109 JUMP JUMPDEST DUP1 PUSH4 0x2D05D3F EQ PUSH2 0x10E JUMPI DUP1 PUSH4 0xC611F24 EQ PUSH2 0x139 JUMPI DUP1 PUSH4 0xCD20578 EQ PUSH2 0x169 JUMPI DUP1 PUSH4 0x10550515 EQ PUSH2 0x194 JUMPI JUMPDEST PUSH1 0x0 DUP1 REVERT JUMPDEST CALLVALUE DUP1 ISZERO PUSH2 0x11A JUMPI PUSH1 0x0 DUP1 REVERT JUMPDEST POP PUSH2 0x123 PUSH2 0x3CF JUMP JUMPDEST PUSH1 0x40 MLOAD PUSH2 0x130 SWAP2 SWAP1 PUSH2 0x1007 JUMP JUMPDEST PUSH1 0x40 MLOAD DUP1 SWAP2 SUB SWAP1 RETURN JUMPDEST CALLVALUE DUP1 ISZERO PUSH2 0x145 JUMPI PUSH1 0x0 DUP1 REVERT JUMPDEST POP PUSH2 0x14E PUSH2 0x3F5 JUMP JUMPDEST PUSH1 0x40 MLOAD PUSH2 0x160 SWAP7 SWAP6 SWAP5 SWAP4 SWAP3 SWAP2 SWAP1 PUSH2 0x10CB JUMP JUMPDEST PUSH1 0x40 MLOAD DUP1 SWAP2 SUB SWAP1 RETURN JUMPDEST CALLVALUE DUP1 ISZERO PUSH2 0x175 JUMPI PUSH1 0x0 DUP1 REVERT JUMPDEST POP PUSH2 0x17E PUSH2 0x5C6 JUMP JUMPDEST PUSH1 0x40 MLOAD PUSH2 0x18B SWAP2 SWAP1 PUSH2 0x115C JUMP JUMPDEST PUSH1 0x40 MLOAD DUP1 SWAP2 SUB SWAP1 RETURN JUMPDEST CALLVALUE DUP1 ISZERO PUSH2 0x1A0 JUMPI PUSH1 0x0 DUP1 REVERT JUMPDEST POP PUSH2 0x1A9 PUSH2 0x5D9 JUMP JUMPDEST PUSH1 0x40 MLOAD PUSH2 0x1B7 SWAP3 SWAP2 SWAP1 PUSH2 0x1177 JUMP JUMPDEST PUSH1 0x40 MLOAD DUP1 SWAP2 SUB SWAP1 RETURN JUMPDEST CALLVALUE DUP1 ISZERO PUSH2 0x1CC JUMPI PUSH1 0x0 DUP1 REVERT JUMPDEST POP PUSH2 0x1D5 PUSH2 0x5F7 JUMP JUMPDEST PUSH1 0x40 MLOAD PUSH2 0x1E2 SWAP2 SWAP1 PUSH2 0x11A0 JUMP JUMPDEST PUSH1 0x40 MLOAD DUP1 SWAP2 SUB SWAP1 RETURN JUMPDEST CALLVALUE DUP1 ISZERO PUSH2 0x1F7 JUMPI PUSH1 0x0 DUP1 REVERT JUMPDEST POP PUSH2 0x212 PUSH1 0x4 DUP1 CALLDATASIZE SUB DUP2 ADD SWAP1 PUSH2 0x20D SWAP2 SWAP1 PUSH2 0x11EC JUMP JUMPDEST PUSH2 0x5FD JUMP JUMPDEST PUSH1 0x40 MLOAD PUSH2 0x21F SWAP2 SWAP1 PUSH2 0x11A0 JUMP JUMPDEST PUSH1 0x40 MLOAD DUP1 SWAP2 SUB SWAP1 RETURN JUMPDEST CALLVALUE DUP1 ISZERO PUSH2 0x234 JUMPI PUSH1 0x0 DUP1 REVERT JUMPDEST POP PUSH2 0x23D PUSH2 0x615 JUMP JUMPDEST PUSH1 0x40 MLOAD PUSH2 0x24A SWAP2 SWAP1 PUSH2 0x1219 JUMP JUMPDEST PUSH1 0x40 MLOAD DUP1 SWAP2 SUB SWAP1 RETURN JUMPDEST CALLVALUE DUP1 ISZERO PUSH2 0x25F JUMPI PUSH1 0x0 DUP1 REVERT JUMPDEST POP PUSH2 0x268 PUSH2 0x6A3 JUMP JUMPDEST STOP JUMPDEST CALLVALUE DUP1 ISZERO PUSH2 0x276 JUMPI PUSH1 0x0 DUP1 REVERT JUMPDEST POP PUSH2 0x27F PUSH2 0x8B3 JUMP JUMPDEST STOP JUMPDEST CALLVALUE DUP1 ISZERO PUSH2 0x28D JUMPI PUSH1 0x0 DUP1 REVERT JUMPDEST POP PUSH2 0x296 PUSH2 0xADD JUMP JUMPDEST STOP JUMPDEST CALLVALUE DUP1 ISZERO PUSH2 0x2A4 JUMPI PUSH1 0x0 DUP1 REVERT JUMPDEST POP PUSH2 0x2AD PUSH2 0xC25 JUMP JUMPDEST PUSH1 0x40 MLOAD PUSH2 0x2BA SWAP2 SWAP1 PUSH2 0x1219 JUMP JUMPDEST PUSH1 0x40 MLOAD DUP1 SWAP2 SUB SWAP1 RETURN JUMPDEST CALLVALUE DUP1 ISZERO PUSH2 0x2CF JUMPI PUSH1 0x0 DUP1 REVERT JUMPDEST POP PUSH2 0x2D8 PUSH2 0xCB3 JUMP JUMPDEST PUSH1 0x40 MLOAD PUSH2 0x2E5 SWAP2 SWAP1 PUSH2 0x11A0 JUMP JUMPDEST PUSH1 0x40 MLOAD DUP1 SWAP2 SUB SWAP1 RETURN JUMPDEST CALLVALUE DUP1 ISZERO PUSH2 0x2FA JUMPI PUSH1 0x0 DUP1 REVERT JUMPDEST POP PUSH2 0x303 PUSH2 0xCB9 JUMP JUMPDEST PUSH1 0x40 MLOAD PUSH2 0x310 SWAP2 SWAP1 PUSH2 0x11A0 JUMP JUMPDEST PUSH1 0x40 MLOAD DUP1 SWAP2 SUB SWAP1 RETURN JUMPDEST CALLVALUE DUP1 ISZERO PUSH2 0x325 JUMPI PUSH1 0x0 DUP1 REVERT JUMPDEST POP PUSH2 0x32E PUSH2 0xCBF JUMP JUMPDEST PUSH1 0x40 MLOAD PUSH2 0x33B SWAP2 SWAP1 PUSH2 0x1007 JUMP JUMPDEST PUSH1 0x40 MLOAD DUP1 SWAP2 SUB SWAP1 RETURN JUMPDEST CALLVALUE DUP1 ISZERO PUSH2 0x350 JUMPI PUSH1 0x0 DUP1 REVERT JUMPDEST POP PUSH2 0x359 PUSH2 0xCE3 JUMP JUMPDEST PUSH1 0x40 MLOAD PUSH2 0x366 SWAP2 SWAP1 PUSH2 0x11A0 JUMP JUMPDEST PUSH1 0x40 MLOAD DUP1 SWAP2 SUB SWAP1 RETURN JUMPDEST CALLVALUE DUP1 ISZERO PUSH2 0x37B JUMPI PUSH1 0x0 DUP1 REVERT JUMPDEST POP PUSH2 0x384 PUSH2 0xCEE JUMP JUMPDEST PUSH1 0x40 MLOAD PUSH2 0x391 SWAP2 SWAP1 PUSH2 0x115C JUMP JUMPDEST PUSH1 0x40 MLOAD DUP1 SWAP2 SUB SWAP1 RETURN JUMPDEST PUSH2 0x3A2 PUSH2 0xD01 JUMP JUMPDEST STOP JUMPDEST CALLVALUE DUP1 ISZERO PUSH2 0x3B0 JUMPI PUSH1 0x0 DUP1 REVERT JUMPDEST POP PUSH2 0x3B9 PUSH2 0xF38 JUMP JUMPDEST PUSH1 0x40 MLOAD PUSH2 0x3C6 SWAP2 SWAP1 PUSH2 0x1219 JUMP JUMPDEST PUSH1 0x40 MLOAD DUP1 SWAP2 SUB SWAP1 RETURN JUMPDEST PUSH1 0x1 PUSH1 0x0 SWAP1 SLOAD SWAP1 PUSH2 0x100 EXP SWAP1 DIV PUSH20 0xFFFFFFFFFFFFFFFFFFFFFFFFFFFFFFFFFFFFFFFF AND DUP2 JUMP JUMPDEST PUSH1 0x60 DUP1 PUSH1 0x60 PUSH1 0x0 DUP1 PUSH1 0x0 PUSH1 0x2 PUSH1 0x3 PUSH1 0x4 PUSH1 0x5 SLOAD PUSH1 0x6 SLOAD PUSH1 0x7 SLOAD DUP6 DUP1 SLOAD PUSH2 0x41A SWAP1 PUSH2 0x126A JUMP JUMPDEST DUP1 PUSH1 0x1F ADD PUSH1 0x20 DUP1 SWAP2 DIV MUL PUSH1 0x20 ADD PUSH1 0x40 MLOAD SWAP1 DUP2 ADD PUSH1 0x40 MSTORE DUP1 SWAP3 SWAP2 SWAP1 DUP2 DUP2 MSTORE PUSH1 0x20 ADD DUP3 DUP1 SLOAD PUSH2 0x446 SWAP1 PUSH2 0x126A JUMP JUMPDEST DUP1 ISZERO PUSH2 0x493 JUMPI DUP1 PUSH1 0x1F LT PUSH2 0x468 JUMPI PUSH2 0x100 DUP1 DUP4 SLOAD DIV MUL DUP4 MSTORE SWAP2 PUSH1 0x20 ADD SWAP2 PUSH2 0x493 JUMP JUMPDEST DUP3 ADD SWAP2 SWAP1 PUSH1 0x0 MSTORE PUSH1 0x20 PUSH1 0x0 KECCAK256 SWAP1 JUMPDEST DUP2 SLOAD DUP2 MSTORE SWAP1 PUSH1 0x1 ADD SWAP1 PUSH1 0x20 ADD DUP1 DUP4 GT PUSH2 0x476 JUMPI DUP3 SWAP1 SUB PUSH1 0x1F AND DUP3 ADD SWAP2 JUMPDEST POP POP POP POP POP SWAP6 POP DUP5 DUP1 SLOAD PUSH2 0x4A6 SWAP1 PUSH2 0x126A JUMP JUMPDEST DUP1 PUSH1 0x1F ADD PUSH1 0x20 DUP1 SWAP2 DIV MUL PUSH1 0x20 ADD PUSH1 0x40 MLOAD SWAP1 DUP2 ADD PUSH1 0x40 MSTORE DUP1 SWAP3 SWAP2 SWAP1 DUP2 DUP2 MSTORE PUSH1 0x20 ADD DUP3 DUP1 SLOAD PUSH2 0x4D2 SWAP1 PUSH2 0x126A JUMP JUMPDEST DUP1 ISZERO PUSH2 0x51F JUMPI DUP1 PUSH1 0x1F LT PUSH2 0x4F4 JUMPI PUSH2 0x100 DUP1 DUP4 SLOAD DIV MUL DUP4 MSTORE SWAP2 PUSH1 0x20 ADD SWAP2 PUSH2 0x51F JUMP JUMPDEST DUP3 ADD SWAP2 SWAP1 PUSH1 0x0 MSTORE PUSH1 0x20 PUSH1 0x0 KECCAK256 SWAP1 JUMPDEST DUP2 SLOAD DUP2 MSTORE SWAP1 PUSH1 0x1 ADD SWAP1 PUSH1 0x20 ADD DUP1 DUP4 GT PUSH2 0x502 JUMPI DUP3 SWAP1 SUB PUSH1 0x1F AND DUP3 ADD SWAP2 JUMPDEST POP POP POP POP POP SWAP5 POP DUP4 DUP1 SLOAD PUSH2 0x532 SWAP1 PUSH2 0x126A JUMP JUMPDEST DUP1 PUSH1 0x1F ADD PUSH1 0x20 DUP1 SWAP2 DIV MUL PUSH1 0x20 ADD PUSH1 0x40 MLOAD SWAP1 DUP2 ADD PUSH1 0x40 MSTORE DUP1 SWAP3 SWAP2 SWAP1 DUP2 DUP2 MSTORE PUSH1 0x20 ADD DUP3 DUP1 SLOAD PUSH2 0x55E SWAP1 PUSH2 0x126A JUMP JUMPDEST DUP1 ISZERO PUSH2 0x5AB JUMPI DUP1 PUSH1 0x1F LT PUSH2 0x580 JUMPI PUSH2 0x100 DUP1 DUP4 SLOAD DIV MUL DUP4 MSTORE SWAP2 PUSH1 0x20 ADD SWAP2 PUSH2 0x5AB JUMP JUMPDEST DUP3 ADD SWAP2 SWAP1 PUSH1 0x0 MSTORE PUSH1 0x20 PUSH1 0x0 KECCAK256 SWAP1 JUMPDEST DUP2 SLOAD DUP2 MSTORE SWAP1 PUSH1 0x1 ADD SWAP1 PUSH1 0x20 ADD DUP1 DUP4 GT PUSH2 0x58E JUMPI DUP3 SWAP1 SUB PUSH1 0x1F AND DUP3 ADD SWAP2 JUMPDEST POP POP POP POP POP SWAP4 POP SWAP6 POP SWAP6 POP SWAP6 POP SWAP6 POP SWAP6 POP SWAP6 POP SWAP1 SWAP2 SWAP3 SWAP4 SWAP5 SWAP6 JUMP JUMPDEST PUSH1 0x8 PUSH1 0x0 SWAP1 SLOAD SWAP1 PUSH2 0x100 EXP SWAP1 DIV PUSH1 0xFF AND DUP2 JUMP JUMPDEST PUSH1 0x0 DUP1 PUSH1 0x8 PUSH1 0x0 SWAP1 SLOAD SWAP1 PUSH2 0x100 EXP SWAP1 DIV PUSH1 0xFF AND PUSH1 0x6 SLOAD SWAP2 POP SWAP2 POP SWAP1 SWAP2 JUMP JUMPDEST PUSH1 0x5 SLOAD DUP2 JUMP JUMPDEST PUSH1 0x9 PUSH1 0x20 MSTORE DUP1 PUSH1 0x0 MSTORE PUSH1 0x40 PUSH1 0x0 KECCAK256 PUSH1 0x0 SWAP2 POP SWAP1 POP SLOAD DUP2 JUMP JUMPDEST PUSH1 0x2 DUP1 SLOAD PUSH2 0x622 SWAP1 PUSH2 0x126A JUMP JUMPDEST DUP1 PUSH1 0x1F ADD PUSH1 0x20 DUP1 SWAP2 DIV MUL PUSH1 0x20 ADD PUSH1 0x40 MLOAD SWAP1 DUP2 ADD PUSH1 0x40 MSTORE DUP1 SWAP3 SWAP2 SWAP1 DUP2 DUP2 MSTORE PUSH1 0x20 ADD DUP3 DUP1 SLOAD PUSH2 0x64E SWAP1 PUSH2 0x126A JUMP JUMPDEST DUP1 ISZERO PUSH2 0x69B JUMPI DUP1 PUSH1 0x1F LT PUSH2 0x670 JUMPI PUSH2 0x100 DUP1 DUP4 SLOAD DIV MUL DUP4 MSTORE SWAP2 PUSH1 0x20 ADD SWAP2 PUSH2 0x69B JUMP JUMPDEST DUP3 ADD SWAP2 SWAP1 PUSH1 0x0 MSTORE PUSH1 0x20 PUSH1 0x0 KECCAK256 SWAP1 JUMPDEST DUP2 SLOAD DUP2 MSTORE SWAP1 PUSH1 0x1 ADD SWAP1 PUSH1 0x20 ADD DUP1 DUP4 GT PUSH2 0x67E JUMPI DUP3 SWAP1 SUB PUSH1 0x1F AND DUP3 ADD SWAP2 JUMPDEST POP POP POP POP POP DUP2 JUMP JUMPDEST PUSH1 0x8 PUSH1 0x0 SWAP1 SLOAD SWAP1 PUSH2 0x100 EXP SWAP1 DIV PUSH1 0xFF AND ISZERO PUSH2 0x6F3 JUMPI PUSH1 0x40 MLOAD PUSH32 0x8C379A000000000000000000000000000000000000000000000000000000000 DUP2 MSTORE PUSH1 0x4 ADD PUSH2 0x6EA SWAP1 PUSH2 0x12E7 JUMP JUMPDEST PUSH1 0x40 MLOAD DUP1 SWAP2 SUB SWAP1 REVERT JUMPDEST PUSH1 0x7 SLOAD TIMESTAMP LT ISZERO DUP1 PUSH2 0x710 JUMPI POP PUSH1 0x8 PUSH1 0x1 SWAP1 SLOAD SWAP1 PUSH2 0x100 EXP SWAP1 DIV PUSH1 0xFF AND JUMPDEST PUSH2 0x74F JUMPI PUSH1 0x40 MLOAD PUSH32 0x8C379A000000000000000000000000000000000000000000000000000000000 DUP2 MSTORE PUSH1 0x4 ADD PUSH2 0x746 SWAP1 PUSH2 0x1379 JUMP JUMPDEST PUSH1 0x40 MLOAD DUP1 SWAP2 SUB SWAP1 REVERT JUMPDEST PUSH1 0x0 PUSH1 0x9 PUSH1 0x0 CALLER PUSH20 0xFFFFFFFFFFFFFFFFFFFFFFFFFFFFFFFFFFFFFFFF AND PUSH20 0xFFFFFFFFFFFFFFFFFFFFFFFFFFFFFFFFFFFFFFFF AND DUP2 MSTORE PUSH1 0x20 ADD SWAP1 DUP2 MSTORE PUSH1 0x20 ADD PUSH1 0x0 KECCAK256 SLOAD SWAP1 POP PUSH1 0x0 DUP2 GT PUSH2 0x7D6 JUMPI PUSH1 0x40 MLOAD PUSH32 0x8C379A000000000000000000000000000000000000000000000000000000000 DUP2 MSTORE PUSH1 0x4 ADD PUSH2 0x7CD SWAP1 PUSH2 0x13E5 JUMP JUMPDEST PUSH1 0x40 MLOAD DUP1 SWAP2 SUB SWAP1 REVERT JUMPDEST PUSH1 0x0 PUSH1 0x9 PUSH1 0x0 CALLER PUSH20 0xFFFFFFFFFFFFFFFFFFFFFFFFFFFFFFFFFFFFFFFF AND PUSH20 0xFFFFFFFFFFFFFFFFFFFFFFFFFFFFFFFFFFFFFFFF AND DUP2 MSTORE PUSH1 0x20 ADD SWAP1 DUP2 MSTORE PUSH1 0x20 ADD PUSH1 0x0 KECCAK256 DUP2 SWAP1 SSTORE POP CALLER PUSH20 0xFFFFFFFFFFFFFFFFFFFFFFFFFFFFFFFFFFFFFFFF AND PUSH2 0x8FC DUP3 SWAP1 DUP2 ISZERO MUL SWAP1 PUSH1 0x40 MLOAD PUSH1 0x0 PUSH1 0x40 MLOAD DUP1 DUP4 SUB DUP2 DUP6 DUP9 DUP9 CALL SWAP4 POP POP POP POP ISZERO DUP1 ISZERO PUSH2 0x861 JUMPI RETURNDATASIZE PUSH1 0x0 DUP1 RETURNDATACOPY RETURNDATASIZE PUSH1 0x0 REVERT JUMPDEST POP CALLER PUSH20 0xFFFFFFFFFFFFFFFFFFFFFFFFFFFFFFFFFFFFFFFF AND PUSH32 0xA171B6942063C6F2800CE40A780EDCE37BAA2B618571B11EEDD1E69E626E7D76 DUP3 PUSH1 0x40 MLOAD PUSH2 0x8A8 SWAP2 SWAP1 PUSH2 0x11A0 JUMP JUMPDEST PUSH1 0x40 MLOAD DUP1 SWAP2 SUB SWAP1 LOG2 POP JUMP JUMPDEST PUSH1 0x1 PUSH1 0x0 SWAP1 SLOAD SWAP1 PUSH2 0x100 EXP SWAP1 DIV PUSH20 0xFFFFFFFFFFFFFFFFFFFFFFFFFFFFFFFFFFFFFFFF AND PUSH20 0xFFFFFFFFFFFFFFFFFFFFFFFFFFFFFFFFFFFFFFFF AND CALLER PUSH20 0xFFFFFFFFFFFFFFFFFFFFFFFFFFFFFFFFFFFFFFFF AND EQ DUP1 PUSH2 0x95A JUMPI POP PUSH1 0x0 DUP1 SLOAD SWAP1 PUSH2 0x100 EXP SWAP1 DIV PUSH20 0xFFFFFFFFFFFFFFFFFFFFFFFFFFFFFFFFFFFFFFFF AND PUSH20 0xFFFFFFFFFFFFFFFFFFFFFFFFFFFFFFFFFFFFFFFF AND CALLER PUSH20 0xFFFFFFFFFFFFFFFFFFFFFFFFFFFFFFFFFFFFFFFF AND EQ JUMPDEST PUSH2 0x999 JUMPI PUSH1 0x40 MLOAD PUSH32 0x8C379A000000000000000000000000000000000000000000000000000000000 DUP2 MSTORE PUSH1 0x4 ADD PUSH2 0x990 SWAP1 PUSH2 0x1451 JUMP JUMPDEST PUSH1 0x40 MLOAD DUP1 SWAP2 SUB SWAP1 REVERT JUMPDEST PUSH1 0x8 PUSH1 0x0 SWAP1 SLOAD SWAP1 PUSH2 0x100 EXP SWAP1 DIV PUSH1 0xFF AND PUSH2 0x9E8 JUMPI PUSH1 0x40 MLOAD PUSH32 0x8C379A000000000000000000000000000000000000000000000000000000000 DUP2 MSTORE PUSH1 0x4 ADD PUSH2 0x9DF SWAP1 PUSH2 0x14BD JUMP JUMPDEST PUSH1 0x40 MLOAD DUP1 SWAP2 SUB SWAP1 REVERT JUMPDEST PUSH1 0x0 PUSH1 0x6 SLOAD SWAP1 POP PUSH1 0x0 DUP2 GT PUSH2 0xA32 JUMPI PUSH1 0x40 MLOAD PUSH32 0x8C379A000000000000000000000000000000000000000000000000000000000 DUP2 MSTORE PUSH1 0x4 ADD PUSH2 0xA29 SWAP1 PUSH2 0x1529 JUMP JUMPDEST PUSH1 0x40 MLOAD DUP1 SWAP2 SUB SWAP1 REVERT JUMPDEST PUSH1 0x0 PUSH1 0x6 DUP2 SWAP1 SSTORE POP PUSH1 0x1 PUSH1 0x0 SWAP1 SLOAD SWAP1 PUSH2 0x100 EXP SWAP1 DIV PUSH20 0xFFFFFFFFFFFFFFFFFFFFFFFFFFFFFFFFFFFFFFFF AND PUSH20 0xFFFFFFFFFFFFFFFFFFFFFFFFFFFFFFFFFFFFFFFF AND PUSH2 0x8FC DUP3 SWAP1 DUP2 ISZERO MUL SWAP1 PUSH1 0x40 MLOAD PUSH1 0x0 PUSH1 0x40 MLOAD DUP1 DUP4 SUB DUP2 DUP6 DUP9 DUP9 CALL SWAP4 POP POP POP POP ISZERO DUP1 ISZERO PUSH2 0xAA2 JUMPI RETURNDATASIZE PUSH1 0x0 DUP1 RETURNDATACOPY RETURNDATASIZE PUSH1 0x0 REVERT JUMPDEST POP PUSH32 0x952B264C8E0A06CDDB4BBAA6D6AF1D565145329FD95BBE72CB2B53942B2DC966 DUP2 PUSH1 0x40 MLOAD PUSH2 0xAD2 SWAP2 SWAP1 PUSH2 0x11A0 JUMP JUMPDEST PUSH1 0x40 MLOAD DUP1 SWAP2 SUB SWAP1 LOG1 POP JUMP JUMPDEST PUSH1 0x1 PUSH1 0x0 SWAP1 SLOAD SWAP1 PUSH2 0x100 EXP SWAP1 DIV PUSH20 0xFFFFFFFFFFFFFFFFFFFFFFFFFFFFFFFFFFFFFFFF AND PUSH20 0xFFFFFFFFFFFFFFFFFFFFFFFFFFFFFFFFFFFFFFFF AND CALLER PUSH20 0xFFFFFFFFFFFFFFFFFFFFFFFFFFFFFFFFFFFFFFFF AND EQ DUP1 PUSH2 0xB84 JUMPI POP PUSH1 0x0 DUP1 SLOAD SWAP1 PUSH2 0x100 EXP SWAP1 DIV PUSH20 0xFFFFFFFFFFFFFFFFFFFFFFFFFFFFFFFFFFFFFFFF AND PUSH20 0xFFFFFFFFFFFFFFFFFFFFFFFFFFFFFFFFFFFFFFFF AND CALLER PUSH20 0xFFFFFFFFFFFFFFFFFFFFFFFFFFFFFFFFFFFFFFFF AND EQ JUMPDEST PUSH2 0xBC3 JUMPI PUSH1 0x40 MLOAD PUSH32 0x8C379A000000000000000000000000000000000000000000000000000000000 DUP2 MSTORE PUSH1 0x4 ADD PUSH2 0xBBA SWAP1 PUSH2 0x1451 JUMP JUMPDEST PUSH1 0x40 MLOAD DUP1 SWAP2 SUB SWAP1 REVERT JUMPDEST PUSH1 0x7 SLOAD TIMESTAMP LT ISZERO PUSH2 0xC08 JUMPI PUSH1 0x40 MLOAD PUSH32 0x8C379A000000000000000000000000000000000000000000000000000000000 DUP2 MSTORE PUSH1 0x4 ADD PUSH2 0xBFF SWAP1 PUSH2 0x1595 JUMP JUMPDEST PUSH1 0x40 MLOAD DUP1 SWAP2 SUB SWAP1 REVERT JUMPDEST PUSH1 0x1 PUSH1 0x8 PUSH1 0x1 PUSH2 0x100 EXP DUP2 SLOAD DUP2 PUSH1 0xFF MUL NOT AND SWAP1 DUP4 ISZERO ISZERO MUL OR SWAP1 SSTORE POP JUMP JUMPDEST PUSH1 0x3 DUP1 SLOAD PUSH2 0xC32 SWAP1 PUSH2 0x126A JUMP JUMPDEST DUP1 PUSH1 0x1F ADD PUSH1 0x20 DUP1 SWAP2 DIV MUL PUSH1 0x20 ADD PUSH1 0x40 MLOAD SWAP1 DUP2 ADD PUSH1 0x40 MSTORE DUP1 SWAP3 SWAP2 SWAP1 DUP2 DUP2 MSTORE PUSH1 0x20 ADD DUP3 DUP1 SLOAD PUSH2 0xC5E SWAP1 PUSH2 0x126A JUMP JUMPDEST DUP1 ISZERO PUSH2 0xCAB JUMPI DUP1 PUSH1 0x1F LT PUSH2 0xC80 JUMPI PUSH2 0x100 DUP1 DUP4 SLOAD DIV MUL DUP4 MSTORE SWAP2 PUSH1 0x20 ADD SWAP2 PUSH2 0xCAB JUMP JUMPDEST DUP3 ADD SWAP2 SWAP1 PUSH1 0x0 MSTORE PUSH1 0x20 PUSH1 0x0 KECCAK256 SWAP1 JUMPDEST DUP2 SLOAD DUP2 MSTORE SWAP1 PUSH1 0x1 ADD SWAP1 PUSH1 0x20 ADD DUP1 DUP4 GT PUSH2 0xC8E JUMPI DUP3 SWAP1 SUB PUSH1 0x1F AND DUP3 ADD SWAP2 JUMPDEST POP POP POP POP POP DUP2 JUMP JUMPDEST PUSH1 0x6 SLOAD DUP2 JUMP JUMPDEST PUSH1 0x7 SLOAD DUP2 JUMP JUMPDEST PUSH1 0x0 DUP1 SLOAD SWAP1 PUSH2 0x100 EXP SWAP1 DIV PUSH20 0xFFFFFFFFFFFFFFFFFFFFFFFFFFFFFFFFFFFFFFFF AND DUP2 JUMP JUMPDEST PUSH7 0x2386F26FC10000 DUP2 JUMP JUMPDEST PUSH1 0x8 PUSH1 0x1 SWAP1 SLOAD SWAP1 PUSH2 0x100 EXP SWAP1 DIV PUSH1 0xFF AND DUP2 JUMP JUMPDEST PUSH1 0x7 SLOAD TIMESTAMP LT PUSH2 0xD45 JUMPI PUSH1 0x40 MLOAD PUSH32 0x8C379A000000000000000000000000000000000000000000000000000000000 DUP2 MSTORE PUSH1 0x4 ADD PUSH2 0xD3C SWAP1 PUSH2 0x1601 JUMP JUMPDEST PUSH1 0x40 MLOAD DUP1 SWAP2 SUB SWAP1 REVERT JUMPDEST PUSH1 0x8 PUSH1 0x1 SWAP1 SLOAD SWAP1 PUSH2 0x100 EXP SWAP1 DIV PUSH1 0xFF AND ISZERO PUSH2 0xD95 JUMPI PUSH1 0x40 MLOAD PUSH32 0x8C379A000000000000000000000000000000000000000000000000000000000 DUP2 MSTORE PUSH1 0x4 ADD PUSH2 0xD8C SWAP1 PUSH2 0x166D JUMP JUMPDEST PUSH1 0x40 MLOAD DUP1 SWAP2 SUB SWAP1 REVERT JUMPDEST PUSH1 0x0 CALLVALUE SWAP1 POP PUSH7 0x2386F26FC10000 DUP2 LT ISZERO PUSH2 0xDE4 JUMPI PUSH1 0x40 MLOAD PUSH32 0x8C379A000000000000000000000000000000000000000000000000000000000 DUP2 MSTORE PUSH1 0x4 ADD PUSH2 0xDDB SWAP1 PUSH2 0x16FF JUMP JUMPDEST PUSH1 0x40 MLOAD DUP1 SWAP2 SUB SWAP1 REVERT JUMPDEST PUSH1 0x5 SLOAD DUP2 PUSH1 0x6 SLOAD PUSH2 0xDF5 SWAP2 SWAP1 PUSH2 0x174E JUMP JUMPDEST GT ISZERO PUSH2 0xE36 JUMPI PUSH1 0x40 MLOAD PUSH32 0x8C379A000000000000000000000000000000000000000000000000000000000 DUP2 MSTORE PUSH1 0x4 ADD PUSH2 0xE2D SWAP1 PUSH2 0x17CE JUMP JUMPDEST PUSH1 0x40 MLOAD DUP1 SWAP2 SUB SWAP1 REVERT JUMPDEST DUP1 PUSH1 0x9 PUSH1 0x0 CALLER PUSH20 0xFFFFFFFFFFFFFFFFFFFFFFFFFFFFFFFFFFFFFFFF AND PUSH20 0xFFFFFFFFFFFFFFFFFFFFFFFFFFFFFFFFFFFFFFFF AND DUP2 MSTORE PUSH1 0x20 ADD SWAP1 DUP2 MSTORE PUSH1 0x20 ADD PUSH1 0x0 KECCAK256 PUSH1 0x0 DUP3 DUP3 SLOAD PUSH2 0xE85 SWAP2 SWAP1 PUSH2 0x174E JUMP JUMPDEST SWAP3 POP POP DUP2 SWAP1 SSTORE POP DUP1 PUSH1 0x6 PUSH1 0x0 DUP3 DUP3 SLOAD PUSH2 0xE9E SWAP2 SWAP1 PUSH2 0x174E JUMP JUMPDEST SWAP3 POP POP DUP2 SWAP1 SSTORE POP CALLER PUSH20 0xFFFFFFFFFFFFFFFFFFFFFFFFFFFFFFFFFFFFFFFF AND PUSH32 0x264F630D9EFA0D07053A31163641D9FCC0ADAFC9D9E76F1C37C2CE3A558D2C52 CALLVALUE PUSH1 0x40 MLOAD PUSH2 0xEEB SWAP2 SWAP1 PUSH2 0x11A0 JUMP JUMPDEST PUSH1 0x40 MLOAD DUP1 SWAP2 SUB SWAP1 LOG2 PUSH1 0x5 SLOAD PUSH1 0x6 SLOAD LT PUSH2 0xF35 JUMPI PUSH1 0x1 PUSH1 0x8 PUSH1 0x0 PUSH2 0x100 EXP DUP2 SLOAD DUP2 PUSH1 0xFF MUL NOT AND SWAP1 DUP4 ISZERO ISZERO MUL OR SWAP1 SSTORE POP PUSH1 0x1 PUSH1 0x8 PUSH1 0x1 PUSH2 0x100 EXP DUP2 SLOAD DUP2 PUSH1 0xFF MUL NOT AND SWAP1 DUP4 ISZERO ISZERO MUL OR SWAP1 SSTORE POP JUMPDEST POP JUMP JUMPDEST PUSH1 0x4 DUP1 SLOAD PUSH2 0xF45 SWAP1 PUSH2 0x126A JUMP JUMPDEST DUP1 PUSH1 0x1F ADD PUSH1 0x20 DUP1 SWAP2 DIV MUL PUSH1 0x20 ADD PUSH1 0x40 MLOAD SWAP1 DUP2 ADD PUSH1 0x40 MSTORE DUP1 SWAP3 SWAP2 SWAP1 DUP2 DUP2 MSTORE PUSH1 0x20 ADD DUP3 DUP1 SLOAD PUSH2 0xF71 SWAP1 PUSH2 0x126A JUMP JUMPDEST DUP1 ISZERO PUSH2 0xFBE JUMPI DUP1 PUSH1 0x1F LT PUSH2 0xF93 JUMPI PUSH2 0x100 DUP1 DUP4 SLOAD DIV MUL DUP4 MSTORE SWAP2 PUSH1 0x20 ADD SWAP2 PUSH2 0xFBE JUMP JUMPDEST DUP3 ADD SWAP2 SWAP1 PUSH1 0x0 MSTORE PUSH1 0x20 PUSH1 0x0 KECCAK256 SWAP1 JUMPDEST DUP2 SLOAD DUP2 MSTORE SWAP1 PUSH1 0x1 ADD SWAP1 PUSH1 0x20 ADD DUP1 DUP4 GT PUSH2 0xFA1 JUMPI DUP3 SWAP1 SUB PUSH1 0x1F AND DUP3 ADD SWAP2 JUMPDEST POP POP POP POP POP DUP2 JUMP JUMPDEST PUSH1 0x0 PUSH20 0xFFFFFFFFFFFFFFFFFFFFFFFFFFFFFFFFFFFFFFFF DUP3 AND SWAP1 POP SWAP2 SWAP1 POP JUMP JUMPDEST PUSH1 0x0 PUSH2 0xFF1 DUP3 PUSH2 0xFC6 JUMP JUMPDEST SWAP1 POP SWAP2 SWAP1 POP JUMP JUMPDEST PUSH2 0x1001 DUP2 PUSH2 0xFE6 JUMP JUMPDEST DUP3 MSTORE POP POP JUMP JUMPDEST PUSH1 0x0 PUSH1 0x20 DUP3 ADD SWAP1 POP PUSH2 0x101C PUSH1 0x0 DUP4 ADD DUP5 PUSH2 0xFF8 JUMP JUMPDEST SWAP3 SWAP2 POP POP JUMP JUMPDEST PUSH1 0x0 DUP2 MLOAD SWAP1 POP SWAP2 SWAP1 POP JUMP JUMPDEST PUSH1 0x0 DUP3 DUP3 MSTORE PUSH1 0x20 DUP3 ADD SWAP1 POP SWAP3 SWAP2 POP POP JUMP JUMPDEST PUSH1 0x0 JUMPDEST DUP4 DUP2 LT ISZERO PUSH2 0x105C JUMPI DUP1 DUP3 ADD MLOAD DUP2 DUP5 ADD MSTORE PUSH1 0x20 DUP2 ADD SWAP1 POP PUSH2 0x1041 JUMP JUMPDEST PUSH1 0x0 DUP5 DUP5 ADD MSTORE POP POP POP POP JUMP JUMPDEST PUSH1 0x0 PUSH1 0x1F NOT PUSH1 0x1F DUP4 ADD AND SWAP1 POP SWAP2 SWAP1 POP JUMP JUMPDEST PUSH1 0x0 PUSH2 0x1084 DUP3 PUSH2 0x1022 JUMP JUMPDEST PUSH2 0x108E DUP2 DUP6 PUSH2 0x102D JUMP JUMPDEST SWAP4 POP PUSH2 0x109E DUP2 DUP6 PUSH1 0x20 DUP7 ADD PUSH2 0x103E JUMP JUMPDEST PUSH2 0x10A7 DUP2 PUSH2 0x1068 JUMP JUMPDEST DUP5 ADD SWAP2 POP POP SWAP3 SWAP2 POP POP JUMP JUMPDEST PUSH1 0x0 DUP2 SWAP1 POP SWAP2 SWAP1 POP JUMP JUMPDEST PUSH2 0x10C5 DUP2 PUSH2 0x10B2 JUMP JUMPDEST DUP3 MSTORE POP POP JUMP JUMPDEST PUSH1 0x0 PUSH1 0xC0 DUP3 ADD SWAP1 POP DUP2 DUP2 SUB PUSH1 0x0 DUP4 ADD MSTORE PUSH2 0x10E5 DUP2 DUP10 PUSH2 0x1079 JUMP JUMPDEST SWAP1 POP DUP2 DUP2 SUB PUSH1 0x20 DUP4 ADD MSTORE PUSH2 0x10F9 DUP2 DUP9 PUSH2 0x1079 JUMP JUMPDEST SWAP1 POP DUP2 DUP2 SUB PUSH1 0x40 DUP4 ADD MSTORE PUSH2 0x110D DUP2 DUP8 PUSH2 0x1079 JUMP JUMPDEST SWAP1 POP PUSH2 0x111C PUSH1 0x60 DUP4 ADD DUP7 PUSH2 0x10BC JUMP JUMPDEST PUSH2 0x1129 PUSH1 0x80 DUP4 ADD DUP6 PUSH2 0x10BC JUMP JUMPDEST PUSH2 0x1136 PUSH1 0xA0 DUP4 ADD DUP5 PUSH2 0x10BC JUMP JUMPDEST SWAP8 SWAP7 POP POP POP POP POP POP POP JUMP JUMPDEST PUSH1 0x0 DUP2 ISZERO ISZERO SWAP1 POP SWAP2 SWAP1 POP JUMP JUMPDEST PUSH2 0x1156 DUP2 PUSH2 0x1141 JUMP JUMPDEST DUP3 MSTORE POP POP JUMP JUMPDEST PUSH1 0x0 PUSH1 0x20 DUP3 ADD SWAP1 POP PUSH2 0x1171 PUSH1 0x0 DUP4 ADD DUP5 PUSH2 0x114D JUMP JUMPDEST SWAP3 SWAP2 POP POP JUMP JUMPDEST PUSH1 0x0 PUSH1 0x40 DUP3 ADD SWAP1 POP PUSH2 0x118C PUSH1 0x0 DUP4 ADD DUP6 PUSH2 0x114D JUMP JUMPDEST PUSH2 0x1199 PUSH1 0x20 DUP4 ADD DUP5 PUSH2 0x10BC JUMP JUMPDEST SWAP4 SWAP3 POP POP POP JUMP JUMPDEST PUSH1 0x0 PUSH1 0x20 DUP3 ADD SWAP1 POP PUSH2 0x11B5 PUSH1 0x0 DUP4 ADD DUP5 PUSH2 0x10BC JUMP JUMPDEST SWAP3 SWAP2 POP POP JUMP JUMPDEST PUSH1 0x0 DUP1 REVERT JUMPDEST PUSH2 0x11C9 DUP2 PUSH2 0xFE6 JUMP JUMPDEST DUP2 EQ PUSH2 0x11D4 JUMPI PUSH1 0x0 DUP1 REVERT JUMPDEST POP JUMP JUMPDEST PUSH1 0x0 DUP2 CALLDATALOAD SWAP1 POP PUSH2 0x11E6 DUP2 PUSH2 0x11C0 JUMP JUMPDEST SWAP3 SWAP2 POP POP JUMP JUMPDEST PUSH1 0x0 PUSH1 0x20 DUP3 DUP5 SUB SLT ISZERO PUSH2 0x1202 JUMPI PUSH2 0x1201 PUSH2 0x11BB JUMP JUMPDEST JUMPDEST PUSH1 0x0 PUSH2 0x1210 DUP5 DUP3 DUP6 ADD PUSH2 0x11D7 JUMP JUMPDEST SWAP2 POP POP SWAP3 SWAP2 POP POP JUMP JUMPDEST PUSH1 0x0 PUSH1 0x20 DUP3 ADD SWAP1 POP DUP2 DUP2 SUB PUSH1 0x0 DUP4 ADD MSTORE PUSH2 0x1233 DUP2 DUP5 PUSH2 0x1079 JUMP JUMPDEST SWAP1 POP SWAP3 SWAP2 POP POP JUMP JUMPDEST PUSH32 0x4E487B7100000000000000000000000000000000000000000000000000000000 PUSH1 0x0 MSTORE PUSH1 0x22 PUSH1 0x4 MSTORE PUSH1 0x24 PUSH1 0x0 REVERT JUMPDEST PUSH1 0x0 PUSH1 0x2 DUP3 DIV SWAP1 POP PUSH1 0x1 DUP3 AND DUP1 PUSH2 0x1282 JUMPI PUSH1 0x7F DUP3 AND SWAP2 POP JUMPDEST PUSH1 0x20 DUP3 LT DUP2 SUB PUSH2 0x1295 JUMPI PUSH2 0x1294 PUSH2 0x123B JUMP JUMPDEST JUMPDEST POP SWAP2 SWAP1 POP JUMP JUMPDEST PUSH32 0x476F616C206D65742C206E6F20726566756E647320617661696C61626C650000 PUSH1 0x0 DUP3 ADD MSTORE POP JUMP JUMPDEST PUSH1 0x0 PUSH2 0x12D1 PUSH1 0x1E DUP4 PUSH2 0x102D JUMP JUMPDEST SWAP2 POP PUSH2 0x12DC DUP3 PUSH2 0x129B JUMP JUMPDEST PUSH1 0x20 DUP3 ADD SWAP1 POP SWAP2 SWAP1 POP JUMP JUMPDEST PUSH1 0x0 PUSH1 0x20 DUP3 ADD SWAP1 POP DUP2 DUP2 SUB PUSH1 0x0 DUP4 ADD MSTORE PUSH2 0x1300 DUP2 PUSH2 0x12C4 JUMP JUMPDEST SWAP1 POP SWAP2 SWAP1 POP JUMP JUMPDEST PUSH32 0x43616D706169676E206D75737420626520656E64656420666F7220726566756E PUSH1 0x0 DUP3 ADD MSTORE PUSH32 0x6473000000000000000000000000000000000000000000000000000000000000 PUSH1 0x20 DUP3 ADD MSTORE POP JUMP JUMPDEST PUSH1 0x0 PUSH2 0x1363 PUSH1 0x22 DUP4 PUSH2 0x102D JUMP JUMPDEST SWAP2 POP PUSH2 0x136E DUP3 PUSH2 0x1307 JUMP JUMPDEST PUSH1 0x40 DUP3 ADD SWAP1 POP SWAP2 SWAP1 POP JUMP JUMPDEST PUSH1 0x0 PUSH1 0x20 DUP3 ADD SWAP1 POP DUP2 DUP2 SUB PUSH1 0x0 DUP4 ADD MSTORE PUSH2 0x1392 DUP2 PUSH2 0x1356 JUMP JUMPDEST SWAP1 POP SWAP2 SWAP1 POP JUMP JUMPDEST PUSH32 0x4E6F20636F6E747269627574696F6E7320746F20726566756E64000000000000 PUSH1 0x0 DUP3 ADD MSTORE POP JUMP JUMPDEST PUSH1 0x0 PUSH2 0x13CF PUSH1 0x1A DUP4 PUSH2 0x102D JUMP JUMPDEST SWAP2 POP PUSH2 0x13DA DUP3 PUSH2 0x1399 JUMP JUMPDEST PUSH1 0x20 DUP3 ADD SWAP1 POP SWAP2 SWAP1 POP JUMP JUMPDEST PUSH1 0x0 PUSH1 0x20 DUP3 ADD SWAP1 POP DUP2 DUP2 SUB PUSH1 0x0 DUP4 ADD MSTORE PUSH2 0x13FE DUP2 PUSH2 0x13C2 JUMP JUMPDEST SWAP1 POP SWAP2 SWAP1 POP JUMP JUMPDEST PUSH32 0x4E6F7420616C6C6F776564000000000000000000000000000000000000000000 PUSH1 0x0 DUP3 ADD MSTORE POP JUMP JUMPDEST PUSH1 0x0 PUSH2 0x143B PUSH1 0xB DUP4 PUSH2 0x102D JUMP JUMPDEST SWAP2 POP PUSH2 0x1446 DUP3 PUSH2 0x1405 JUMP JUMPDEST PUSH1 0x20 DUP3 ADD SWAP1 POP SWAP2 SWAP1 POP JUMP JUMPDEST PUSH1 0x0 PUSH1 0x20 DUP3 ADD SWAP1 POP DUP2 DUP2 SUB PUSH1 0x0 DUP4 ADD MSTORE PUSH2 0x146A DUP2 PUSH2 0x142E JUMP JUMPDEST SWAP1 POP SWAP2 SWAP1 POP JUMP JUMPDEST PUSH32 0x476F616C206E6F74206D65740000000000000000000000000000000000000000 PUSH1 0x0 DUP3 ADD MSTORE POP JUMP JUMPDEST PUSH1 0x0 PUSH2 0x14A7 PUSH1 0xC DUP4 PUSH2 0x102D JUMP JUMPDEST SWAP2 POP PUSH2 0x14B2 DUP3 PUSH2 0x1471 JUMP JUMPDEST PUSH1 0x20 DUP3 ADD SWAP1 POP SWAP2 SWAP1 POP JUMP JUMPDEST PUSH1 0x0 PUSH1 0x20 DUP3 ADD SWAP1 POP DUP2 DUP2 SUB PUSH1 0x0 DUP4 ADD MSTORE PUSH2 0x14D6 DUP2 PUSH2 0x149A JUMP JUMPDEST SWAP1 POP SWAP2 SWAP1 POP JUMP JUMPDEST PUSH32 0x4E6F2066756E647320746F2072656C6561736500000000000000000000000000 PUSH1 0x0 DUP3 ADD MSTORE POP JUMP JUMPDEST PUSH1 0x0 PUSH2 0x1513 PUSH1 0x13 DUP4 PUSH2 0x102D JUMP JUMPDEST SWAP2 POP PUSH2 0x151E DUP3 PUSH2 0x14DD JUMP JUMPDEST PUSH1 0x20 DUP3 ADD SWAP1 POP SWAP2 SWAP1 POP JUMP JUMPDEST PUSH1 0x0 PUSH1 0x20 DUP3 ADD SWAP1 POP DUP2 DUP2 SUB PUSH1 0x0 DUP4 ADD MSTORE PUSH2 0x1542 DUP2 PUSH2 0x1506 JUMP JUMPDEST SWAP1 POP SWAP2 SWAP1 POP JUMP JUMPDEST PUSH32 0x43616D706169676E20656E642064617465206E6F742072656163686564000000 PUSH1 0x0 DUP3 ADD MSTORE POP JUMP JUMPDEST PUSH1 0x0 PUSH2 0x157F PUSH1 0x1D DUP4 PUSH2 0x102D JUMP JUMPDEST SWAP2 POP PUSH2 0x158A DUP3 PUSH2 0x1549 JUMP JUMPDEST PUSH1 0x20 DUP3 ADD SWAP1 POP SWAP2 SWAP1 POP JUMP JUMPDEST PUSH1 0x0 PUSH1 0x20 DUP3 ADD SWAP1 POP DUP2 DUP2 SUB PUSH1 0x0 DUP4 ADD MSTORE PUSH2 0x15AE DUP2 PUSH2 0x1572 JUMP JUMPDEST SWAP1 POP SWAP2 SWAP1 POP JUMP JUMPDEST PUSH32 0x43616D706169676E2068617320656E6465640000000000000000000000000000 PUSH1 0x0 DUP3 ADD MSTORE POP JUMP JUMPDEST PUSH1 0x0 PUSH2 0x15EB PUSH1 0x12 DUP4 PUSH2 0x102D JUMP JUMPDEST SWAP2 POP PUSH2 0x15F6 DUP3 PUSH2 0x15B5 JUMP JUMPDEST PUSH1 0x20 DUP3 ADD SWAP1 POP SWAP2 SWAP1 POP JUMP JUMPDEST PUSH1 0x0 PUSH1 0x20 DUP3 ADD SWAP1 POP DUP2 DUP2 SUB PUSH1 0x0 DUP4 ADD MSTORE PUSH2 0x161A DUP2 PUSH2 0x15DE JUMP JUMPDEST SWAP1 POP SWAP2 SWAP1 POP JUMP JUMPDEST PUSH32 0x43616D706169676E2068617320616C726561647920656E646564000000000000 PUSH1 0x0 DUP3 ADD MSTORE POP JUMP JUMPDEST PUSH1 0x0 PUSH2 0x1657 PUSH1 0x1A DUP4 PUSH2 0x102D JUMP JUMPDEST SWAP2 POP PUSH2 0x1662 DUP3 PUSH2 0x1621 JUMP JUMPDEST PUSH1 0x20 DUP3 ADD SWAP1 POP SWAP2 SWAP1 POP JUMP JUMPDEST PUSH1 0x0 PUSH1 0x20 DUP3 ADD SWAP1 POP DUP2 DUP2 SUB PUSH1 0x0 DUP4 ADD MSTORE PUSH2 0x1686 DUP2 PUSH2 0x164A JUMP JUMPDEST SWAP1 POP SWAP2 SWAP1 POP JUMP JUMPDEST PUSH32 0x446F6E6174696F6E732062656C6F7720746865206D696E696D756D20616D6F75 PUSH1 0x0 DUP3 ADD MSTORE PUSH32 0x6E7420617265206E6F7420616C6C6F7765640000000000000000000000000000 PUSH1 0x20 DUP3 ADD MSTORE POP JUMP JUMPDEST PUSH1 0x0 PUSH2 0x16E9 PUSH1 0x32 DUP4 PUSH2 0x102D JUMP JUMPDEST SWAP2 POP PUSH2 0x16F4 DUP3 PUSH2 0x168D JUMP JUMPDEST PUSH1 0x40 DUP3 ADD SWAP1 POP SWAP2 SWAP1 POP JUMP JUMPDEST PUSH1 0x0 PUSH1 0x20 DUP3 ADD SWAP1 POP DUP2 DUP2 SUB PUSH1 0x0 DUP4 ADD MSTORE PUSH2 0x1718 DUP2 PUSH2 0x16DC JUMP JUMPDEST SWAP1 POP SWAP2 SWAP1 POP JUMP JUMPDEST PUSH32 0x4E487B7100000000000000000000000000000000000000000000000000000000 PUSH1 0x0 MSTORE PUSH1 0x11 PUSH1 0x4 MSTORE PUSH1 0x24 PUSH1 0x0 REVERT JUMPDEST PUSH1 0x0 PUSH2 0x1759 DUP3 PUSH2 0x10B2 JUMP JUMPDEST SWAP2 POP PUSH2 0x1764 DUP4 PUSH2 0x10B2 JUMP JUMPDEST SWAP3 POP DUP3 DUP3 ADD SWAP1 POP DUP1 DUP3 GT ISZERO PUSH2 0x177C JUMPI PUSH2 0x177B PUSH2 0x171F JUMP JUMPDEST JUMPDEST SWAP3 SWAP2 POP POP JUMP JUMPDEST PUSH32 0x446F6E6174696F6E206578636565647320676F616C0000000000000000000000 PUSH1 0x0 DUP3 ADD MSTORE POP JUMP JUMPDEST PUSH1 0x0 PUSH2 0x17B8 PUSH1 0x15 DUP4 PUSH2 0x102D JUMP JUMPDEST SWAP2 POP PUSH2 0x17C3 DUP3 PUSH2 0x1782 JUMP JUMPDEST PUSH1 0x20 DUP3 ADD SWAP1 POP SWAP2 SWAP1 POP JUMP JUMPDEST PUSH1 0x0 PUSH1 0x20 DUP3 ADD SWAP1 POP DUP2 DUP2 SUB PUSH1 0x0 DUP4 ADD MSTORE PUSH2 0x17E7 DUP2 PUSH2 0x17AB JUMP JUMPDEST SWAP1 POP SWAP2 SWAP1 POP JUMP INVALID LOG2 PUSH5 0x6970667358 0x22 SLT KECCAK256 0xEE CALLDATASIZE 0x26 SLT 0xD7 KECCAK256 0xC5 0xF6 SWAP8 ADD GAS MSTORE DUP7 0xDA 0x2D 0xAC DELEGATECALL DUP5 KECCAK256 PUSH2 0xD24D 0x4F 0xFC 0xF RETURNDATACOPY DUP8 0xB8 NUMBER GASPRICE PUSH3 0x6F6473 PUSH16 0x6C634300081B00330000000000000000 "
        },
        "methodIdentifiers": {
          "MIN_DONATION()": "db45810e",
          "contributions(address)": "42e94c90",
          "creator()": "02d05d3f",
          "description()": "7284e416",
          "donate()": "ed88c68e",
          "endCampaign()": "71aac7f9",
          "endDate()": "c24a0f8b",
          "getCampaignDetails()": "0c611f24",
          "getCampaignStatus()": "10550515",
          "goalAmount()": "2636b945",
          "image()": "f3ccaac0",
          "isCampaignEnded()": "e4880d96",
          "isGoalMet()": "0cd20578",
          "refund()": "590e1ae3",
          "releaseFunds()": "69d89575",
          "serverAddress()": "db420fe3",
          "title()": "4a79d50c",
          "totalContributionsAmount()": "aaf422bd"
        }
      }
    }
  }
}