{
  "_format": "hh-sol-artifact-1",
  "contractName": "CampaignFactory",
  "sourceName": "contracts/CampaignFactory.sol",
  "abi": [
    {
      "anonymous": false,
      "inputs": [
        {
          "indexed": true,
          "internalType": "address",
          "name": "campaignAddress",
          "type": "address"
        },
        {
          "indexed": true,
          "internalType": "address",
          "name": "creator",
          "type": "address"
        },
        {
          "indexed": false,
          "internalType": "uint256",
          "name": "goalAmount",
          "type": "uint256"
        },
        {
          "indexed": false,
          "internalType": "uint256",
          "name": "endDate",
          "type": "uint256"
        }
      ],
      "name": "CampaignCreated",
      "type": "event"
    },
    {
      "inputs": [
        {
          "internalType": "uint256",
          "name": "",
          "type": "uint256"
        }
      ],
      "name": "campaigns",
      "outputs": [
        {
          "internalType": "address",
          "name": "",
          "type": "address"
        }
      ],
      "stateMutability": "view",
      "type": "function"
    },
    {
      "inputs": [
        {
          "internalType": "uint256",
          "name": "_goalAmount",
          "type": "uint256"
        },
        {
          "internalType": "uint256",
          "name": "_endDate",
          "type": "uint256"
        }
      ],
      "name": "createCampaign",
      "outputs": [],
      "stateMutability": "nonpayable",
      "type": "function"
    },
    {
      "inputs": [
        {
          "internalType": "uint256",
          "name": "startIndex",
          "type": "uint256"
        },
        {
          "internalType": "uint256",
          "name": "limit",
          "type": "uint256"
        }
      ],
      "name": "getCampaigns",
      "outputs": [
        {
          "internalType": "address[]",
          "name": "",
          "type": "address[]"
        }
      ],
      "stateMutability": "view",
      "type": "function"
    },
    {
      "inputs": [],
      "name": "getTotalCampaigns",
      "outputs": [
        {
          "internalType": "uint256",
          "name": "",
          "type": "uint256"
        }
      ],
      "stateMutability": "view",
      "type": "function"
    }
  ],
  "bytecode": "0x6080604052348015600f57600080fd5b50611cc88061001f6000396000f3fe608060405234801561001057600080fd5b506004361061004c5760003560e01c80630905156614610051578063141961bc1461008157806316f43dd4146100b157806322502268146100cf575b600080fd5b61006b600480360381019061006691906103c7565b6100eb565b60405161007891906104f7565b60405180910390f35b61009b60048036038101906100969190610519565b610229565b6040516100a89190610555565b60405180910390f35b6100b9610268565b6040516100c6919061057f565b60405180910390f35b6100e960048036038101906100e491906103c7565b610274565b005b6060600082846100fb91906105c9565b90506000805490508111156101135760008054905090505b6000848261012191906105fd565b67ffffffffffffffff81111561013a57610139610631565b5b6040519080825280602002602001820160405280156101685781602001602082028036833780820191505090505b50905060008590505b8281101561021d576000818154811061018d5761018c610660565b5b9060005260206000200160009054906101000a900473ffffffffffffffffffffffffffffffffffffffff168287836101c591906105fd565b815181106101d6576101d5610660565b5b602002602001019073ffffffffffffffffffffffffffffffffffffffff16908173ffffffffffffffffffffffffffffffffffffffff16815250508080600101915050610171565b50809250505092915050565b6000818154811061023957600080fd5b906000526020600020016000915054906101000a900473ffffffffffffffffffffffffffffffffffffffff1681565b60008080549050905090565b60003383836040516102859061037f565b6102919392919061068f565b604051809103906000f0801580156102ad573d6000803e3d6000fd5b5090506000819080600181540180825580915050600190039060005260206000200160009091909190916101000a81548173ffffffffffffffffffffffffffffffffffffffff021916908373ffffffffffffffffffffffffffffffffffffffff1602179055503373ffffffffffffffffffffffffffffffffffffffff168173ffffffffffffffffffffffffffffffffffffffff167ffe76983af97e70cb1d5a3f3b21250c6bd2b5b9216dd3829a1cdab060e17ab15b85856040516103729291906106c6565b60405180910390a3505050565b6115a3806106f083390190565b600080fd5b6000819050919050565b6103a481610391565b81146103af57600080fd5b50565b6000813590506103c18161039b565b92915050565b600080604083850312156103de576103dd61038c565b5b60006103ec858286016103b2565b92505060206103fd858286016103b2565b9150509250929050565b600081519050919050565b600082825260208201905092915050565b6000819050602082019050919050565b600073ffffffffffffffffffffffffffffffffffffffff82169050919050565b600061045e82610433565b9050919050565b61046e81610453565b82525050565b60006104808383610465565b60208301905092915050565b6000602082019050919050565b60006104a482610407565b6104ae8185610412565b93506104b983610423565b8060005b838110156104ea5781516104d18882610474565b97506104dc8361048c565b9250506001810190506104bd565b5085935050505092915050565b600060208201905081810360008301526105118184610499565b905092915050565b60006020828403121561052f5761052e61038c565b5b600061053d848285016103b2565b91505092915050565b61054f81610453565b82525050565b600060208201905061056a6000830184610546565b92915050565b61057981610391565b82525050565b60006020820190506105946000830184610570565b92915050565b7f4e487b7100000000000000000000000000000000000000000000000000000000600052601160045260246000fd5b60006105d482610391565b91506105df83610391565b92508282019050808211156105f7576105f661059a565b5b92915050565b600061060882610391565b915061061383610391565b925082820390508181111561062b5761062a61059a565b5b92915050565b7f4e487b7100000000000000000000000000000000000000000000000000000000600052604160045260246000fd5b7f4e487b7100000000000000000000000000000000000000000000000000000000600052603260045260246000fd5b60006060820190506106a46000830186610546565b6106b16020830185610570565b6106be6040830184610570565b949350505050565b60006040820190506106db6000830185610570565b6106e86020830184610570565b939250505056fe608060405234801561001057600080fd5b506040516115a33803806115a3833981810160405281019061003291906101dd565b428111610074576040517f08c379a000000000000000000000000000000000000000000000000000000000815260040161006b9061028d565b60405180910390fd5b600082116100b7576040517f08c379a00000000000000000000000000000000000000000000000000000000081526004016100ae9061031f565b60405180910390fd5b82600160006101000a81548173ffffffffffffffffffffffffffffffffffffffff021916908373ffffffffffffffffffffffffffffffffffffffff16021790555081600281905550806004819055506000600560006101000a81548160ff0219169083151502179055506000600560016101000a81548160ff02191690831515021790555050505061033f565b600080fd5b600073ffffffffffffffffffffffffffffffffffffffff82169050919050565b600061017482610149565b9050919050565b61018481610169565b811461018f57600080fd5b50565b6000815190506101a18161017b565b92915050565b6000819050919050565b6101ba816101a7565b81146101c557600080fd5b50565b6000815190506101d7816101b1565b92915050565b6000806000606084860312156101f6576101f5610144565b5b600061020486828701610192565b9350506020610215868287016101c8565b9250506040610226868287016101c8565b9150509250925092565b600082825260208201905092915050565b7f456e642064617465206d75737420626520696e20746865206675747572650000600082015250565b6000610277601e83610230565b915061028282610241565b602082019050919050565b600060208201905081810360008301526102a68161026a565b9050919050565b7f476f616c20616d6f756e74206d7573742062652067726561746572207468616e60008201527f2030000000000000000000000000000000000000000000000000000000000000602082015250565b6000610309602283610230565b9150610314826102ad565b604082019050919050565b60006020820190508181036000830152610338816102fc565b9050919050565b6112558061034e6000396000f3fe6080604052600436106100dd5760003560e01c806371aac7f91161007f578063db420fe311610059578063db420fe314610267578063db45810e14610292578063e4880d96146102bd578063ed88c68e146102e8576100dd565b806371aac7f9146101fa578063aaf422bd14610211578063c24a0f8b1461023c576100dd565b80632636b945116100bb5780632636b9451461016457806342e94c901461018f578063590e1ae3146101cc57806369d89575146101e3576100dd565b806302d05d3f146100e25780630cd205781461010d5780631055051514610138575b600080fd5b3480156100ee57600080fd5b506100f76102f2565b6040516101049190610baf565b60405180910390f35b34801561011957600080fd5b50610122610318565b60405161012f9190610be5565b60405180910390f35b34801561014457600080fd5b5061014d61032b565b60405161015b929190610c19565b60405180910390f35b34801561017057600080fd5b50610179610349565b6040516101869190610c42565b60405180910390f35b34801561019b57600080fd5b506101b660048036038101906101b19190610c8e565b61034f565b6040516101c39190610c42565b60405180910390f35b3480156101d857600080fd5b506101e1610367565b005b3480156101ef57600080fd5b506101f8610577565b005b34801561020657600080fd5b5061020f6107a1565b005b34801561021d57600080fd5b506102266108e9565b6040516102339190610c42565b60405180910390f35b34801561024857600080fd5b506102516108ef565b60405161025e9190610c42565b60405180910390f35b34801561027357600080fd5b5061027c6108f5565b6040516102899190610baf565b60405180910390f35b34801561029e57600080fd5b506102a7610919565b6040516102b49190610c42565b60405180910390f35b3480156102c957600080fd5b506102d2610924565b6040516102df9190610be5565b60405180910390f35b6102f0610937565b005b600160009054906101000a900473ffffffffffffffffffffffffffffffffffffffff1681565b600560009054906101000a900460ff1681565b600080600560009054906101000a900460ff16600354915091509091565b60025481565b60066020528060005260406000206000915090505481565b600560009054906101000a900460ff16156103b7576040517f08c379a00000000000000000000000000000000000000000000000000000000081526004016103ae90610d18565b60405180910390fd5b600454421015806103d45750600560019054906101000a900460ff165b610413576040517f08c379a000000000000000000000000000000000000000000000000000000000815260040161040a90610daa565b60405180910390fd5b6000600660003373ffffffffffffffffffffffffffffffffffffffff1673ffffffffffffffffffffffffffffffffffffffff1681526020019081526020016000205490506000811161049a576040517f08c379a000000000000000000000000000000000000000000000000000000000815260040161049190610e16565b60405180910390fd5b6000600660003373ffffffffffffffffffffffffffffffffffffffff1673ffffffffffffffffffffffffffffffffffffffff168152602001908152602001600020819055503373ffffffffffffffffffffffffffffffffffffffff166108fc829081150290604051600060405180830381858888f19350505050158015610525573d6000803e3d6000fd5b503373ffffffffffffffffffffffffffffffffffffffff167fa171b6942063c6f2800ce40a780edce37baa2b618571b11eedd1e69e626e7d768260405161056c9190610c42565b60405180910390a250565b600160009054906101000a900473ffffffffffffffffffffffffffffffffffffffff1673ffffffffffffffffffffffffffffffffffffffff163373ffffffffffffffffffffffffffffffffffffffff16148061061e575060008054906101000a900473ffffffffffffffffffffffffffffffffffffffff1673ffffffffffffffffffffffffffffffffffffffff163373ffffffffffffffffffffffffffffffffffffffff16145b61065d576040517f08c379a000000000000000000000000000000000000000000000000000000000815260040161065490610e82565b60405180910390fd5b600560009054906101000a900460ff166106ac576040517f08c379a00000000000000000000000000000000000000000000000000000000081526004016106a390610eee565b60405180910390fd5b60006003549050600081116106f6576040517f08c379a00000000000000000000000000000000000000000000000000000000081526004016106ed90610f5a565b60405180910390fd5b6000600381905550600160009054906101000a900473ffffffffffffffffffffffffffffffffffffffff1673ffffffffffffffffffffffffffffffffffffffff166108fc829081150290604051600060405180830381858888f19350505050158015610766573d6000803e3d6000fd5b507f952b264c8e0a06cddb4bbaa6d6af1d565145329fd95bbe72cb2b53942b2dc966816040516107969190610c42565b60405180910390a150565b600160009054906101000a900473ffffffffffffffffffffffffffffffffffffffff1673ffffffffffffffffffffffffffffffffffffffff163373ffffffffffffffffffffffffffffffffffffffff161480610848575060008054906101000a900473ffffffffffffffffffffffffffffffffffffffff1673ffffffffffffffffffffffffffffffffffffffff163373ffffffffffffffffffffffffffffffffffffffff16145b610887576040517f08c379a000000000000000000000000000000000000000000000000000000000815260040161087e90610e82565b60405180910390fd5b6004544210156108cc576040517f08c379a00000000000000000000000000000000000000000000000000000000081526004016108c390610fc6565b60405180910390fd5b6001600560016101000a81548160ff021916908315150217905550565b60035481565b60045481565b60008054906101000a900473ffffffffffffffffffffffffffffffffffffffff1681565b662386f26fc1000081565b600560019054906101000a900460ff1681565b600454421061097b576040517f08c379a000000000000000000000000000000000000000000000000000000000815260040161097290611032565b60405180910390fd5b600560019054906101000a900460ff16156109cb576040517f08c379a00000000000000000000000000000000000000000000000000000000081526004016109c29061109e565b60405180910390fd5b6000349050662386f26fc10000811015610a1a576040517f08c379a0000000000000000000000000000000000000000000000000000000008152600401610a1190611130565b60405180910390fd5b60025481600354610a2b919061117f565b1115610a6c576040517f08c379a0000000000000000000000000000000000000000000000000000000008152600401610a63906111ff565b60405180910390fd5b80600660003373ffffffffffffffffffffffffffffffffffffffff1673ffffffffffffffffffffffffffffffffffffffff1681526020019081526020016000206000828254610abb919061117f565b925050819055508060036000828254610ad4919061117f565b925050819055503373ffffffffffffffffffffffffffffffffffffffff167f264f630d9efa0d07053a31163641d9fcc0adafc9d9e76f1c37c2ce3a558d2c5234604051610b219190610c42565b60405180910390a260025460035410610b6b576001600560006101000a81548160ff0219169083151502179055506001600560016101000a81548160ff0219169083151502179055505b50565b600073ffffffffffffffffffffffffffffffffffffffff82169050919050565b6000610b9982610b6e565b9050919050565b610ba981610b8e565b82525050565b6000602082019050610bc46000830184610ba0565b92915050565b60008115159050919050565b610bdf81610bca565b82525050565b6000602082019050610bfa6000830184610bd6565b92915050565b6000819050919050565b610c1381610c00565b82525050565b6000604082019050610c2e6000830185610bd6565b610c3b6020830184610c0a565b9392505050565b6000602082019050610c576000830184610c0a565b92915050565b600080fd5b610c6b81610b8e565b8114610c7657600080fd5b50565b600081359050610c8881610c62565b92915050565b600060208284031215610ca457610ca3610c5d565b5b6000610cb284828501610c79565b91505092915050565b600082825260208201905092915050565b7f476f616c206d65742c206e6f20726566756e647320617661696c61626c650000600082015250565b6000610d02601e83610cbb565b9150610d0d82610ccc565b602082019050919050565b60006020820190508181036000830152610d3181610cf5565b9050919050565b7f43616d706169676e206d75737420626520656e64656420666f7220726566756e60008201527f6473000000000000000000000000000000000000000000000000000000000000602082015250565b6000610d94602283610cbb565b9150610d9f82610d38565b604082019050919050565b60006020820190508181036000830152610dc381610d87565b9050919050565b7f4e6f20636f6e747269627574696f6e7320746f20726566756e64000000000000600082015250565b6000610e00601a83610cbb565b9150610e0b82610dca565b602082019050919050565b60006020820190508181036000830152610e2f81610df3565b9050919050565b7f4e6f7420616c6c6f776564000000000000000000000000000000000000000000600082015250565b6000610e6c600b83610cbb565b9150610e7782610e36565b602082019050919050565b60006020820190508181036000830152610e9b81610e5f565b9050919050565b7f476f616c206e6f74206d65740000000000000000000000000000000000000000600082015250565b6000610ed8600c83610cbb565b9150610ee382610ea2565b602082019050919050565b60006020820190508181036000830152610f0781610ecb565b9050919050565b7f4e6f2066756e647320746f2072656c6561736500000000000000000000000000600082015250565b6000610f44601383610cbb565b9150610f4f82610f0e565b602082019050919050565b60006020820190508181036000830152610f7381610f37565b9050919050565b7f43616d706169676e20656e642064617465206e6f742072656163686564000000600082015250565b6000610fb0601d83610cbb565b9150610fbb82610f7a565b602082019050919050565b60006020820190508181036000830152610fdf81610fa3565b9050919050565b7f43616d706169676e2068617320656e6465640000000000000000000000000000600082015250565b600061101c601283610cbb565b915061102782610fe6565b602082019050919050565b6000602082019050818103600083015261104b8161100f565b9050919050565b7f43616d706169676e2068617320616c726561647920656e646564000000000000600082015250565b6000611088601a83610cbb565b915061109382611052565b602082019050919050565b600060208201905081810360008301526110b78161107b565b9050919050565b7f446f6e6174696f6e732062656c6f7720746865206d696e696d756d20616d6f7560008201527f6e7420617265206e6f7420616c6c6f7765640000000000000000000000000000602082015250565b600061111a603283610cbb565b9150611125826110be565b604082019050919050565b600060208201905081810360008301526111498161110d565b9050919050565b7f4e487b7100000000000000000000000000000000000000000000000000000000600052601160045260246000fd5b600061118a82610c00565b915061119583610c00565b92508282019050808211156111ad576111ac611150565b5b92915050565b7f446f6e6174696f6e206578636565647320676f616c0000000000000000000000600082015250565b60006111e9601583610cbb565b91506111f4826111b3565b602082019050919050565b60006020820190508181036000830152611218816111dc565b905091905056fea26469706673582212205ca458e2c77ef997d996b13dad3fb3e8474988db060c06b1bed9c68e335c53a564736f6c634300081b0033a2646970667358221220fadc2c799d536786b679b0bedbfb7f90c35ff945ccce6becb5b3f3fdfe5ffdbe64736f6c634300081b0033",
  "linkReferences": {},
  "deployedLinkReferences": {}
}